{
  "_format": "hh-sol-artifact-1",
  "contractName": "ASHINO",
  "sourceName": "contracts/ASHINO.sol",
  "abi": [
    {
      "inputs": [
        {
          "internalType": "address",
          "name": "_router",
          "type": "address"
        },
        {
          "internalType": "string",
          "name": "_name",
          "type": "string"
        },
        {
          "internalType": "string",
          "name": "_symbol",
          "type": "string"
        }
      ],
      "stateMutability": "nonpayable",
      "type": "constructor"
    },
    {
      "anonymous": false,
      "inputs": [
        {
          "indexed": true,
          "internalType": "address",
          "name": "owner",
          "type": "address"
        },
        {
          "indexed": true,
          "internalType": "address",
          "name": "spender",
          "type": "address"
        },
        {
          "indexed": false,
          "internalType": "uint256",
          "name": "value",
          "type": "uint256"
        }
      ],
      "name": "Approval",
      "type": "event"
    },
    {
      "anonymous": false,
      "inputs": [],
      "name": "AutoNukeLP",
      "type": "event"
    },
    {
      "anonymous": false,
      "inputs": [
        {
          "indexed": true,
          "internalType": "address",
          "name": "sniper",
          "type": "address"
        }
      ],
      "name": "BoughtEarly",
      "type": "event"
    },
    {
      "anonymous": false,
      "inputs": [
        {
          "indexed": true,
          "internalType": "address",
          "name": "account",
          "type": "address"
        },
        {
          "indexed": false,
          "internalType": "bool",
          "name": "isExcluded",
          "type": "bool"
        }
      ],
      "name": "ExcludeFromFees",
      "type": "event"
    },
    {
      "anonymous": false,
      "inputs": [],
      "name": "ManualNukeLP",
      "type": "event"
    },
    {
      "anonymous": false,
      "inputs": [
        {
          "indexed": true,
          "internalType": "address",
          "name": "previousOwner",
          "type": "address"
        },
        {
          "indexed": true,
          "internalType": "address",
          "name": "newOwner",
          "type": "address"
        }
      ],
      "name": "OwnershipTransferred",
      "type": "event"
    },
    {
      "anonymous": false,
      "inputs": [
        {
          "indexed": true,
          "internalType": "address",
          "name": "pair",
          "type": "address"
        },
        {
          "indexed": true,
          "internalType": "bool",
          "name": "value",
          "type": "bool"
        }
      ],
      "name": "SetAutomatedMarketMakerPair",
      "type": "event"
    },
    {
      "anonymous": false,
      "inputs": [
        {
          "indexed": false,
          "internalType": "uint256",
          "name": "tokensSwapped",
          "type": "uint256"
        },
        {
          "indexed": false,
          "internalType": "uint256",
          "name": "ethReceived",
          "type": "uint256"
        },
        {
          "indexed": false,
          "internalType": "uint256",
          "name": "tokensIntoLiquidity",
          "type": "uint256"
        }
      ],
      "name": "SwapAndLiquify",
      "type": "event"
    },
    {
      "anonymous": false,
      "inputs": [
        {
          "indexed": true,
          "internalType": "address",
          "name": "from",
          "type": "address"
        },
        {
          "indexed": true,
          "internalType": "address",
          "name": "to",
          "type": "address"
        },
        {
          "indexed": false,
          "internalType": "uint256",
          "name": "value",
          "type": "uint256"
        }
      ],
      "name": "Transfer",
      "type": "event"
    },
    {
      "anonymous": false,
      "inputs": [
        {
          "indexed": true,
          "internalType": "address",
          "name": "newAddress",
          "type": "address"
        },
        {
          "indexed": true,
          "internalType": "address",
          "name": "oldAddress",
          "type": "address"
        }
      ],
      "name": "UpdateUniswapV2Router",
      "type": "event"
    },
    {
      "anonymous": false,
      "inputs": [
        {
          "indexed": true,
          "internalType": "address",
          "name": "newWallet",
          "type": "address"
        },
        {
          "indexed": true,
          "internalType": "address",
          "name": "oldWallet",
          "type": "address"
        }
      ],
      "name": "developmentWalletUpdated",
      "type": "event"
    },
    {
      "anonymous": false,
      "inputs": [
        {
          "indexed": true,
          "internalType": "address",
          "name": "newWallet",
          "type": "address"
        },
        {
          "indexed": true,
          "internalType": "address",
          "name": "oldWallet",
          "type": "address"
        }
      ],
      "name": "marketingWalletUpdated",
      "type": "event"
    },
    {
      "inputs": [
        {
          "internalType": "address",
          "name": "",
          "type": "address"
        }
      ],
      "name": "_isExcludedMaxTransactionAmount",
      "outputs": [
        {
          "internalType": "bool",
          "name": "",
          "type": "bool"
        }
      ],
      "stateMutability": "view",
      "type": "function"
    },
    {
      "inputs": [
        {
          "internalType": "address",
          "name": "owner",
          "type": "address"
        },
        {
          "internalType": "address",
          "name": "spender",
          "type": "address"
        }
      ],
      "name": "allowance",
      "outputs": [
        {
          "internalType": "uint256",
          "name": "",
          "type": "uint256"
        }
      ],
      "stateMutability": "view",
      "type": "function"
    },
    {
      "inputs": [
        {
          "internalType": "address",
          "name": "spender",
          "type": "address"
        },
        {
          "internalType": "uint256",
          "name": "amount",
          "type": "uint256"
        }
      ],
      "name": "approve",
      "outputs": [
        {
          "internalType": "bool",
          "name": "",
          "type": "bool"
        }
      ],
      "stateMutability": "nonpayable",
      "type": "function"
    },
    {
      "inputs": [
        {
          "internalType": "address",
          "name": "",
          "type": "address"
        }
      ],
      "name": "automatedMarketMakerPairs",
      "outputs": [
        {
          "internalType": "bool",
          "name": "",
          "type": "bool"
        }
      ],
      "stateMutability": "view",
      "type": "function"
    },
    {
      "inputs": [
        {
          "internalType": "address",
          "name": "account",
          "type": "address"
        }
      ],
      "name": "balanceOf",
      "outputs": [
        {
          "internalType": "uint256",
          "name": "",
          "type": "uint256"
        }
      ],
      "stateMutability": "view",
      "type": "function"
    },
    {
      "inputs": [],
      "name": "buyDevelopmentFee",
      "outputs": [
        {
          "internalType": "uint256",
          "name": "",
          "type": "uint256"
        }
      ],
      "stateMutability": "view",
      "type": "function"
    },
    {
      "inputs": [],
      "name": "buyLiquidityFee",
      "outputs": [
        {
          "internalType": "uint256",
          "name": "",
          "type": "uint256"
        }
      ],
      "stateMutability": "view",
      "type": "function"
    },
    {
      "inputs": [],
      "name": "buyMarketingFee",
      "outputs": [
        {
          "internalType": "uint256",
          "name": "",
          "type": "uint256"
        }
      ],
      "stateMutability": "view",
      "type": "function"
    },
    {
      "inputs": [],
      "name": "buyTotalFees",
      "outputs": [
        {
          "internalType": "uint256",
          "name": "",
          "type": "uint256"
        }
      ],
      "stateMutability": "view",
      "type": "function"
    },
    {
      "inputs": [],
      "name": "deadAddress",
      "outputs": [
        {
          "internalType": "address",
          "name": "",
          "type": "address"
        }
      ],
      "stateMutability": "view",
      "type": "function"
    },
    {
      "inputs": [],
      "name": "decimals",
      "outputs": [
        {
          "internalType": "uint8",
          "name": "",
          "type": "uint8"
        }
      ],
      "stateMutability": "view",
      "type": "function"
    },
    {
      "inputs": [
        {
          "internalType": "address",
          "name": "spender",
          "type": "address"
        },
        {
          "internalType": "uint256",
          "name": "subtractedValue",
          "type": "uint256"
        }
      ],
      "name": "decreaseAllowance",
      "outputs": [
        {
          "internalType": "bool",
          "name": "",
          "type": "bool"
        }
      ],
      "stateMutability": "nonpayable",
      "type": "function"
    },
    {
      "inputs": [],
      "name": "disableTransferDelay",
      "outputs": [
        {
          "internalType": "bool",
          "name": "",
          "type": "bool"
        }
      ],
      "stateMutability": "nonpayable",
      "type": "function"
    },
    {
      "inputs": [],
      "name": "enableTrading",
      "outputs": [],
      "stateMutability": "nonpayable",
      "type": "function"
    },
    {
      "inputs": [
        {
          "internalType": "address",
          "name": "account",
          "type": "address"
        },
        {
          "internalType": "bool",
          "name": "excluded",
          "type": "bool"
        }
      ],
      "name": "excludeFromFees",
      "outputs": [],
      "stateMutability": "nonpayable",
      "type": "function"
    },
    {
      "inputs": [
        {
          "internalType": "address",
          "name": "updAds",
          "type": "address"
        },
        {
          "internalType": "bool",
          "name": "isEx",
          "type": "bool"
        }
      ],
      "name": "excludeFromMaxTransaction",
      "outputs": [],
      "stateMutability": "nonpayable",
      "type": "function"
    },
    {
      "inputs": [
        {
          "internalType": "address",
          "name": "spender",
          "type": "address"
        },
        {
          "internalType": "uint256",
          "name": "addedValue",
          "type": "uint256"
        }
      ],
      "name": "increaseAllowance",
      "outputs": [
        {
          "internalType": "bool",
          "name": "",
          "type": "bool"
        }
      ],
      "stateMutability": "nonpayable",
      "type": "function"
    },
    {
      "inputs": [
        {
          "internalType": "address",
          "name": "account",
          "type": "address"
        }
      ],
      "name": "isExcludedFromFees",
      "outputs": [
        {
          "internalType": "bool",
          "name": "",
          "type": "bool"
        }
      ],
      "stateMutability": "view",
      "type": "function"
    },
    {
      "inputs": [],
      "name": "lastLpBurnTime",
      "outputs": [
        {
          "internalType": "uint256",
          "name": "",
          "type": "uint256"
        }
      ],
      "stateMutability": "view",
      "type": "function"
    },
    {
      "inputs": [],
      "name": "lastManualLpBurnTime",
      "outputs": [
        {
          "internalType": "uint256",
          "name": "",
          "type": "uint256"
        }
      ],
      "stateMutability": "view",
      "type": "function"
    },
    {
      "inputs": [],
      "name": "limitsInEffect",
      "outputs": [
        {
          "internalType": "bool",
          "name": "",
          "type": "bool"
        }
      ],
      "stateMutability": "view",
      "type": "function"
    },
    {
      "inputs": [],
      "name": "lpBurnEnabled",
      "outputs": [
        {
          "internalType": "bool",
          "name": "",
          "type": "bool"
        }
      ],
      "stateMutability": "view",
      "type": "function"
    },
    {
      "inputs": [],
      "name": "lpBurnFrequency",
      "outputs": [
        {
          "internalType": "uint256",
          "name": "",
          "type": "uint256"
        }
      ],
      "stateMutability": "view",
      "type": "function"
    },
    {
      "inputs": [],
      "name": "manualBurnFrequency",
      "outputs": [
        {
          "internalType": "uint256",
          "name": "",
          "type": "uint256"
        }
      ],
      "stateMutability": "view",
      "type": "function"
    },
    {
      "inputs": [
        {
          "internalType": "uint256",
          "name": "percent",
          "type": "uint256"
        }
      ],
      "name": "manualBurnLiquidityPairTokens",
      "outputs": [
        {
          "internalType": "bool",
          "name": "",
          "type": "bool"
        }
      ],
      "stateMutability": "nonpayable",
      "type": "function"
    },
    {
      "inputs": [],
      "name": "maxTransactionAmount",
      "outputs": [
        {
          "internalType": "uint256",
          "name": "",
          "type": "uint256"
        }
      ],
      "stateMutability": "view",
      "type": "function"
    },
    {
      "inputs": [],
      "name": "maxWallet",
      "outputs": [
        {
          "internalType": "uint256",
          "name": "",
          "type": "uint256"
        }
      ],
      "stateMutability": "view",
      "type": "function"
    },
    {
      "inputs": [],
      "name": "name",
      "outputs": [
        {
          "internalType": "string",
          "name": "",
          "type": "string"
        }
      ],
      "stateMutability": "view",
      "type": "function"
    },
    {
      "inputs": [],
      "name": "owner",
      "outputs": [
        {
          "internalType": "address",
          "name": "",
          "type": "address"
        }
      ],
      "stateMutability": "view",
      "type": "function"
    },
    {
      "inputs": [],
      "name": "percentForLPBurn",
      "outputs": [
        {
          "internalType": "uint256",
          "name": "",
          "type": "uint256"
        }
      ],
      "stateMutability": "view",
      "type": "function"
    },
    {
      "inputs": [],
      "name": "removeLimits",
      "outputs": [
        {
          "internalType": "bool",
          "name": "",
          "type": "bool"
        }
      ],
      "stateMutability": "nonpayable",
      "type": "function"
    },
    {
      "inputs": [],
      "name": "renounceOwnership",
      "outputs": [],
      "stateMutability": "nonpayable",
      "type": "function"
    },
    {
      "inputs": [],
      "name": "sellDevelopmentFee",
      "outputs": [
        {
          "internalType": "uint256",
          "name": "",
          "type": "uint256"
        }
      ],
      "stateMutability": "view",
      "type": "function"
    },
    {
      "inputs": [],
      "name": "sellLiquidityFee",
      "outputs": [
        {
          "internalType": "uint256",
          "name": "",
          "type": "uint256"
        }
      ],
      "stateMutability": "view",
      "type": "function"
    },
    {
      "inputs": [],
      "name": "sellMarketingFee",
      "outputs": [
        {
          "internalType": "uint256",
          "name": "",
          "type": "uint256"
        }
      ],
      "stateMutability": "view",
      "type": "function"
    },
    {
      "inputs": [],
      "name": "sellTotalFees",
      "outputs": [
        {
          "internalType": "uint256",
          "name": "",
          "type": "uint256"
        }
      ],
      "stateMutability": "view",
      "type": "function"
    },
    {
      "inputs": [
        {
          "internalType": "uint256",
          "name": "_frequencyInSeconds",
          "type": "uint256"
        },
        {
          "internalType": "uint256",
          "name": "_percent",
          "type": "uint256"
        },
        {
          "internalType": "bool",
          "name": "_Enabled",
          "type": "bool"
        }
      ],
      "name": "setAutoLPBurnSettings",
      "outputs": [],
      "stateMutability": "nonpayable",
      "type": "function"
    },
    {
      "inputs": [
        {
          "internalType": "address",
          "name": "pair",
          "type": "address"
        },
        {
          "internalType": "bool",
          "name": "value",
          "type": "bool"
        }
      ],
      "name": "setAutomatedMarketMakerPair",
      "outputs": [],
      "stateMutability": "nonpayable",
      "type": "function"
    },
    {
      "inputs": [],
      "name": "swapEnabled",
      "outputs": [
        {
          "internalType": "bool",
          "name": "",
          "type": "bool"
        }
      ],
      "stateMutability": "view",
      "type": "function"
    },
    {
      "inputs": [],
      "name": "swapTokensAtAmount",
      "outputs": [
        {
          "internalType": "uint256",
          "name": "",
          "type": "uint256"
        }
      ],
      "stateMutability": "view",
      "type": "function"
    },
    {
      "inputs": [],
      "name": "symbol",
      "outputs": [
        {
          "internalType": "string",
          "name": "",
          "type": "string"
        }
      ],
      "stateMutability": "view",
      "type": "function"
    },
    {
      "inputs": [],
      "name": "tokensForDev",
      "outputs": [
        {
          "internalType": "uint256",
          "name": "",
          "type": "uint256"
        }
      ],
      "stateMutability": "view",
      "type": "function"
    },
    {
      "inputs": [],
      "name": "tokensForLiquidity",
      "outputs": [
        {
          "internalType": "uint256",
          "name": "",
          "type": "uint256"
        }
      ],
      "stateMutability": "view",
      "type": "function"
    },
    {
      "inputs": [],
      "name": "tokensForMarketing",
      "outputs": [
        {
          "internalType": "uint256",
          "name": "",
          "type": "uint256"
        }
      ],
      "stateMutability": "view",
      "type": "function"
    },
    {
      "inputs": [],
      "name": "totalSupply",
      "outputs": [
        {
          "internalType": "uint256",
          "name": "",
          "type": "uint256"
        }
      ],
      "stateMutability": "view",
      "type": "function"
    },
    {
      "inputs": [],
      "name": "tradingActive",
      "outputs": [
        {
          "internalType": "bool",
          "name": "",
          "type": "bool"
        }
      ],
      "stateMutability": "view",
      "type": "function"
    },
    {
      "inputs": [
        {
          "internalType": "address",
          "name": "to",
          "type": "address"
        },
        {
          "internalType": "uint256",
          "name": "amount",
          "type": "uint256"
        }
      ],
      "name": "transfer",
      "outputs": [
        {
          "internalType": "bool",
          "name": "",
          "type": "bool"
        }
      ],
      "stateMutability": "nonpayable",
      "type": "function"
    },
    {
      "inputs": [],
      "name": "transferDelayEnabled",
      "outputs": [
        {
          "internalType": "bool",
          "name": "",
          "type": "bool"
        }
      ],
      "stateMutability": "view",
      "type": "function"
    },
    {
      "inputs": [
        {
          "internalType": "address",
          "name": "from",
          "type": "address"
        },
        {
          "internalType": "address",
          "name": "to",
          "type": "address"
        },
        {
          "internalType": "uint256",
          "name": "amount",
          "type": "uint256"
        }
      ],
      "name": "transferFrom",
      "outputs": [
        {
          "internalType": "bool",
          "name": "",
          "type": "bool"
        }
      ],
      "stateMutability": "nonpayable",
      "type": "function"
    },
    {
      "inputs": [
        {
          "internalType": "address",
          "name": "newOwner",
          "type": "address"
        }
      ],
      "name": "transferOwnership",
      "outputs": [],
      "stateMutability": "nonpayable",
      "type": "function"
    },
    {
      "inputs": [],
      "name": "uniswapV2Pair",
      "outputs": [
        {
          "internalType": "address",
          "name": "",
          "type": "address"
        }
      ],
      "stateMutability": "view",
      "type": "function"
    },
    {
      "inputs": [],
      "name": "uniswapV2Router",
      "outputs": [
        {
          "internalType": "contract IPancakeRouter02",
          "name": "",
          "type": "address"
        }
      ],
      "stateMutability": "view",
      "type": "function"
    },
    {
      "inputs": [
        {
          "internalType": "uint256",
          "name": "_marketingFee",
          "type": "uint256"
        },
        {
          "internalType": "uint256",
          "name": "_liquidityFee",
          "type": "uint256"
        },
        {
          "internalType": "uint256",
          "name": "_developmentFee",
          "type": "uint256"
        }
      ],
      "name": "updateBuyFees",
      "outputs": [],
      "stateMutability": "nonpayable",
      "type": "function"
    },
    {
      "inputs": [
        {
          "internalType": "address",
          "name": "newWallet",
          "type": "address"
        }
      ],
      "name": "updateDevelopmentWalletInfo",
      "outputs": [],
      "stateMutability": "nonpayable",
      "type": "function"
    },
    {
      "inputs": [
        {
          "internalType": "address",
          "name": "newMarketingWallet",
          "type": "address"
        }
      ],
      "name": "updateMarketingWalletInfo",
      "outputs": [],
      "stateMutability": "nonpayable",
      "type": "function"
    },
    {
      "inputs": [
        {
          "internalType": "uint256",
          "name": "newNum",
          "type": "uint256"
        }
      ],
      "name": "updateMaxTxnAmount",
      "outputs": [],
      "stateMutability": "nonpayable",
      "type": "function"
    },
    {
      "inputs": [
        {
          "internalType": "uint256",
          "name": "newNum",
          "type": "uint256"
        }
      ],
      "name": "updateMaxWalletAmount",
      "outputs": [],
      "stateMutability": "nonpayable",
      "type": "function"
    },
    {
      "inputs": [
        {
          "internalType": "uint256",
          "name": "_marketingFee",
          "type": "uint256"
        },
        {
          "internalType": "uint256",
          "name": "_liquidityFee",
          "type": "uint256"
        },
        {
          "internalType": "uint256",
          "name": "_developmentFee",
          "type": "uint256"
        }
      ],
      "name": "updateSellFees",
      "outputs": [],
      "stateMutability": "nonpayable",
      "type": "function"
    },
    {
      "inputs": [
        {
          "internalType": "bool",
          "name": "enabled",
          "type": "bool"
        }
      ],
      "name": "updateSwapEnabled",
      "outputs": [],
      "stateMutability": "nonpayable",
      "type": "function"
    },
    {
      "inputs": [
        {
          "internalType": "uint256",
          "name": "newAmount",
          "type": "uint256"
        }
      ],
      "name": "updateSwapTokensAtAmount",
      "outputs": [
        {
          "internalType": "bool",
          "name": "",
          "type": "bool"
        }
      ],
      "stateMutability": "nonpayable",
      "type": "function"
    },
    {
      "stateMutability": "payable",
      "type": "receive"
    }
  ],
  "bytecode": "0x60c06040526000600b55600c805460ff19908116909155610e10600d55610708600f556011805462ffffff1916620100011790556013805490911660011790553480156200004c57600080fd5b5060405162003a6238038062003a628339810160408190526200006f9162000723565b828282818160036200008283826200082e565b5060046200009182826200082e565b505050620000ae620000a8620003d060201b60201c565b620003d4565b82620000bc81600162000426565b6001600160a01b03811660808190526040805163c45a015560e01b8152905163c45a0155916004808201926020929091908290030181865afa15801562000107573d6000803e3d6000fd5b505050506040513d601f19601f820116820180604052508101906200012d9190620008fa565b6001600160a01b031663c9c6539630836001600160a01b031663ad5c46486040518163ffffffff1660e01b8152600401602060405180830381865afa1580156200017b573d6000803e3d6000fd5b505050506040513d601f19601f82011682018060405250810190620001a19190620008fa565b6040516001600160e01b031960e085901b1681526001600160a01b039283166004820152911660248201526044016020604051808303816000875af1158015620001ef573d6000803e3d6000fd5b505050506040513d601f19601f82011682018060405250810190620002159190620008fa565b6001600160a01b031660a08190526200023090600162000426565b60a051620002409060016200045a565b6a013da329b63364718000006008556a01a784379d99db42000000600a9081556004906000906001908390839083906a52b7d2dcc80cd2e400000090612710906200028d90839062000935565b62000299919062000955565b60095560158790556016869055601785905584620002b8878962000978565b620002c4919062000978565b6014556019849055601a839055601b82905581620002e3848662000978565b620002ef919062000978565b601855600680546001600160a01b0319908116730c5ff2358aee1f931c340da41bc71c9a166c1c9517909155600780549091167392208bff3a44d2b0978c963bba07879467000ae217905562000359620003516005546001600160a01b031690565b6001620004ae565b62000366306001620004ae565b6200037561dead6001620004ae565b620003946200038c6005546001600160a01b031690565b600162000426565b620003a130600162000426565b620003b061dead600162000426565b620003bc338262000517565b50505050505050505050505050506200098e565b3390565b600580546001600160a01b038381166001600160a01b0319831681179093556040519116919082907f8be0079c531659141344cd1fd0a4f28419497f9722a3daafe3b4186f6b6457e090600090a35050565b62000430620005de565b6001600160a01b039190911660009081526020805260409020805460ff1916911515919091179055565b6001600160a01b038216600081815260216020526040808220805460ff191685151590811790915590519092917fffa9187bf1f18bf477bd0ea1bcbb64e93b6a98132473929edfce215cd9b16fab91a35050565b620004b8620005de565b6001600160a01b0382166000818152601f6020908152604091829020805460ff191685151590811790915591519182527f9d8f7706ea1113d1a167b526eca956215946dd36cc7df39eb16180222d8b5df7910160405180910390a25050565b6001600160a01b038216620005735760405162461bcd60e51b815260206004820152601f60248201527f45524332303a206d696e7420746f20746865207a65726f20616464726573730060448201526064015b60405180910390fd5b806002600082825462000587919062000978565b90915550506001600160a01b038216600081815260208181526040808320805486019055518481527fddf252ad1be2c89b69c2b068fc378daa952ba7f163c4a11628f55a4df523b3ef910160405180910390a35050565b6005546001600160a01b031633146200063a5760405162461bcd60e51b815260206004820181905260248201527f4f776e61626c653a2063616c6c6572206973206e6f7420746865206f776e657260448201526064016200056a565b565b505050565b80516001600160a01b03811681146200065957600080fd5b919050565b634e487b7160e01b600052604160045260246000fd5b600082601f8301126200068657600080fd5b81516001600160401b0380821115620006a357620006a36200065e565b604051601f8301601f19908116603f01168101908282118183101715620006ce57620006ce6200065e565b81604052838152602092508683858801011115620006eb57600080fd5b600091505b838210156200070f5785820183015181830184015290820190620006f0565b600093810190920192909252949350505050565b6000806000606084860312156200073957600080fd5b620007448462000641565b60208501519093506001600160401b03808211156200076257600080fd5b620007708783880162000674565b935060408601519150808211156200078757600080fd5b50620007968682870162000674565b9150509250925092565b600181811c90821680620007b557607f821691505b602082108103620007d657634e487b7160e01b600052602260045260246000fd5b50919050565b601f8211156200063c57600081815260208120601f850160051c81016020861015620008055750805b601f850160051c820191505b81811015620008265782815560010162000811565b505050505050565b81516001600160401b038111156200084a576200084a6200065e565b62000862816200085b8454620007a0565b84620007dc565b602080601f8311600181146200089a5760008415620008815750858301515b600019600386901b1c1916600185901b17855562000826565b600085815260208120601f198616915b82811015620008cb57888601518255948401946001909101908401620008aa565b5085821015620008ea5787850151600019600388901b60f8161c191681555b5050505050600190811b01905550565b6000602082840312156200090d57600080fd5b620009188262000641565b9392505050565b634e487b7160e01b600052601160045260246000fd5b80820281158282048414176200094f576200094f6200091f565b92915050565b6000826200097357634e487b7160e01b600052601260045260246000fd5b500490565b808201808211156200094f576200094f6200091f565b60805160a05161304562000a1d600039600081816105e001528181610f7e0152818161152b015281816115c6015281816115f2015281816118a001528181611e0b0152818161276401528181612806015261283201526000818161044301528181611dcd0152818161293c015281816129f501528181612a3101528181612aab0152612b0801526130456000f3fe60806040526004361061039b5760003560e01c80638095d564116101dc578063c024666811610102578063dd62ed3e116100a0578063f2fde38b1161006f578063f2fde38b14610a4d578063f637434214610a6d578063f8b45b0514610a83578063fe72b27a14610a9957600080fd5b8063dd62ed3e146109ec578063e2f4560514610a0c578063e884f26014610a22578063f11a24d314610a3757600080fd5b8063c876d0b9116100dc578063c876d0b914610986578063c8c8ebe4146109a0578063d257b34f146109b6578063d85ba063146109d657600080fd5b8063c024666814610926578063c17b5b8c14610946578063c18bc1951461096657600080fd5b80639ec22c0e1161017a578063a9059cbb11610149578063a9059cbb146108a1578063b2041411146108c1578063b62496f5146108d7578063bbc0c7421461090757600080fd5b80639ec22c0e1461083f5780639fccce3214610855578063a457c2d71461086b578063a4c82a001461088b57600080fd5b806392136913116101b657806392136913146107d4578063924de9b7146107ea57806395d89b411461080a5780639a7a23d61461081f57600080fd5b80638095d564146107815780638a8c523c146107a15780638da5cb5b146107b657600080fd5b8063313ce567116102c15780636ddd17131161025f578063751039fc1161022e578063751039fc146107165780637571336a1461072b5780637bce5a041461074b5780637d831a8b1461076157600080fd5b80636ddd17131461068b57806370a08231146106ab578063715018a6146106e1578063730c1888146106f657600080fd5b80634a62bb651161029b5780634a62bb65146106025780634fbee1931461061c578063535e02d8146106555780636a486a8e1461067557600080fd5b8063313ce5671461059257806339509351146105ae57806349bd5a5e146105ce57600080fd5b8063199ffc721161033957806323b872dd1161030857806323b872dd1461052c57806327c8f8351461054c5780632c3e486c146105625780632e82f1a01461057857600080fd5b8063199ffc72146104c85780631a8145bb146104de5780631f3fed8f146104f4578063203e727e1461050a57600080fd5b80631694505e116103755780631694505e1461043157806318160ddd1461047d578063184c16c51461049c57806318a94cf1146104b257600080fd5b806306fdde03146103a7578063095ea7b3146103d257806310d5de531461040257600080fd5b366103a257005b600080fd5b3480156103b357600080fd5b506103bc610ab9565b6040516103c99190612b86565b60405180910390f35b3480156103de57600080fd5b506103f26103ed366004612be9565b610b4b565b60405190151581526020016103c9565b34801561040e57600080fd5b506103f261041d366004612c15565b602080526000908152604090205460ff1681565b34801561043d57600080fd5b506104657f000000000000000000000000000000000000000000000000000000000000000081565b6040516001600160a01b0390911681526020016103c9565b34801561048957600080fd5b506002545b6040519081526020016103c9565b3480156104a857600080fd5b5061048e600f5481565b3480156104be57600080fd5b5061048e601b5481565b3480156104d457600080fd5b5061048e600b5481565b3480156104ea57600080fd5b5061048e601d5481565b34801561050057600080fd5b5061048e601c5481565b34801561051657600080fd5b5061052a610525366004612c32565b610b65565b005b34801561053857600080fd5b506103f2610547366004612c4b565b610c25565b34801561055857600080fd5b5061046561dead81565b34801561056e57600080fd5b5061048e600d5481565b34801561058457600080fd5b50600c546103f29060ff1681565b34801561059e57600080fd5b50604051601281526020016103c9565b3480156105ba57600080fd5b506103f26105c9366004612be9565b610c49565b3480156105da57600080fd5b506104657f000000000000000000000000000000000000000000000000000000000000000081565b34801561060e57600080fd5b506011546103f29060ff1681565b34801561062857600080fd5b506103f2610637366004612c15565b6001600160a01b03166000908152601f602052604090205460ff1690565b34801561066157600080fd5b5061052a610670366004612c15565b610c6b565b34801561068157600080fd5b5061048e60185481565b34801561069757600080fd5b506011546103f29062010000900460ff1681565b3480156106b757600080fd5b5061048e6106c6366004612c15565b6001600160a01b031660009081526020819052604090205490565b3480156106ed57600080fd5b5061052a610cd0565b34801561070257600080fd5b5061052a610711366004612c9c565b610ce4565b34801561072257600080fd5b506103f2610deb565b34801561073757600080fd5b5061052a610746366004612cd1565b610e05565b34801561075757600080fd5b5061048e60155481565b34801561076d57600080fd5b5061052a61077c366004612c15565b610e37565b34801561078d57600080fd5b5061052a61079c366004612d06565b610e9c565b3480156107ad57600080fd5b5061052a610f22565b3480156107c257600080fd5b506005546001600160a01b0316610465565b3480156107e057600080fd5b5061048e60195481565b3480156107f657600080fd5b5061052a610805366004612d32565b610f41565b34801561081657600080fd5b506103bc610f65565b34801561082b57600080fd5b5061052a61083a366004612cd1565b610f74565b34801561084b57600080fd5b5061048e60105481565b34801561086157600080fd5b5061048e601e5481565b34801561087757600080fd5b506103f2610886366004612be9565b611031565b34801561089757600080fd5b5061048e600e5481565b3480156108ad57600080fd5b506103f26108bc366004612be9565b6110ac565b3480156108cd57600080fd5b5061048e60175481565b3480156108e357600080fd5b506103f26108f2366004612c15565b60216020526000908152604090205460ff1681565b34801561091357600080fd5b506011546103f290610100900460ff1681565b34801561093257600080fd5b5061052a610941366004612cd1565b6110ba565b34801561095257600080fd5b5061052a610961366004612d06565b611121565b34801561097257600080fd5b5061052a610981366004612c32565b6111a2565b34801561099257600080fd5b506013546103f29060ff1681565b3480156109ac57600080fd5b5061048e60085481565b3480156109c257600080fd5b506103f26109d1366004612c32565b611251565b3480156109e257600080fd5b5061048e60145481565b3480156109f857600080fd5b5061048e610a07366004612d4d565b611385565b348015610a1857600080fd5b5061048e60095481565b348015610a2e57600080fd5b506103f26113b0565b348015610a4357600080fd5b5061048e60165481565b348015610a5957600080fd5b5061052a610a68366004612c15565b6113ca565b348015610a7957600080fd5b5061048e601a5481565b348015610a8f57600080fd5b5061048e600a5481565b348015610aa557600080fd5b506103f2610ab4366004612c32565b611443565b606060038054610ac890612d86565b80601f0160208091040260200160405190810160405280929190818152602001828054610af490612d86565b8015610b415780601f10610b1657610100808354040283529160200191610b41565b820191906000526020600020905b815481529060010190602001808311610b2457829003601f168201915b5050505050905090565b600033610b5981858561169a565b60019150505b92915050565b610b6d6117be565b670de0b6b3a76400006103e8610b8260025490565b610b8d906001612dd6565b610b979190612ded565b610ba19190612ded565b811015610c0d5760405162461bcd60e51b815260206004820152602f60248201527f43616e6e6f7420736574206d61785472616e73616374696f6e416d6f756e742060448201526e6c6f776572207468616e20302e312560881b60648201526084015b60405180910390fd5b610c1f81670de0b6b3a7640000612dd6565b60085550565b600033610c33858285611818565b610c3e858585611892565b506001949350505050565b600033610b59818585610c5c8383611385565b610c669190612e0f565b61169a565b610c736117be565b6007546040516001600160a01b03918216918316907ffaf1b77ed79f6e898c44dd8ab36b330c7b2fd39bcaab05ed6362480df870396590600090a3600780546001600160a01b0319166001600160a01b0392909216919091179055565b610cd86117be565b610ce26000611a48565b565b610cec6117be565b610258831015610d5a5760405162461bcd60e51b815260206004820152603360248201527f63616e6e6f7420736574206275796261636b206d6f7265206f6674656e207468604482015272616e206576657279203130206d696e7574657360681b6064820152608401610c04565b6103e88211158015610d6a575060015b610dcf5760405162461bcd60e51b815260206004820152603060248201527f4d75737420736574206175746f204c50206275726e2070657263656e7420626560448201526f747765656e20302520616e642031302560801b6064820152608401610c04565b600d92909255600b55600c805460ff1916911515919091179055565b6000610df56117be565b506011805460ff19169055600190565b610e0d6117be565b6001600160a01b039190911660009081526020805260409020805460ff1916911515919091179055565b610e3f6117be565b6006546040516001600160a01b03918216918316907fa751787977eeb3902e30e1d19ca00c6ad274a1f622c31a206e32366700b0567490600090a3600680546001600160a01b0319166001600160a01b0392909216919091179055565b610ea46117be565b60158390556016829055601781905580610ebe8385612e0f565b610ec89190612e0f565b601481905560231015610f1d5760405162461bcd60e51b815260206004820152601d60248201527f4d757374206b656570206665657320617420333525206f72206c6573730000006044820152606401610c04565b505050565b610f2a6117be565b6011805462ffff0019166201010017905542600e55565b610f496117be565b60118054911515620100000262ff000019909216919091179055565b606060048054610ac890612d86565b610f7c6117be565b7f00000000000000000000000000000000000000000000000000000000000000006001600160a01b0316826001600160a01b0316036110235760405162461bcd60e51b815260206004820152603960248201527f54686520706169722063616e6e6f742062652072656d6f7665642066726f6d2060448201527f6175746f6d617465644d61726b65744d616b65725061697273000000000000006064820152608401610c04565b61102d8282611a9a565b5050565b6000338161103f8286611385565b90508381101561109f5760405162461bcd60e51b815260206004820152602560248201527f45524332303a2064656372656173656420616c6c6f77616e63652062656c6f77604482015264207a65726f60d81b6064820152608401610c04565b610c3e828686840361169a565b600033610b59818585611892565b6110c26117be565b6001600160a01b0382166000818152601f6020908152604091829020805460ff191685151590811790915591519182527f9d8f7706ea1113d1a167b526eca956215946dd36cc7df39eb16180222d8b5df7910160405180910390a25050565b6111296117be565b6019839055601a829055601b819055806111438385612e0f565b61114d9190612e0f565b601881905560631015610f1d5760405162461bcd60e51b815260206004820152601d60248201527f4d757374206b656570206665657320617420343025206f72206c6573730000006044820152606401610c04565b6111aa6117be565b670de0b6b3a76400006103e86111bf60025490565b6111ca906005612dd6565b6111d49190612ded565b6111de9190612ded565b8110156112395760405162461bcd60e51b8152602060048201526024808201527f43616e6e6f7420736574206d617857616c6c6574206c6f776572207468616e20604482015263302e352560e01b6064820152608401610c04565b61124b81670de0b6b3a7640000612dd6565b600a5550565b600061125b6117be565b620186a061126860025490565b611273906001612dd6565b61127d9190612ded565b8210156112ea5760405162461bcd60e51b815260206004820152603560248201527f5377617020616d6f756e742063616e6e6f74206265206c6f776572207468616e60448201527410181718181892903a37ba30b61039bab838363c9760591b6064820152608401610c04565b6103e86112f660025490565b611301906005612dd6565b61130b9190612ded565b8211156113775760405162461bcd60e51b815260206004820152603460248201527f5377617020616d6f756e742063616e6e6f742062652068696768657220746861604482015273371018171a92903a37ba30b61039bab838363c9760611b6064820152608401610c04565b50600981905560015b919050565b6001600160a01b03918216600090815260016020908152604080832093909416825291909152205490565b60006113ba6117be565b506013805460ff19169055600190565b6113d26117be565b6001600160a01b0381166114375760405162461bcd60e51b815260206004820152602660248201527f4f776e61626c653a206e6577206f776e657220697320746865207a65726f206160448201526564647265737360d01b6064820152608401610c04565b61144081611a48565b50565b600061144d6117be565b600f5460105461145d9190612e0f565b42116114ab5760405162461bcd60e51b815260206004820181905260248201527f4d757374207761697420666f7220636f6f6c646f776e20746f2066696e6973686044820152606401610c04565b6103e88211156115105760405162461bcd60e51b815260206004820152602a60248201527f4d6179206e6f74206e756b65206d6f7265207468616e20313025206f6620746f60448201526906b656e7320696e204c560b41b6064820152608401610c04565b426010556040516370a0823160e01b81526001600160a01b037f000000000000000000000000000000000000000000000000000000000000000016600482015260009030906370a0823190602401602060405180830381865afa15801561157b573d6000803e3d6000fd5b505050506040513d601f19601f8201168201806040525081019061159f9190612e22565b905060006115b96127106115b38487611aee565b90611b01565b905080156115ee576115ee7f000000000000000000000000000000000000000000000000000000000000000061dead83611b0d565b60007f00000000000000000000000000000000000000000000000000000000000000009050806001600160a01b031663fff6cae96040518163ffffffff1660e01b8152600401600060405180830381600087803b15801561164e57600080fd5b505af1158015611662573d6000803e3d6000fd5b50506040517f8462566617872a3fbab94534675218431ff9e204063ee3f4f43d965626a39abb925060009150a1506001949350505050565b6001600160a01b0383166116fc5760405162461bcd60e51b8152602060048201526024808201527f45524332303a20617070726f76652066726f6d20746865207a65726f206164646044820152637265737360e01b6064820152608401610c04565b6001600160a01b03821661175d5760405162461bcd60e51b815260206004820152602260248201527f45524332303a20617070726f766520746f20746865207a65726f206164647265604482015261737360f01b6064820152608401610c04565b6001600160a01b0383811660008181526001602090815260408083209487168084529482529182902085905590518481527f8c5be1e5ebec7d5bd14f71427d1e84f3dd0314c0f7b2291e5b200ac8c7c3b925910160405180910390a3505050565b6005546001600160a01b03163314610ce25760405162461bcd60e51b815260206004820181905260248201527f4f776e61626c653a2063616c6c6572206973206e6f7420746865206f776e65726044820152606401610c04565b60006118248484611385565b9050600019811461188c578181101561187f5760405162461bcd60e51b815260206004820152601d60248201527f45524332303a20696e73756666696369656e7420616c6c6f77616e63650000006044820152606401610c04565b61188c848484840361169a565b50505050565b6022546000036119865760007f00000000000000000000000000000000000000000000000000000000000000009050600080826001600160a01b0316630902f1ac6040518163ffffffff1660e01b8152600401606060405180830381865afa158015611902573d6000803e3d6000fd5b505050506040513d601f19601f820116820180604052508101906119269190612e52565b506001600160a01b038716600090815260216020526040902054919350915060ff16801561195b57506001600160701b038216155b801561196e57506001600160701b038116155b156119825761197e436005612e0f565b6022555b5050505b6001600160a01b03831660009081526021602052604090205460ff1615611a3d576000602254116119f95760405162461bcd60e51b815260206004820152601a60248201527f4e6f7420616464656420746f20746865206c69717569646974790000000000006044820152606401610c04565b602254431015611a3d5760006064611a12836063612dd6565b611a1c9190612ded565b9050611a29843083611b0d565b61188c8484611a388486612ea2565b611b0d565b610f1d838383611c37565b600580546001600160a01b038381166001600160a01b0319831681179093556040519116919082907f8be0079c531659141344cd1fd0a4f28419497f9722a3daafe3b4186f6b6457e090600090a35050565b6001600160a01b038216600081815260216020526040808220805460ff191685151590811790915590519092917fffa9187bf1f18bf477bd0ea1bcbb64e93b6a98132473929edfce215cd9b16fab91a35050565b6000611afa8284612dd6565b9392505050565b6000611afa8284612ded565b6001600160a01b038316611b335760405162461bcd60e51b8152600401610c0490612eb5565b6001600160a01b038216611b595760405162461bcd60e51b8152600401610c0490612efa565b6001600160a01b03831660009081526020819052604090205481811015611bd15760405162461bcd60e51b815260206004820152602660248201527f45524332303a207472616e7366657220616d6f756e7420657863656564732062604482015265616c616e636560d01b6064820152608401610c04565b6001600160a01b03848116600081815260208181526040808320878703905593871680835291849020805487019055925185815290927fddf252ad1be2c89b69c2b068fc378daa952ba7f163c4a11628f55a4df523b3ef910160405180910390a361188c565b6001600160a01b038316611c5d5760405162461bcd60e51b8152600401610c0490612eb5565b6001600160a01b038216611c835760405162461bcd60e51b8152600401610c0490612efa565b80600003611c9757610f1d83836000611b0d565b60115460ff1615612151576005546001600160a01b03848116911614801590611cce57506005546001600160a01b03838116911614155b8015611ce257506001600160a01b03821615155b8015611cf957506001600160a01b03821661dead14155b8015611d0f5750600554600160a01b900460ff16155b1561215157601154610100900460ff16611da7576001600160a01b0383166000908152601f602052604090205460ff1680611d6257506001600160a01b0382166000908152601f602052604090205460ff165b611da75760405162461bcd60e51b81526020600482015260166024820152752a3930b234b7339034b9903737ba1030b1ba34bb329760511b6044820152606401610c04565b60135460ff1615611eee576005546001600160a01b03838116911614801590611e0257507f00000000000000000000000000000000000000000000000000000000000000006001600160a01b0316826001600160a01b031614155b8015611e4057507f00000000000000000000000000000000000000000000000000000000000000006001600160a01b0316826001600160a01b031614155b15611eee57326000908152601260205260409020544311611edb5760405162461bcd60e51b815260206004820152604960248201527f5f7472616e736665723a3a205472616e736665722044656c617920656e61626c60448201527f65642e20204f6e6c79206f6e652070757263686173652070657220626c6f636b6064820152681030b63637bbb2b21760b91b608482015260a401610c04565b3260009081526012602052604090204390555b6001600160a01b03831660009081526021602052604090205460ff168015611f2e57506001600160a01b038216600090815260208052604090205460ff16155b1561201257600854811115611fa35760405162461bcd60e51b815260206004820152603560248201527f427579207472616e7366657220616d6f756e742065786365656473207468652060448201527436b0bc2a3930b739b0b1ba34b7b720b6b7bab73a1760591b6064820152608401610c04565b600a546001600160a01b038316600090815260208190526040902054611fc99083612e0f565b111561200d5760405162461bcd60e51b815260206004820152601360248201527213585e081dd85b1b195d08195e18d959591959606a1b6044820152606401610c04565b612151565b6001600160a01b03821660009081526021602052604090205460ff16801561205257506001600160a01b038316600090815260208052604090205460ff16155b156120c85760085481111561200d5760405162461bcd60e51b815260206004820152603660248201527f53656c6c207472616e7366657220616d6f756e742065786365656473207468656044820152751036b0bc2a3930b739b0b1ba34b7b720b6b7bab73a1760511b6064820152608401610c04565b6001600160a01b038216600090815260208052604090205460ff1661215157600a546001600160a01b03831660009081526020819052604090205461210d9083612e0f565b11156121515760405162461bcd60e51b815260206004820152601360248201527213585e081dd85b1b195d08195e18d959591959606a1b6044820152606401610c04565b306000908152602081905260409020546009548110801590819061217d575060115462010000900460ff165b80156121935750600554600160a01b900460ff16155b80156121b857506001600160a01b03851660009081526021602052604090205460ff16155b80156121dd57506001600160a01b0385166000908152601f602052604090205460ff16155b801561220257506001600160a01b0384166000908152601f602052604090205460ff16155b15612230576005805460ff60a01b1916600160a01b17905561222261250f565b6005805460ff60a01b191690555b600554600160a01b900460ff1615801561226257506001600160a01b03841660009081526021602052604090205460ff165b80156122705750600c5460ff165b801561228b5750600d54600e546122879190612e0f565b4210155b80156122b057506001600160a01b0385166000908152601f602052604090205460ff16155b156122bf576122bd612749565b505b6005546001600160a01b0386166000908152601f602052604090205460ff600160a01b90920482161591168061230d57506001600160a01b0385166000908152601f602052604090205460ff165b15612316575060005b600081156124fb576001600160a01b03861660009081526021602052604090205460ff16801561234857506000601854115b156124005761236760646115b360185488611aee90919063ffffffff16565b9050601854601a548261237a9190612dd6565b6123849190612ded565b601d60008282546123959190612e0f565b9091555050601854601b546123aa9083612dd6565b6123b49190612ded565b601e60008282546123c59190612e0f565b90915550506018546019546123da9083612dd6565b6123e49190612ded565b601c60008282546123f59190612e0f565b909155506124dd9050565b6001600160a01b03871660009081526021602052604090205460ff16801561242a57506000601454115b156124dd5761244960646115b360145488611aee90919063ffffffff16565b90506014546016548261245c9190612dd6565b6124669190612ded565b601d60008282546124779190612e0f565b909155505060145460175461248c9083612dd6565b6124969190612ded565b601e60008282546124a79190612e0f565b90915550506014546015546124bc9083612dd6565b6124c69190612ded565b601c60008282546124d79190612e0f565b90915550505b80156124ee576124ee873083611b0d565b6124f88186612ea2565b94505b612506878787611b0d565b50505050505050565b3060009081526020819052604081205490506000601e54601c54601d546125369190612e0f565b6125409190612e0f565b9050600082158061254f575081155b1561255957505050565b600954612567906014612dd6565b83111561257f5760095461257c906014612dd6565b92505b6000600283601d54866125929190612dd6565b61259c9190612ded565b6125a69190612ded565b905060006125b485836128d9565b9050476125c0826128e5565b60006125cc47836128d9565b905060006125e9876115b3601c5485611aee90919063ffffffff16565b90506000612606886115b3601e5486611aee90919063ffffffff16565b90506000816126158486612ea2565b61261f9190612ea2565b6000601d819055601c819055601e8190556007546040519293506001600160a01b031691849181818185875af1925050503d806000811461267c576040519150601f19603f3d011682016040523d82523d6000602084013e612681565b606091505b509098505086158015906126955750600081115b156126e8576126a48782612aa5565b601d54604080518881526020810184905280820192909252517f17bbfb9a6069321b6ded73bd96327c9e6b7212a5cd51ff219cd61370acafb5619181900360600190a15b6006546040516001600160a01b03909116904790600081818185875af1925050503d8060008114612735576040519150601f19603f3d011682016040523d82523d6000602084013e61273a565b606091505b50505050505050505050505050565b42600e556040516370a0823160e01b81526001600160a01b037f0000000000000000000000000000000000000000000000000000000000000000166004820152600090819030906370a0823190602401602060405180830381865afa1580156127b6573d6000803e3d6000fd5b505050506040513d601f19601f820116820180604052508101906127da9190612e22565b905060006127f96127106115b3600b5485611aee90919063ffffffff16565b9050801561282e5761282e7f000000000000000000000000000000000000000000000000000000000000000061dead83611b0d565b60007f00000000000000000000000000000000000000000000000000000000000000009050806001600160a01b031663fff6cae96040518163ffffffff1660e01b8152600401600060405180830381600087803b15801561288e57600080fd5b505af11580156128a2573d6000803e3d6000fd5b50506040517f454c91ae84fcc766ddda0dcb289f26b3d0176efeacf4061fc219fa6ca8c3048d925060009150a16001935050505090565b6000611afa8284612ea2565b604080516002808252606082018352600092602083019080368337019050509050308160008151811061291a5761291a612f3d565b60200260200101906001600160a01b031690816001600160a01b0316815250507f00000000000000000000000000000000000000000000000000000000000000006001600160a01b031663ad5c46486040518163ffffffff1660e01b8152600401602060405180830381865afa158015612998573d6000803e3d6000fd5b505050506040513d601f19601f820116820180604052508101906129bc9190612f53565b816001815181106129cf576129cf612f3d565b60200260200101906001600160a01b031690816001600160a01b031681525050612a1a307f00000000000000000000000000000000000000000000000000000000000000008461169a565b60405163791ac94760e01b81526001600160a01b037f0000000000000000000000000000000000000000000000000000000000000000169063791ac94790612a6f908590600090869030904290600401612f70565b600060405180830381600087803b158015612a8957600080fd5b505af1158015612a9d573d6000803e3d6000fd5b505050505050565b612ad0307f00000000000000000000000000000000000000000000000000000000000000008461169a565b60405163f305d71960e01b815230600482015260248101839052600060448201819052606482015261dead60848201524260a48201527f00000000000000000000000000000000000000000000000000000000000000006001600160a01b03169063f305d71990839060c40160606040518083038185885af1158015612b5a573d6000803e3d6000fd5b50505050506040513d601f19601f82011682018060405250810190612b7f9190612fe1565b5050505050565b600060208083528351808285015260005b81811015612bb357858101830151858201604001528201612b97565b506000604082860101526040601f19601f8301168501019250505092915050565b6001600160a01b038116811461144057600080fd5b60008060408385031215612bfc57600080fd5b8235612c0781612bd4565b946020939093013593505050565b600060208284031215612c2757600080fd5b8135611afa81612bd4565b600060208284031215612c4457600080fd5b5035919050565b600080600060608486031215612c6057600080fd5b8335612c6b81612bd4565b92506020840135612c7b81612bd4565b929592945050506040919091013590565b8035801515811461138057600080fd5b600080600060608486031215612cb157600080fd5b8335925060208401359150612cc860408501612c8c565b90509250925092565b60008060408385031215612ce457600080fd5b8235612cef81612bd4565b9150612cfd60208401612c8c565b90509250929050565b600080600060608486031215612d1b57600080fd5b505081359360208301359350604090920135919050565b600060208284031215612d4457600080fd5b611afa82612c8c565b60008060408385031215612d6057600080fd5b8235612d6b81612bd4565b91506020830135612d7b81612bd4565b809150509250929050565b600181811c90821680612d9a57607f821691505b602082108103612dba57634e487b7160e01b600052602260045260246000fd5b50919050565b634e487b7160e01b600052601160045260246000fd5b8082028115828204841417610b5f57610b5f612dc0565b600082612e0a57634e487b7160e01b600052601260045260246000fd5b500490565b80820180821115610b5f57610b5f612dc0565b600060208284031215612e3457600080fd5b5051919050565b80516001600160701b038116811461138057600080fd5b600080600060608486031215612e6757600080fd5b612e7084612e3b565b9250612e7e60208501612e3b565b9150604084015163ffffffff81168114612e9757600080fd5b809150509250925092565b81810381811115610b5f57610b5f612dc0565b60208082526025908201527f45524332303a207472616e736665722066726f6d20746865207a65726f206164604082015264647265737360d81b606082015260800190565b60208082526023908201527f45524332303a207472616e7366657220746f20746865207a65726f206164647260408201526265737360e81b606082015260800190565b634e487b7160e01b600052603260045260246000fd5b600060208284031215612f6557600080fd5b8151611afa81612bd4565b600060a082018783526020878185015260a0604085015281875180845260c086019150828901935060005b81811015612fc05784516001600160a01b031683529383019391830191600101612f9b565b50506001600160a01b03969096166060850152505050608001529392505050565b600080600060608486031215612ff657600080fd5b835192506020840151915060408401519050925092509256fea26469706673582212203adbd849877f631cbd934203b3d650ce9c1c26145030deebe8b6739d2cf85f0264736f6c63430008120033",
  "linkReferences": {},
  "deployedLinkReferences": {}
}