{
  "_format": "hh-sol-artifact-1",
  "contractName": "Arbet",
  "sourceName": "contracts/Arbet.sol",
  "abi": [
    {
      "inputs": [
        {
          "internalType": "address",
          "name": "_router",
          "type": "address"
        },
        {
          "internalType": "string",
          "name": "name",
          "type": "string"
        },
        {
          "internalType": "string",
          "name": "symbol",
          "type": "string"
        }
      ],
      "stateMutability": "nonpayable",
      "type": "constructor"
    },
    {
      "inputs": [
        {
          "internalType": "uint256",
          "name": "sell",
          "type": "uint256"
        },
        {
          "internalType": "uint256",
          "name": "buy",
          "type": "uint256"
        }
      ],
      "name": "SetFeeError",
      "type": "error"
    },
    {
      "anonymous": false,
      "inputs": [
        {
          "indexed": true,
          "internalType": "address",
          "name": "owner",
          "type": "address"
        },
        {
          "indexed": true,
          "internalType": "address",
          "name": "spender",
          "type": "address"
        },
        {
          "indexed": false,
          "internalType": "uint256",
          "name": "value",
          "type": "uint256"
        }
      ],
      "name": "Approval",
      "type": "event"
    },
    {
      "anonymous": false,
      "inputs": [
        {
          "indexed": false,
          "internalType": "uint256",
          "name": "newDevFee",
          "type": "uint256"
        }
      ],
      "name": "DevFeeUpdated",
      "type": "event"
    },
    {
      "anonymous": false,
      "inputs": [
        {
          "indexed": true,
          "internalType": "address",
          "name": "newWallet",
          "type": "address"
        }
      ],
      "name": "DevWalletUpdated",
      "type": "event"
    },
    {
      "anonymous": false,
      "inputs": [
        {
          "indexed": false,
          "internalType": "address",
          "name": "user",
          "type": "address"
        },
        {
          "indexed": false,
          "internalType": "bool",
          "name": "set",
          "type": "bool"
        }
      ],
      "name": "FeeExcluded",
      "type": "event"
    },
    {
      "anonymous": false,
      "inputs": [
        {
          "indexed": false,
          "internalType": "uint256",
          "name": "newSellFee",
          "type": "uint256"
        },
        {
          "indexed": false,
          "internalType": "uint256",
          "name": "newBuyFee",
          "type": "uint256"
        }
      ],
      "name": "FeeUpdated",
      "type": "event"
    },
    {
      "anonymous": false,
      "inputs": [
        {
          "indexed": true,
          "internalType": "address",
          "name": "previousOwner",
          "type": "address"
        },
        {
          "indexed": true,
          "internalType": "address",
          "name": "newOwner",
          "type": "address"
        }
      ],
      "name": "OwnershipTransferred",
      "type": "event"
    },
    {
      "anonymous": false,
      "inputs": [
        {
          "indexed": true,
          "internalType": "address",
          "name": "pair",
          "type": "address"
        },
        {
          "indexed": true,
          "internalType": "bool",
          "name": "value",
          "type": "bool"
        }
      ],
      "name": "SetAutomatedMarketMakerPair",
      "type": "event"
    },
    {
      "anonymous": false,
      "inputs": [
        {
          "indexed": true,
          "internalType": "address",
          "name": "from",
          "type": "address"
        },
        {
          "indexed": true,
          "internalType": "address",
          "name": "to",
          "type": "address"
        },
        {
          "indexed": false,
          "internalType": "uint256",
          "name": "value",
          "type": "uint256"
        }
      ],
      "name": "Transfer",
      "type": "event"
    },
    {
      "anonymous": false,
      "inputs": [
        {
          "indexed": true,
          "internalType": "address",
          "name": "newWallet",
          "type": "address"
        }
      ],
      "name": "TreasuryWalletUpdated",
      "type": "event"
    },
    {
      "inputs": [
        {
          "internalType": "address",
          "name": "owner",
          "type": "address"
        },
        {
          "internalType": "address",
          "name": "spender",
          "type": "address"
        }
      ],
      "name": "allowance",
      "outputs": [
        {
          "internalType": "uint256",
          "name": "",
          "type": "uint256"
        }
      ],
      "stateMutability": "view",
      "type": "function"
    },
    {
      "inputs": [
        {
          "internalType": "address",
          "name": "spender",
          "type": "address"
        },
        {
          "internalType": "uint256",
          "name": "amount",
          "type": "uint256"
        }
      ],
      "name": "approve",
      "outputs": [
        {
          "internalType": "bool",
          "name": "",
          "type": "bool"
        }
      ],
      "stateMutability": "nonpayable",
      "type": "function"
    },
    {
      "inputs": [
        {
          "internalType": "address",
          "name": "",
          "type": "address"
        }
      ],
      "name": "automatedMarketMakerPairs",
      "outputs": [
        {
          "internalType": "bool",
          "name": "",
          "type": "bool"
        }
      ],
      "stateMutability": "view",
      "type": "function"
    },
    {
      "inputs": [
        {
          "internalType": "address",
          "name": "account",
          "type": "address"
        }
      ],
      "name": "balanceOf",
      "outputs": [
        {
          "internalType": "uint256",
          "name": "",
          "type": "uint256"
        }
      ],
      "stateMutability": "view",
      "type": "function"
    },
    {
      "inputs": [],
      "name": "buyFee",
      "outputs": [
        {
          "internalType": "uint256",
          "name": "",
          "type": "uint256"
        }
      ],
      "stateMutability": "view",
      "type": "function"
    },
    {
      "inputs": [],
      "name": "decimals",
      "outputs": [
        {
          "internalType": "uint8",
          "name": "",
          "type": "uint8"
        }
      ],
      "stateMutability": "view",
      "type": "function"
    },
    {
      "inputs": [
        {
          "internalType": "address",
          "name": "spender",
          "type": "address"
        },
        {
          "internalType": "uint256",
          "name": "subtractedValue",
          "type": "uint256"
        }
      ],
      "name": "decreaseAllowance",
      "outputs": [
        {
          "internalType": "bool",
          "name": "",
          "type": "bool"
        }
      ],
      "stateMutability": "nonpayable",
      "type": "function"
    },
    {
      "inputs": [],
      "name": "devFee",
      "outputs": [
        {
          "internalType": "uint256",
          "name": "",
          "type": "uint256"
        }
      ],
      "stateMutability": "view",
      "type": "function"
    },
    {
      "inputs": [],
      "name": "devWallet",
      "outputs": [
        {
          "internalType": "address",
          "name": "",
          "type": "address"
        }
      ],
      "stateMutability": "view",
      "type": "function"
    },
    {
      "inputs": [
        {
          "internalType": "address",
          "name": "_account",
          "type": "address"
        },
        {
          "internalType": "bool",
          "name": "_excluded",
          "type": "bool"
        }
      ],
      "name": "excludeFromFees",
      "outputs": [],
      "stateMutability": "nonpayable",
      "type": "function"
    },
    {
      "inputs": [
        {
          "internalType": "address",
          "name": "spender",
          "type": "address"
        },
        {
          "internalType": "uint256",
          "name": "addedValue",
          "type": "uint256"
        }
      ],
      "name": "increaseAllowance",
      "outputs": [
        {
          "internalType": "bool",
          "name": "",
          "type": "bool"
        }
      ],
      "stateMutability": "nonpayable",
      "type": "function"
    },
    {
      "inputs": [
        {
          "internalType": "address",
          "name": "_account",
          "type": "address"
        }
      ],
      "name": "isExcludedFromFees",
      "outputs": [
        {
          "internalType": "bool",
          "name": "",
          "type": "bool"
        }
      ],
      "stateMutability": "view",
      "type": "function"
    },
    {
      "inputs": [],
      "name": "name",
      "outputs": [
        {
          "internalType": "string",
          "name": "",
          "type": "string"
        }
      ],
      "stateMutability": "view",
      "type": "function"
    },
    {
      "inputs": [],
      "name": "owner",
      "outputs": [
        {
          "internalType": "address",
          "name": "",
          "type": "address"
        }
      ],
      "stateMutability": "view",
      "type": "function"
    },
    {
      "inputs": [],
      "name": "renounceOwnership",
      "outputs": [],
      "stateMutability": "nonpayable",
      "type": "function"
    },
    {
      "inputs": [],
      "name": "sellFee",
      "outputs": [
        {
          "internalType": "uint256",
          "name": "",
          "type": "uint256"
        }
      ],
      "stateMutability": "view",
      "type": "function"
    },
    {
      "inputs": [
        {
          "internalType": "address",
          "name": "pair",
          "type": "address"
        },
        {
          "internalType": "bool",
          "name": "value",
          "type": "bool"
        }
      ],
      "name": "setAutomatedMarketMakerPair",
      "outputs": [],
      "stateMutability": "nonpayable",
      "type": "function"
    },
    {
      "inputs": [
        {
          "internalType": "uint256",
          "name": "newDevFee",
          "type": "uint256"
        }
      ],
      "name": "setDevFee",
      "outputs": [],
      "stateMutability": "nonpayable",
      "type": "function"
    },
    {
      "inputs": [
        {
          "internalType": "uint256",
          "name": "newSellFee",
          "type": "uint256"
        },
        {
          "internalType": "uint256",
          "name": "newBuyFee",
          "type": "uint256"
        }
      ],
      "name": "setFee",
      "outputs": [],
      "stateMutability": "nonpayable",
      "type": "function"
    },
    {
      "inputs": [],
      "name": "symbol",
      "outputs": [
        {
          "internalType": "string",
          "name": "",
          "type": "string"
        }
      ],
      "stateMutability": "view",
      "type": "function"
    },
    {
      "inputs": [],
      "name": "totalSupply",
      "outputs": [
        {
          "internalType": "uint256",
          "name": "",
          "type": "uint256"
        }
      ],
      "stateMutability": "view",
      "type": "function"
    },
    {
      "inputs": [
        {
          "internalType": "address",
          "name": "to",
          "type": "address"
        },
        {
          "internalType": "uint256",
          "name": "amount",
          "type": "uint256"
        }
      ],
      "name": "transfer",
      "outputs": [
        {
          "internalType": "bool",
          "name": "",
          "type": "bool"
        }
      ],
      "stateMutability": "nonpayable",
      "type": "function"
    },
    {
      "inputs": [
        {
          "internalType": "address",
          "name": "from",
          "type": "address"
        },
        {
          "internalType": "address",
          "name": "to",
          "type": "address"
        },
        {
          "internalType": "uint256",
          "name": "amount",
          "type": "uint256"
        }
      ],
      "name": "transferFrom",
      "outputs": [
        {
          "internalType": "bool",
          "name": "",
          "type": "bool"
        }
      ],
      "stateMutability": "nonpayable",
      "type": "function"
    },
    {
      "inputs": [
        {
          "internalType": "address",
          "name": "newOwner",
          "type": "address"
        }
      ],
      "name": "transferOwnership",
      "outputs": [],
      "stateMutability": "nonpayable",
      "type": "function"
    },
    {
      "inputs": [],
      "name": "treasuryWallet",
      "outputs": [
        {
          "internalType": "address",
          "name": "",
          "type": "address"
        }
      ],
      "stateMutability": "view",
      "type": "function"
    },
    {
      "inputs": [],
      "name": "uniswapV2Pair",
      "outputs": [
        {
          "internalType": "address",
          "name": "",
          "type": "address"
        }
      ],
      "stateMutability": "view",
      "type": "function"
    },
    {
      "inputs": [],
      "name": "uniswapV2Router",
      "outputs": [
        {
          "internalType": "contract IUniswapV2Router02",
          "name": "",
          "type": "address"
        }
      ],
      "stateMutability": "view",
      "type": "function"
    },
    {
      "inputs": [
        {
          "internalType": "address",
          "name": "newDevWallet",
          "type": "address"
        }
      ],
      "name": "updateDevWallet",
      "outputs": [],
      "stateMutability": "nonpayable",
      "type": "function"
    },
    {
      "inputs": [
        {
          "internalType": "address",
          "name": "newTreasuryWallet",
          "type": "address"
        }
      ],
      "name": "updateTreasuryWallet",
      "outputs": [],
      "stateMutability": "nonpayable",
      "type": "function"
    }
  ],
  "bytecode": "0x60c060405260006008556101906009556109c4600a553480156200002257600080fd5b5060405162001aab38038062001aab8339810160408190526200004591620005be565b81816003620000558382620006c9565b506004620000648282620006c9565b505050620000816200007b6200029b60201b60201c565b6200029f565b6001600160a01b03831660808190526040805163c45a015560e01b8152905185929163c45a01559160048083019260209291908290030181865afa158015620000ce573d6000803e3d6000fd5b505050506040513d601f19601f82011682018060405250810190620000f4919062000795565b6001600160a01b031663c9c6539630836001600160a01b031663ad5c46486040518163ffffffff1660e01b8152600401602060405180830381865afa15801562000142573d6000803e3d6000fd5b505050506040513d601f19601f8201168201806040525081019062000168919062000795565b6040516001600160e01b031960e085901b1681526001600160a01b039283166004820152911660248201526044016020604051808303816000875af1158015620001b6573d6000803e3d6000fd5b505050506040513d601f19601f82011682018060405250810190620001dc919062000795565b6001600160a01b031660a0819052620001f7906001620002f1565b600680546001600160a01b031990811673a6289561a9efcd87b7ef88fc49b48ad478ae4ad717909155600780549091167392208bff3a44d2b0978c963bba07879467000ae21790556200025e620002566005546001600160a01b031690565b600162000345565b6200026b30600162000345565b6200027a61dead600162000345565b62000291336a52b7d2dcc80cd2e4000000620003b2565b50505050620007e2565b3390565b600580546001600160a01b038381166001600160a01b0319831681179093556040519116919082907f8be0079c531659141344cd1fd0a4f28419497f9722a3daafe3b4186f6b6457e090600090a35050565b6001600160a01b0382166000818152600c6020526040808220805460ff191685151590811790915590519092917fffa9187bf1f18bf477bd0ea1bcbb64e93b6a98132473929edfce215cd9b16fab91a35050565b6200034f62000479565b6001600160a01b0382166000818152600b6020908152604091829020805460ff19168515159081179091558251938452908301527f37e25ecab1e1c056f6f2b60cdfff33e280e2205b5febdf36421391b32cf95fc0910160405180910390a15050565b6001600160a01b0382166200040e5760405162461bcd60e51b815260206004820152601f60248201527f45524332303a206d696e7420746f20746865207a65726f20616464726573730060448201526064015b60405180910390fd5b8060026000828254620004229190620007ba565b90915550506001600160a01b038216600081815260208181526040808320805486019055518481527fddf252ad1be2c89b69c2b068fc378daa952ba7f163c4a11628f55a4df523b3ef910160405180910390a35050565b6005546001600160a01b03163314620004d55760405162461bcd60e51b815260206004820181905260248201527f4f776e61626c653a2063616c6c6572206973206e6f7420746865206f776e6572604482015260640162000405565b565b505050565b80516001600160a01b0381168114620004f457600080fd5b919050565b634e487b7160e01b600052604160045260246000fd5b600082601f8301126200052157600080fd5b81516001600160401b03808211156200053e576200053e620004f9565b604051601f8301601f19908116603f01168101908282118183101715620005695762000569620004f9565b816040528381526020925086838588010111156200058657600080fd5b600091505b83821015620005aa57858201830151818301840152908201906200058b565b600093810190920192909252949350505050565b600080600060608486031215620005d457600080fd5b620005df84620004dc565b60208501519093506001600160401b0380821115620005fd57600080fd5b6200060b878388016200050f565b935060408601519150808211156200062257600080fd5b5062000631868287016200050f565b9150509250925092565b600181811c908216806200065057607f821691505b6020821081036200067157634e487b7160e01b600052602260045260246000fd5b50919050565b601f821115620004d757600081815260208120601f850160051c81016020861015620006a05750805b601f850160051c820191505b81811015620006c157828155600101620006ac565b505050505050565b81516001600160401b03811115620006e557620006e5620004f9565b620006fd81620006f684546200063b565b8462000677565b602080601f8311600181146200073557600084156200071c5750858301515b600019600386901b1c1916600185901b178555620006c1565b600085815260208120601f198616915b82811015620007665788860151825594840194600190910190840162000745565b5085821015620007855787850151600019600388901b60f8161c191681555b5050505050600190811b01905550565b600060208284031215620007a857600080fd5b620007b382620004dc565b9392505050565b80820180821115620007dc57634e487b7160e01b600052601160045260246000fd5b92915050565b60805160a05161129c6200080f600039600081816102ed015261076e0152600061021a015261129c6000f3fe608060405234801561001057600080fd5b50600436106101cf5760003560e01c806352f7c9881161010457806395d89b41116100a2578063b62496f511610071578063b62496f514610400578063c024666814610423578063dd62ed3e14610436578063f2fde38b1461044957600080fd5b806395d89b41146103bf5780639a7a23d6146103c7578063a457c2d7146103da578063a9059cbb146103ed57600080fd5b8063715018a6116100de578063715018a614610380578063809d458d146103885780638da5cb5b1461039b5780638ea5220f146103ac57600080fd5b806352f7c9881461033b5780636827e7641461034e57806370a082311461035757600080fd5b80632b14ca56116101715780634626402b1161014b5780634626402b146102cc57806347062402146102df57806349bd5a5e146102e85780634fbee1931461030f57600080fd5b80632b14ca56146102a1578063313ce567146102aa57806339509351146102b957600080fd5b806318160ddd116101ad57806318160ddd146102545780631816467f146102665780631c75b6b21461027b57806323b872dd1461028e57600080fd5b806306fdde03146101d4578063095ea7b3146101f25780631694505e14610215575b600080fd5b6101dc61045c565b6040516101e99190610f9a565b60405180910390f35b610205610200366004611004565b6104ee565b60405190151581526020016101e9565b61023c7f000000000000000000000000000000000000000000000000000000000000000081565b6040516001600160a01b0390911681526020016101e9565b6002545b6040519081526020016101e9565b61027961027436600461102e565b610508565b005b610279610289366004611049565b61055a565b61020561029c366004611062565b6105f4565b61025860095481565b604051601281526020016101e9565b6102056102c7366004611004565b610618565b60065461023c906001600160a01b031681565b61025860085481565b61023c7f000000000000000000000000000000000000000000000000000000000000000081565b61020561031d36600461102e565b6001600160a01b03166000908152600b602052604090205460ff1690565b61027961034936600461109e565b61063a565b610258600a5481565b61025861036536600461102e565b6001600160a01b031660009081526020819052604090205490565b6102796106ef565b61027961039636600461102e565b610703565b6005546001600160a01b031661023c565b60075461023c906001600160a01b031681565b6101dc610755565b6102796103d53660046110c0565b610764565b6102056103e8366004611004565b610821565b6102056103fb366004611004565b61089c565b61020561040e36600461102e565b600c6020526000908152604090205460ff1681565b6102796104313660046110c0565b6108aa565b6102586104443660046110fc565b61090e565b61027961045736600461102e565b610939565b60606003805461046b9061112f565b80601f01602080910402602001604051908101604052809291908181526020018280546104979061112f565b80156104e45780601f106104b9576101008083540402835291602001916104e4565b820191906000526020600020905b8154815290600101906020018083116104c757829003601f168201915b5050505050905090565b6000336104fc8185856109b2565b60019150505b92915050565b610510610ad6565b600780546001600160a01b0319166001600160a01b0383169081179091556040517f31bb1993faff4f8409d7baad771f861e093ef4ce2c92c6e0cb10b82d1c7324cb90600090a250565b610562610ad6565b6127108111156105b95760405162461bcd60e51b815260206004820152601c60248201527f44657620466565203c3d2031303025204f6620546f74616c204665650000000060448201526064015b60405180910390fd5b600a8190556040518181527fd2fcc8c801d1c6ec6267fa3420cc8428c11a8c06f0d110a700fe9ff1e73173609060200160405180910390a150565b600033610602858285610b30565b61060d858585610baa565b506001949350505050565b6000336104fc81858561062b838361090e565b610635919061117f565b6109b2565b610642610ad6565b60646106516127106032611192565b61065b91906111a9565b82118061067f575060646106726127106032611192565b61067c91906111a9565b81115b156106a75760405163dfa5470560e01b815260048101839052602481018290526044016105b0565b6009829055600881905560408051838152602081018390527f528d9479e9f9889a87a3c30c7f7ba537e5e59c4c85a37733b16e57c62df6130291015b60405180910390a15050565b6106f7610ad6565b6107016000610d93565b565b61070b610ad6565b600680546001600160a01b0319166001600160a01b0383169081179091556040517f97c79b3848e51f57983ac89e4403452655c8d83ceba8199011de63a74f60d1a790600090a250565b60606004805461046b9061112f565b61076c610ad6565b7f00000000000000000000000000000000000000000000000000000000000000006001600160a01b0316826001600160a01b0316036108135760405162461bcd60e51b815260206004820152603960248201527f54686520706169722063616e6e6f742062652072656d6f7665642066726f6d2060448201527f6175746f6d617465644d61726b65744d616b657250616972730000000000000060648201526084016105b0565b61081d8282610de5565b5050565b6000338161082f828661090e565b90508381101561088f5760405162461bcd60e51b815260206004820152602560248201527f45524332303a2064656372656173656420616c6c6f77616e63652062656c6f77604482015264207a65726f60d81b60648201526084016105b0565b61060d82868684036109b2565b6000336104fc818585610baa565b6108b2610ad6565b6001600160a01b0382166000818152600b6020908152604091829020805460ff19168515159081179091558251938452908301527f37e25ecab1e1c056f6f2b60cdfff33e280e2205b5febdf36421391b32cf95fc091016106e3565b6001600160a01b03918216600090815260016020908152604080832093909416825291909152205490565b610941610ad6565b6001600160a01b0381166109a65760405162461bcd60e51b815260206004820152602660248201527f4f776e61626c653a206e6577206f776e657220697320746865207a65726f206160448201526564647265737360d01b60648201526084016105b0565b6109af81610d93565b50565b6001600160a01b038316610a145760405162461bcd60e51b8152602060048201526024808201527f45524332303a20617070726f76652066726f6d20746865207a65726f206164646044820152637265737360e01b60648201526084016105b0565b6001600160a01b038216610a755760405162461bcd60e51b815260206004820152602260248201527f45524332303a20617070726f766520746f20746865207a65726f206164647265604482015261737360f01b60648201526084016105b0565b6001600160a01b0383811660008181526001602090815260408083209487168084529482529182902085905590518481527f8c5be1e5ebec7d5bd14f71427d1e84f3dd0314c0f7b2291e5b200ac8c7c3b925910160405180910390a3505050565b6005546001600160a01b031633146107015760405162461bcd60e51b815260206004820181905260248201527f4f776e61626c653a2063616c6c6572206973206e6f7420746865206f776e657260448201526064016105b0565b6000610b3c848461090e565b90506000198114610ba45781811015610b975760405162461bcd60e51b815260206004820152601d60248201527f45524332303a20696e73756666696369656e7420616c6c6f77616e636500000060448201526064016105b0565b610ba484848484036109b2565b50505050565b6001600160a01b038316610bd05760405162461bcd60e51b81526004016105b0906111cb565b6001600160a01b038216610bf65760405162461bcd60e51b81526004016105b090611210565b80600003610c0f57610c0a83836000610e39565b505050565b6001600160a01b0383166000908152600b602052604081205460ff1680610c4e57506001600160a01b0383166000908152600b602052604090205460ff165b15905060008115610d81576001600160a01b0384166000908152600c602052604090205460ff168015610c8357506000600954115b15610cba57610cb3610cac612710610ca660095487610f6390919063ffffffff16565b90610f76565b8290610f82565b9050610d0a565b6001600160a01b0385166000908152600c602052604090205460ff168015610ce457506000600854115b15610d0a57610d07610cac612710610ca660085487610f6390919063ffffffff16565b90505b8015610d7457600a5460009015610d5157610d36612710610ca6600a5485610f6390919063ffffffff16565b600754909150610d519087906001600160a01b031683610e39565b600654610d729087906001600160a01b0316610d6d8585610f8e565b610e39565b505b610d7e8382610f8e565b92505b610d8c858585610e39565b5050505050565b600580546001600160a01b038381166001600160a01b0319831681179093556040519116919082907f8be0079c531659141344cd1fd0a4f28419497f9722a3daafe3b4186f6b6457e090600090a35050565b6001600160a01b0382166000818152600c6020526040808220805460ff191685151590811790915590519092917fffa9187bf1f18bf477bd0ea1bcbb64e93b6a98132473929edfce215cd9b16fab91a35050565b6001600160a01b038316610e5f5760405162461bcd60e51b81526004016105b0906111cb565b6001600160a01b038216610e855760405162461bcd60e51b81526004016105b090611210565b6001600160a01b03831660009081526020819052604090205481811015610efd5760405162461bcd60e51b815260206004820152602660248201527f45524332303a207472616e7366657220616d6f756e7420657863656564732062604482015265616c616e636560d01b60648201526084016105b0565b6001600160a01b03848116600081815260208181526040808320878703905593871680835291849020805487019055925185815290927fddf252ad1be2c89b69c2b068fc378daa952ba7f163c4a11628f55a4df523b3ef910160405180910390a3610ba4565b6000610f6f8284611192565b9392505050565b6000610f6f82846111a9565b6000610f6f828461117f565b6000610f6f8284611253565b600060208083528351808285015260005b81811015610fc757858101830151858201604001528201610fab565b506000604082860101526040601f19601f8301168501019250505092915050565b80356001600160a01b0381168114610fff57600080fd5b919050565b6000806040838503121561101757600080fd5b61102083610fe8565b946020939093013593505050565b60006020828403121561104057600080fd5b610f6f82610fe8565b60006020828403121561105b57600080fd5b5035919050565b60008060006060848603121561107757600080fd5b61108084610fe8565b925061108e60208501610fe8565b9150604084013590509250925092565b600080604083850312156110b157600080fd5b50508035926020909101359150565b600080604083850312156110d357600080fd5b6110dc83610fe8565b9150602083013580151581146110f157600080fd5b809150509250929050565b6000806040838503121561110f57600080fd5b61111883610fe8565b915061112660208401610fe8565b90509250929050565b600181811c9082168061114357607f821691505b60208210810361116357634e487b7160e01b600052602260045260246000fd5b50919050565b634e487b7160e01b600052601160045260246000fd5b8082018082111561050257610502611169565b808202811582820484141761050257610502611169565b6000826111c657634e487b7160e01b600052601260045260246000fd5b500490565b60208082526025908201527f45524332303a207472616e736665722066726f6d20746865207a65726f206164604082015264647265737360d81b606082015260800190565b60208082526023908201527f45524332303a207472616e7366657220746f20746865207a65726f206164647260408201526265737360e81b606082015260800190565b818103818111156105025761050261116956fea2646970667358221220a62488a4dd195dbca3903e13add0fbd922d6d9a38ee0a7b3afb5b2d9a7752ae464736f6c63430008120033",
  "linkReferences": {},
  "deployedLinkReferences": {}
}