{
  "_format": "hh-sol-artifact-1",
  "contractName": "USDTVault",
  "sourceName": "contracts/USDTVault.sol",
  "abi": [
    {
      "inputs": [
        {
          "internalType": "address",
          "name": "_usdt",
          "type": "address"
        },
        {
          "internalType": "address",
          "name": "_sArbet",
          "type": "address"
        }
      ],
      "stateMutability": "nonpayable",
      "type": "constructor"
    },
    {
      "inputs": [
        {
          "internalType": "address",
          "name": "_staker",
          "type": "address"
        },
        {
          "internalType": "uint256",
          "name": "total",
          "type": "uint256"
        },
        {
          "internalType": "uint256",
          "name": "amount",
          "type": "uint256"
        }
      ],
      "name": "CannotWithdraw",
      "type": "error"
    },
    {
      "inputs": [
        {
          "internalType": "address",
          "name": "_account",
          "type": "address"
        }
      ],
      "name": "ClaimNull",
      "type": "error"
    },
    {
      "inputs": [
        {
          "internalType": "uint256",
          "name": "max",
          "type": "uint256"
        },
        {
          "internalType": "uint256",
          "name": "amount",
          "type": "uint256"
        }
      ],
      "name": "TooMuchWithdraw",
      "type": "error"
    },
    {
      "anonymous": false,
      "inputs": [
        {
          "indexed": true,
          "internalType": "address",
          "name": "owner",
          "type": "address"
        },
        {
          "indexed": true,
          "internalType": "address",
          "name": "spender",
          "type": "address"
        },
        {
          "indexed": false,
          "internalType": "uint256",
          "name": "value",
          "type": "uint256"
        }
      ],
      "name": "Approval",
      "type": "event"
    },
    {
      "anonymous": false,
      "inputs": [
        {
          "indexed": true,
          "internalType": "address",
          "name": "_account",
          "type": "address"
        },
        {
          "indexed": true,
          "internalType": "uint256",
          "name": "_amount",
          "type": "uint256"
        },
        {
          "indexed": true,
          "internalType": "uint256",
          "name": "_timestamp",
          "type": "uint256"
        }
      ],
      "name": "Claim",
      "type": "event"
    },
    {
      "anonymous": false,
      "inputs": [
        {
          "indexed": true,
          "internalType": "address",
          "name": "_account",
          "type": "address"
        },
        {
          "indexed": true,
          "internalType": "uint256",
          "name": "_amount",
          "type": "uint256"
        },
        {
          "indexed": true,
          "internalType": "uint256",
          "name": "_timestamp",
          "type": "uint256"
        }
      ],
      "name": "Deposit",
      "type": "event"
    },
    {
      "anonymous": false,
      "inputs": [
        {
          "indexed": true,
          "internalType": "address",
          "name": "previousOwner",
          "type": "address"
        },
        {
          "indexed": true,
          "internalType": "address",
          "name": "newOwner",
          "type": "address"
        }
      ],
      "name": "OwnershipTransferred",
      "type": "event"
    },
    {
      "anonymous": false,
      "inputs": [
        {
          "indexed": true,
          "internalType": "address",
          "name": "from",
          "type": "address"
        },
        {
          "indexed": true,
          "internalType": "address",
          "name": "to",
          "type": "address"
        },
        {
          "indexed": false,
          "internalType": "uint256",
          "name": "value",
          "type": "uint256"
        }
      ],
      "name": "Transfer",
      "type": "event"
    },
    {
      "anonymous": false,
      "inputs": [
        {
          "indexed": true,
          "internalType": "address",
          "name": "provider",
          "type": "address"
        },
        {
          "indexed": false,
          "internalType": "bool",
          "name": "set",
          "type": "bool"
        }
      ],
      "name": "UpdateProvider",
      "type": "event"
    },
    {
      "anonymous": false,
      "inputs": [
        {
          "indexed": true,
          "internalType": "address",
          "name": "_account",
          "type": "address"
        },
        {
          "indexed": true,
          "internalType": "uint256",
          "name": "_amount",
          "type": "uint256"
        },
        {
          "indexed": true,
          "internalType": "uint256",
          "name": "_timestamp",
          "type": "uint256"
        }
      ],
      "name": "Withdraw",
      "type": "event"
    },
    {
      "inputs": [
        {
          "internalType": "address",
          "name": "_game",
          "type": "address"
        }
      ],
      "name": "addToGameContractList",
      "outputs": [],
      "stateMutability": "nonpayable",
      "type": "function"
    },
    {
      "inputs": [
        {
          "internalType": "address",
          "name": "owner",
          "type": "address"
        },
        {
          "internalType": "address",
          "name": "spender",
          "type": "address"
        }
      ],
      "name": "allowance",
      "outputs": [
        {
          "internalType": "uint256",
          "name": "",
          "type": "uint256"
        }
      ],
      "stateMutability": "view",
      "type": "function"
    },
    {
      "inputs": [
        {
          "internalType": "address",
          "name": "spender",
          "type": "address"
        },
        {
          "internalType": "uint256",
          "name": "amount",
          "type": "uint256"
        }
      ],
      "name": "approve",
      "outputs": [
        {
          "internalType": "bool",
          "name": "",
          "type": "bool"
        }
      ],
      "stateMutability": "nonpayable",
      "type": "function"
    },
    {
      "inputs": [
        {
          "internalType": "address",
          "name": "account",
          "type": "address"
        }
      ],
      "name": "balanceOf",
      "outputs": [
        {
          "internalType": "uint256",
          "name": "",
          "type": "uint256"
        }
      ],
      "stateMutability": "view",
      "type": "function"
    },
    {
      "inputs": [],
      "name": "claimUSDT",
      "outputs": [],
      "stateMutability": "nonpayable",
      "type": "function"
    },
    {
      "inputs": [],
      "name": "decimals",
      "outputs": [
        {
          "internalType": "uint8",
          "name": "",
          "type": "uint8"
        }
      ],
      "stateMutability": "view",
      "type": "function"
    },
    {
      "inputs": [
        {
          "internalType": "address",
          "name": "spender",
          "type": "address"
        },
        {
          "internalType": "uint256",
          "name": "subtractedValue",
          "type": "uint256"
        }
      ],
      "name": "decreaseAllowance",
      "outputs": [
        {
          "internalType": "bool",
          "name": "",
          "type": "bool"
        }
      ],
      "stateMutability": "nonpayable",
      "type": "function"
    },
    {
      "inputs": [],
      "name": "depositFee",
      "outputs": [
        {
          "internalType": "uint256",
          "name": "",
          "type": "uint256"
        }
      ],
      "stateMutability": "view",
      "type": "function"
    },
    {
      "inputs": [
        {
          "internalType": "uint256",
          "name": "_amount",
          "type": "uint256"
        }
      ],
      "name": "depositUSDT",
      "outputs": [],
      "stateMutability": "nonpayable",
      "type": "function"
    },
    {
      "inputs": [],
      "name": "feeToSArbet",
      "outputs": [
        {
          "internalType": "uint256",
          "name": "",
          "type": "uint256"
        }
      ],
      "stateMutability": "view",
      "type": "function"
    },
    {
      "inputs": [],
      "name": "feeToVault",
      "outputs": [
        {
          "internalType": "uint256",
          "name": "",
          "type": "uint256"
        }
      ],
      "stateMutability": "view",
      "type": "function"
    },
    {
      "inputs": [
        {
          "internalType": "address",
          "name": "_player",
          "type": "address"
        },
        {
          "internalType": "uint256",
          "name": "_prize",
          "type": "uint256"
        },
        {
          "internalType": "uint256",
          "name": "_fee",
          "type": "uint256"
        }
      ],
      "name": "finalizeGame",
      "outputs": [],
      "stateMutability": "nonpayable",
      "type": "function"
    },
    {
      "inputs": [
        {
          "internalType": "address",
          "name": "_account",
          "type": "address"
        }
      ],
      "name": "getDepositedAmount",
      "outputs": [
        {
          "internalType": "uint256",
          "name": "",
          "type": "uint256"
        }
      ],
      "stateMutability": "view",
      "type": "function"
    },
    {
      "inputs": [
        {
          "internalType": "address",
          "name": "_account",
          "type": "address"
        }
      ],
      "name": "getEarningsClaimedByAccount",
      "outputs": [
        {
          "internalType": "uint256",
          "name": "",
          "type": "uint256"
        }
      ],
      "stateMutability": "view",
      "type": "function"
    },
    {
      "inputs": [
        {
          "internalType": "address",
          "name": "_account",
          "type": "address"
        }
      ],
      "name": "getPendingReward",
      "outputs": [
        {
          "internalType": "uint256",
          "name": "",
          "type": "uint256"
        }
      ],
      "stateMutability": "view",
      "type": "function"
    },
    {
      "inputs": [
        {
          "internalType": "address",
          "name": "_user",
          "type": "address"
        }
      ],
      "name": "getWithdrawInfo",
      "outputs": [
        {
          "components": [
            {
              "internalType": "uint256",
              "name": "nextWithdrawTime",
              "type": "uint256"
            },
            {
              "internalType": "uint256",
              "name": "steps",
              "type": "uint256"
            }
          ],
          "internalType": "struct USDTVault.WithdrawContext",
          "name": "",
          "type": "tuple"
        }
      ],
      "stateMutability": "view",
      "type": "function"
    },
    {
      "inputs": [
        {
          "internalType": "address",
          "name": "spender",
          "type": "address"
        },
        {
          "internalType": "uint256",
          "name": "addedValue",
          "type": "uint256"
        }
      ],
      "name": "increaseAllowance",
      "outputs": [
        {
          "internalType": "bool",
          "name": "",
          "type": "bool"
        }
      ],
      "stateMutability": "nonpayable",
      "type": "function"
    },
    {
      "inputs": [],
      "name": "name",
      "outputs": [
        {
          "internalType": "string",
          "name": "",
          "type": "string"
        }
      ],
      "stateMutability": "view",
      "type": "function"
    },
    {
      "inputs": [],
      "name": "owner",
      "outputs": [
        {
          "internalType": "address",
          "name": "",
          "type": "address"
        }
      ],
      "stateMutability": "view",
      "type": "function"
    },
    {
      "inputs": [
        {
          "internalType": "address",
          "name": "_game",
          "type": "address"
        }
      ],
      "name": "removeFromGameContractList",
      "outputs": [],
      "stateMutability": "nonpayable",
      "type": "function"
    },
    {
      "inputs": [],
      "name": "renounceOwnership",
      "outputs": [],
      "stateMutability": "nonpayable",
      "type": "function"
    },
    {
      "inputs": [],
      "name": "sArbetToken",
      "outputs": [
        {
          "internalType": "contract IsArbet",
          "name": "",
          "type": "address"
        }
      ],
      "stateMutability": "view",
      "type": "function"
    },
    {
      "inputs": [
        {
          "internalType": "uint256",
          "name": "_fee",
          "type": "uint256"
        }
      ],
      "name": "setDepositFee",
      "outputs": [],
      "stateMutability": "nonpayable",
      "type": "function"
    },
    {
      "inputs": [
        {
          "internalType": "uint256",
          "name": "vault",
          "type": "uint256"
        },
        {
          "internalType": "uint256",
          "name": "arbet",
          "type": "uint256"
        }
      ],
      "name": "setDistributeFee",
      "outputs": [],
      "stateMutability": "nonpayable",
      "type": "function"
    },
    {
      "inputs": [
        {
          "internalType": "address",
          "name": "newTreasury",
          "type": "address"
        }
      ],
      "name": "setTreasuryWallet",
      "outputs": [],
      "stateMutability": "nonpayable",
      "type": "function"
    },
    {
      "inputs": [
        {
          "internalType": "address",
          "name": "_newUSDT",
          "type": "address"
        }
      ],
      "name": "setUSDTToken",
      "outputs": [],
      "stateMutability": "nonpayable",
      "type": "function"
    },
    {
      "inputs": [
        {
          "internalType": "uint256",
          "name": "newDuration",
          "type": "uint256"
        }
      ],
      "name": "setWithdrawDuration",
      "outputs": [],
      "stateMutability": "nonpayable",
      "type": "function"
    },
    {
      "inputs": [
        {
          "internalType": "address",
          "name": "_sArbet",
          "type": "address"
        }
      ],
      "name": "setsArbetToken",
      "outputs": [],
      "stateMutability": "nonpayable",
      "type": "function"
    },
    {
      "inputs": [],
      "name": "symbol",
      "outputs": [
        {
          "internalType": "string",
          "name": "",
          "type": "string"
        }
      ],
      "stateMutability": "view",
      "type": "function"
    },
    {
      "inputs": [],
      "name": "totalSupply",
      "outputs": [
        {
          "internalType": "uint256",
          "name": "",
          "type": "uint256"
        }
      ],
      "stateMutability": "view",
      "type": "function"
    },
    {
      "inputs": [
        {
          "internalType": "address",
          "name": "to",
          "type": "address"
        },
        {
          "internalType": "uint256",
          "name": "amount",
          "type": "uint256"
        }
      ],
      "name": "transfer",
      "outputs": [
        {
          "internalType": "bool",
          "name": "",
          "type": "bool"
        }
      ],
      "stateMutability": "nonpayable",
      "type": "function"
    },
    {
      "inputs": [
        {
          "internalType": "address",
          "name": "from",
          "type": "address"
        },
        {
          "internalType": "address",
          "name": "to",
          "type": "address"
        },
        {
          "internalType": "uint256",
          "name": "amount",
          "type": "uint256"
        }
      ],
      "name": "transferFrom",
      "outputs": [
        {
          "internalType": "bool",
          "name": "",
          "type": "bool"
        }
      ],
      "stateMutability": "nonpayable",
      "type": "function"
    },
    {
      "inputs": [
        {
          "internalType": "address",
          "name": "newOwner",
          "type": "address"
        }
      ],
      "name": "transferOwnership",
      "outputs": [],
      "stateMutability": "nonpayable",
      "type": "function"
    },
    {
      "inputs": [],
      "name": "treasuryWallet",
      "outputs": [
        {
          "internalType": "address",
          "name": "",
          "type": "address"
        }
      ],
      "stateMutability": "view",
      "type": "function"
    },
    {
      "inputs": [
        {
          "internalType": "address",
          "name": "provider",
          "type": "address"
        },
        {
          "internalType": "bool",
          "name": "set",
          "type": "bool"
        }
      ],
      "name": "updateProvider",
      "outputs": [],
      "stateMutability": "nonpayable",
      "type": "function"
    },
    {
      "inputs": [],
      "name": "usdtToken",
      "outputs": [
        {
          "internalType": "contract IERC20",
          "name": "",
          "type": "address"
        }
      ],
      "stateMutability": "view",
      "type": "function"
    },
    {
      "inputs": [],
      "name": "withdrawDuration",
      "outputs": [
        {
          "internalType": "uint256",
          "name": "",
          "type": "uint256"
        }
      ],
      "stateMutability": "view",
      "type": "function"
    },
    {
      "inputs": [
        {
          "internalType": "uint256",
          "name": "_amount",
          "type": "uint256"
        }
      ],
      "name": "withdrawToTreasury",
      "outputs": [],
      "stateMutability": "nonpayable",
      "type": "function"
    },
    {
      "inputs": [],
      "name": "withdrawUSDT",
      "outputs": [],
      "stateMutability": "nonpayable",
      "type": "function"
    }
  ],
  "bytecode": "0x60806040526064600c5562015180600d553480156200001d57600080fd5b50604051620022bb380380620022bb833981016040819052620000409162000186565b6040805180820182526009808252681554d11515985d5b1d60ba1b6020808401829052845180860190955291845290830152908181600362000083838262000263565b50600462000092828262000263565b505050620000af620000a96200011360201b60201c565b62000117565b5050600a80546001600160a01b039384166001600160a01b031991821617909155600b80549290931691811691909117909155601080549091167392208bff3a44d2b0978c963bba07879467000ae2179055610bb86011556117706012556200032f565b3390565b600580546001600160a01b038381166001600160a01b0319831681179093556040519116919082907f8be0079c531659141344cd1fd0a4f28419497f9722a3daafe3b4186f6b6457e090600090a35050565b80516001600160a01b03811681146200018157600080fd5b919050565b600080604083850312156200019a57600080fd5b620001a58362000169565b9150620001b56020840162000169565b90509250929050565b634e487b7160e01b600052604160045260246000fd5b600181811c90821680620001e957607f821691505b6020821081036200020a57634e487b7160e01b600052602260045260246000fd5b50919050565b601f8211156200025e57600081815260208120601f850160051c81016020861015620002395750805b601f850160051c820191505b818110156200025a5782815560010162000245565b5050505b505050565b81516001600160401b038111156200027f576200027f620001be565b6200029781620002908454620001d4565b8462000210565b602080601f831160018114620002cf5760008415620002b65750858301515b600019600386901b1c1916600185901b1785556200025a565b600085815260208120601f198616915b828110156200030057888601518255948401946001909101908401620002df565b50858210156200031f5787850151600019600388901b60f8161c191681555b5050505050600190811b01905550565b611f7c806200033f6000396000f3fe608060405234801561001057600080fd5b506004361061023d5760003560e01c806370a082311161013b578063a98ad46c116100b8578063dd62ed3e1161007c578063dd62ed3e1461052f578063e7c80f1714610542578063e9081ec714610555578063f2fde38b14610568578063f4d4a77e1461057b57600080fd5b8063a98ad46c14610473578063abae70c514610486578063baade7bc14610499578063c349e274146104ac578063c5e48ca21461051c57600080fd5b806395d89b41116100ff57806395d89b41146104295780639e15c93f14610431578063a457c2d71461043a578063a8602fea1461044d578063a9059cbb1461046057600080fd5b806370a08231146103cc578063715018a6146103f55780637564ac38146103fd57806382d1a0c9146104055780638da5cb5b1461041857600080fd5b8063313ce567116101c9578063490ae2101161018d578063490ae210146103815780634df9d6ba14610394578063551b7702146103a757806366e226bd146103b057806367a52793146103c357600080fd5b8063313ce56714610319578063362e496b1461032857806339509351146103305780633a740751146103435780634626402b1461036e57600080fd5b80631e1d55dd116102105780631e1d55dd146102a257806320d054fc146102b757806323b872dd146102e057806329d0b28e146102f35780632bac57231461030657600080fd5b806306fdde0314610242578063095ea7b3146102605780630f4317cf1461028357806318160ddd1461029a575b600080fd5b61024a61058e565b6040516102579190611c90565b60405180910390f35b61027361026e366004611cfa565b610620565b6040519015158152602001610257565b61028c60125481565b604051908152602001610257565b60025461028c565b6102b56102b0366004611d24565b61063a565b005b61028c6102c5366004611d24565b6001600160a01b031660009081526008602052604090205490565b6102736102ee366004611d3f565b610666565b6102b5610301366004611d89565b61068a565b6102b5610314366004611dc0565b6106f1565b60405160128152602001610257565b6102b5610742565b61027361033e366004611cfa565b610992565b600b54610356906001600160a01b031681565b6040516001600160a01b039091168152602001610257565b601054610356906001600160a01b031681565b6102b561038f366004611dc0565b6109b4565b61028c6103a2366004611d24565b6109c1565b61028c600d5481565b6102b56103be366004611d24565b610a3a565b61028c600c5481565b61028c6103da366004611d24565b6001600160a01b031660009081526020819052604090205490565b6102b5610a64565b6102b5610a78565b6102b5610413366004611d24565b610aab565b6005546001600160a01b0316610356565b61024a610ad5565b61028c60115481565b610273610448366004611cfa565b610ae4565b6102b561045b366004611d24565b610b5f565b61027361046e366004611cfa565b610bd4565b600a54610356906001600160a01b031681565b6102b5610494366004611dc0565b610be2565b6102b56104a7366004611dd9565b610d0a565b6105016104ba366004611d24565b6040805180820190915260008082526020820152506001600160a01b03166000908152600f6020908152604091829020825180840190935280548352600101549082015290565b60408051825181526020928301519281019290925201610257565b6102b561052a366004611d24565b610deb565b61028c61053d366004611e0c565b610e14565b6102b5610550366004611dc0565b610e3f565b61028c610563366004611d24565b61109f565b6102b5610576366004611d24565b6110bd565b6102b5610589366004611e3f565b611133565b60606003805461059d90611e61565b80601f01602080910402602001604051908101604052809291908181526020018280546105c990611e61565b80156106165780601f106105eb57610100808354040283529160200191610616565b820191906000526020600020905b8154815290600101906020018083116105f957829003601f168201915b5050505050905090565b60003361062e81858561118d565b60019150505b92915050565b6106426112b1565b6001600160a01b03166000908152600e60205260409020805460ff19166001179055565b60003361067485828561130b565b61067f85858561137f565b506001949350505050565b6106926112b1565b6001600160a01b038216600081815260096020908152604091829020805460ff191685151590811790915591519182527f39277ba45b2b30ba85884b2cd925b0472b583693ef8e63c413061c1896648fb2910160405180910390a25050565b6106f96112b1565b80600d540361073d5760405162461bcd60e51b815260206004820152600b60248201526a105b1c9958591e4814d95d60aa1b60448201526064015b60405180910390fd5b600d55565b33600061074e8261109f565b90508060000361075c575050565b6001600160a01b0382166000908152600f6020526040902080544210156107b75760405162461bcd60e51b815260206004820152600f60248201526e4c6f636b656420576974686472617760881b6044820152606401610734565b60008160010154116107fd5760405162461bcd60e51b815260206004820152600f60248201526e233ab6363c902bb4ba34323930bbb760891b6044820152606401610734565b600d5461080a9042611eb1565b8155600181015461081c908390611523565b91506108366001826001015461153690919063ffffffff16565b60018201556000610846846109c1565b600a546040516370a0823160e01b81523060048201529192506000916001600160a01b03909116906370a0823190602401602060405180830381865afa158015610894573d6000803e3d6000fd5b505050506040513d601f19601f820116820180604052508101906108b89190611ec4565b90506108c48483611542565b8110156109095784816108d78685611542565b60405163de6c180d60e01b81526001600160a01b03909316600484015260248301919091526044820152606401610734565b600a5460405163a9059cbb60e01b81526001600160a01b038781166004830152602482018790529091169063a9059cbb906044016020604051808303816000875af115801561095c573d6000803e3d6000fd5b505050506040513d601f19601f820116820180604052508101906109809190611edd565b5061098b858561154e565b5050505050565b60003361062e8185856109a58383610e14565b6109af9190611eb1565b61118d565b6109bc6112b1565b600c55565b6001600160a01b03811660009081526008602090815260408083206006549284905290832054909183916ec097ce7bc90715b34b9f100000000091610a0591611efa565b610a0f9190611f11565b905081600101548111610a23576000610a32565b6001820154610a329082611f33565b949350505050565b610a426112b1565b600a80546001600160a01b0319166001600160a01b0392909216919091179055565b610a6c6112b1565b610a766000611627565b565b6000610a8333611679565b905080600003610aa857604051632509371560e11b8152336004820152602401610734565b50565b610ab36112b1565b600b80546001600160a01b0319166001600160a01b0392909216919091179055565b60606004805461059d90611e61565b60003381610af28286610e14565b905083811015610b525760405162461bcd60e51b815260206004820152602560248201527f45524332303a2064656372656173656420616c6c6f77616e63652062656c6f77604482015264207a65726f60d81b6064820152608401610734565b61067f828686840361118d565b610b676112b1565b6010546001600160a01b03808316911603610bb25760405162461bcd60e51b815260206004820152600b60248201526a105b1c9958591e4814d95d60aa1b6044820152606401610734565b601080546001600160a01b0319166001600160a01b0392909216919091179055565b60003361062e81858561137f565b610bea6112b1565b600a546040516370a0823160e01b81523060048201526000916001600160a01b0316906370a0823190602401602060405180830381865afa158015610c33573d6000803e3d6000fd5b505050506040513d601f19601f82011682018060405250810190610c579190611ec4565b90506000610c7c612710610c766132c8610c7060025490565b9061170b565b90611523565b9050610c888184611eb1565b8210610d0557600a5460405163a9059cbb60e01b8152336004820152602481018590526001600160a01b039091169063a9059cbb906044016020604051808303816000875af1158015610cdf573d6000803e3d6000fd5b505050506040513d601f19601f82011682018060405250810190610d039190611edd565b505b505050565b336000908152600e602052604090205460ff16610d5d5760405162461bcd60e51b8152602060048201526011602482015270139bdd0811d85b594810dbdb9d1c9858dd607a1b6044820152606401610734565b8115610ddc57600a5460405163a9059cbb60e01b81526001600160a01b038581166004830152602482018590529091169063a9059cbb906044016020604051808303816000875af1158015610db6573d6000803e3d6000fd5b505050506040513d601f19601f82011682018060405250810190610dda9190611edd565b505b8015610d0557610d0581611717565b610df36112b1565b6001600160a01b03166000908152600e60205260409020805460ff19169055565b6001600160a01b03918216600090815260016020908152604080832093909416825291909152205490565b3381610e825760405162461bcd60e51b8152602060048201526012602482015271139bdd1a1a5b99c81d1bc819195c1bdcda5d60721b6044820152606401610734565b600a546040516370a0823160e01b81523060048201526000916001600160a01b0316906370a0823190602401602060405180830381865afa158015610ecb573d6000803e3d6000fd5b505050506040513d601f19601f82011682018060405250810190610eef9190611ec4565b600a546040516323b872dd60e01b81526001600160a01b038581166004830152306024830152604482018790529293509116906323b872dd906064016020604051808303816000875af1158015610f4a573d6000803e3d6000fd5b505050506040513d601f19601f82011682018060405250810190610f6e9190611edd565b50600a546040516370a0823160e01b81523060048201526000916001600160a01b0316906370a0823190602401602060405180830381865afa158015610fb8573d6000803e3d6000fd5b505050506040513d601f19601f82011682018060405250810190610fdc9190611ec4565b905081811161101f5760405162461bcd60e51b815260206004820152600f60248201526e16995c9bc81d1bc819195c1bdcda5d608a1b6044820152606401610734565b6110298282611f33565b93506000611048612710610c76600c548861170b90919063ffffffff16565b90506110548582611536565b945061106084866118c7565b61106981611717565b6001600160a01b0384166000908152600f60205260409020600d5461108e9042611eb1565b815560046001909101555050505050565b6001600160a01b038116600090815260208190526040812054610634565b6110c56112b1565b6001600160a01b03811661112a5760405162461bcd60e51b815260206004820152602660248201527f4f776e61626c653a206e6577206f776e657220697320746865207a65726f206160448201526564647265737360d01b6064820152608401610734565b610aa881611627565b61113b6112b1565b6127106111488284611eb1565b11156111825760405162461bcd60e51b81526020600482015260096024820152684f766572203130302560b81b6044820152606401610734565b601191909155601255565b6001600160a01b0383166111ef5760405162461bcd60e51b8152602060048201526024808201527f45524332303a20617070726f76652066726f6d20746865207a65726f206164646044820152637265737360e01b6064820152608401610734565b6001600160a01b0382166112505760405162461bcd60e51b815260206004820152602260248201527f45524332303a20617070726f766520746f20746865207a65726f206164647265604482015261737360f01b6064820152608401610734565b6001600160a01b0383811660008181526001602090815260408083209487168084529482529182902085905590518481527f8c5be1e5ebec7d5bd14f71427d1e84f3dd0314c0f7b2291e5b200ac8c7c3b925910160405180910390a3505050565b6005546001600160a01b03163314610a765760405162461bcd60e51b815260206004820181905260248201527f4f776e61626c653a2063616c6c6572206973206e6f7420746865206f776e65726044820152606401610734565b60006113178484610e14565b90506000198114610d0357818110156113725760405162461bcd60e51b815260206004820152601d60248201527f45524332303a20696e73756666696369656e7420616c6c6f77616e63650000006044820152606401610734565b610d03848484840361118d565b6001600160a01b0383166113e35760405162461bcd60e51b815260206004820152602560248201527f45524332303a207472616e736665722066726f6d20746865207a65726f206164604482015264647265737360d81b6064820152608401610734565b6001600160a01b0382166114455760405162461bcd60e51b815260206004820152602360248201527f45524332303a207472616e7366657220746f20746865207a65726f206164647260448201526265737360e81b6064820152608401610734565b6001600160a01b038316600090815260208190526040902054818110156114bd5760405162461bcd60e51b815260206004820152602660248201527f45524332303a207472616e7366657220616d6f756e7420657863656564732062604482015265616c616e636560d01b6064820152608401610734565b6001600160a01b03848116600081815260208181526040808320878703905593871680835291849020805487019055925185815290927fddf252ad1be2c89b69c2b068fc378daa952ba7f163c4a11628f55a4df523b3ef910160405180910390a3610d03565b600061152f8284611f11565b9392505050565b600061152f8284611f33565b600061152f8284611eb1565b61155782611679565b506001600160a01b03821660009081526008602090815260408083209183905290912054808311156115a657604051632edd9e6760e11b81526004810182905260248101849052604401610734565b6115b08382611f33565b90506ec097ce7bc90715b34b9f1000000000600654826115d09190611efa565b6115da9190611f11565b60018301556115e98484611978565b4283856001600160a01b03167ff279e6a1f5e320cca91135676d9cb6e44ca8a08c0b88342bcdb1144f6511b56860405160405180910390a450505050565b600580546001600160a01b038381166001600160a01b0319831681179093556040519116919082907f8be0079c531659141344cd1fd0a4f28419497f9722a3daafe3b4186f6b6457e090600090a35050565b60008061168583611aaa565b9050801561063457600a5460405163a9059cbb60e01b81526001600160a01b038581166004830152602482018490529091169063a9059cbb906044016020604051808303816000875af11580156116e0573d6000803e3d6000fd5b505050506040513d601f19601f820116820180604052508101906117049190611edd565b5092915050565b600061152f8284611efa565b6000611734612710610c766011548561170b90919063ffffffff16565b90506000611753612710610c766012548661170b90919063ffffffff16565b9050600061176b826117658686611536565b90611536565b905061177683611b45565b600a54600b5460405163095ea7b360e01b81526001600160a01b0391821660048201526024810185905291169063095ea7b3906044016020604051808303816000875af11580156117cb573d6000803e3d6000fd5b505050506040513d601f19601f820116820180604052508101906117ef9190611edd565b50600b54604051631d3793b160e21b8152600481018490526001600160a01b03909116906374de4ec490602401600060405180830381600087803b15801561183657600080fd5b505af115801561184a573d6000803e3d6000fd5b5050600a5460105460405163a9059cbb60e01b81526001600160a01b039182166004820152602481018690529116925063a9059cbb91506044016020604051808303816000875af11580156118a3573d6000803e3d6000fd5b505050506040513d601f19601f8201168201806040525081019061098b9190611edd565b6118d082611679565b506001600160a01b038216600090815260086020908152604080832091839052822054909190611901908490611eb1565b90506ec097ce7bc90715b34b9f1000000000600654826119219190611efa565b61192b9190611f11565b600183015561193a8484611bd1565b4283856001600160a01b03167f90890809c654f11d6e72a28fa60149770a0d11ec6c92319d6ceb2bb0a4ea1a1560405160405180910390a450505050565b6001600160a01b0382166119d85760405162461bcd60e51b815260206004820152602160248201527f45524332303a206275726e2066726f6d20746865207a65726f206164647265736044820152607360f81b6064820152608401610734565b6001600160a01b03821660009081526020819052604090205481811015611a4c5760405162461bcd60e51b815260206004820152602260248201527f45524332303a206275726e20616d6f756e7420657863656564732062616c616e604482015261636560f01b6064820152608401610734565b6001600160a01b0383166000818152602081815260408083208686039055600280548790039055518581529192917fddf252ad1be2c89b69c2b068fc378daa952ba7f163c4a11628f55a4df523b3ef910160405180910390a3505050565b6001600160a01b038116600090815260086020526040812081611acc846109c1565b9050801561152f5780826001016000828254611ae89190611eb1565b9091555050815481908390600090611b01908490611eb1565b9091555050604051429082906001600160a01b038716907f34fcbac0073d7c3d388e51312faf357774904998eeb8fca628b9e6f65ee1cbf790600090a49392505050565b6000611b5060025490565b90508015611bb55760075415611b7557600754611b6d9083611eb1565b600060075591505b80611b8f836ec097ce7bc90715b34b9f1000000000611efa565b611b999190611f11565b60066000828254611baa9190611eb1565b90915550611bcd9050565b8160076000828254611bc79190611eb1565b90915550505b5050565b6001600160a01b038216611c275760405162461bcd60e51b815260206004820152601f60248201527f45524332303a206d696e7420746f20746865207a65726f2061646472657373006044820152606401610734565b8060026000828254611c399190611eb1565b90915550506001600160a01b038216600081815260208181526040808320805486019055518481527fddf252ad1be2c89b69c2b068fc378daa952ba7f163c4a11628f55a4df523b3ef910160405180910390a35050565b600060208083528351808285015260005b81811015611cbd57858101830151858201604001528201611ca1565b506000604082860101526040601f19601f8301168501019250505092915050565b80356001600160a01b0381168114611cf557600080fd5b919050565b60008060408385031215611d0d57600080fd5b611d1683611cde565b946020939093013593505050565b600060208284031215611d3657600080fd5b61152f82611cde565b600080600060608486031215611d5457600080fd5b611d5d84611cde565b9250611d6b60208501611cde565b9150604084013590509250925092565b8015158114610aa857600080fd5b60008060408385031215611d9c57600080fd5b611da583611cde565b91506020830135611db581611d7b565b809150509250929050565b600060208284031215611dd257600080fd5b5035919050565b600080600060608486031215611dee57600080fd5b611df784611cde565b95602085013595506040909401359392505050565b60008060408385031215611e1f57600080fd5b611e2883611cde565b9150611e3660208401611cde565b90509250929050565b60008060408385031215611e5257600080fd5b50508035926020909101359150565b600181811c90821680611e7557607f821691505b602082108103611e9557634e487b7160e01b600052602260045260246000fd5b50919050565b634e487b7160e01b600052601160045260246000fd5b8082018082111561063457610634611e9b565b600060208284031215611ed657600080fd5b5051919050565b600060208284031215611eef57600080fd5b815161152f81611d7b565b808202811582820484141761063457610634611e9b565b600082611f2e57634e487b7160e01b600052601260045260246000fd5b500490565b8181038181111561063457610634611e9b56fea2646970667358221220eaf4ae3d9e4784e5af4afdca583e7b4d5251fd5e1bb4e8c83e8acbce30023d4864736f6c63430008120033",
  "linkReferences": {},
  "deployedLinkReferences": {}
}