{
  "_format": "hh-sol-artifact-1",
  "contractName": "GameDice",
  "sourceName": "contracts/games/GameDice.sol",
  "abi": [
    {
      "inputs": [
        {
          "internalType": "address",
          "name": "_usdt",
          "type": "address"
        },
        {
          "internalType": "address",
          "name": "_vault",
          "type": "address"
        },
        {
          "internalType": "address",
          "name": "_console",
          "type": "address"
        },
        {
          "internalType": "address",
          "name": "_house",
          "type": "address"
        },
        {
          "internalType": "address",
          "name": "_rng",
          "type": "address"
        },
        {
          "internalType": "uint256",
          "name": "_id",
          "type": "uint256"
        },
        {
          "internalType": "uint256",
          "name": "_numbersPerRoll",
          "type": "uint256"
        }
      ],
      "stateMutability": "nonpayable",
      "type": "constructor"
    },
    {
      "inputs": [
        {
          "internalType": "uint256",
          "name": "bet",
          "type": "uint256"
        }
      ],
      "name": "InvalidBet",
      "type": "error"
    },
    {
      "inputs": [
        {
          "internalType": "uint256",
          "name": "_stake",
          "type": "uint256"
        },
        {
          "internalType": "uint256[50]",
          "name": "_data",
          "type": "uint256[50]"
        }
      ],
      "name": "InvalidData",
      "type": "error"
    },
    {
      "inputs": [
        {
          "internalType": "uint256",
          "name": "max",
          "type": "uint256"
        },
        {
          "internalType": "uint256",
          "name": "rolls",
          "type": "uint256"
        }
      ],
      "name": "InvalidRolls",
      "type": "error"
    },
    {
      "inputs": [
        {
          "internalType": "uint256",
          "name": "minRate",
          "type": "uint256"
        },
        {
          "internalType": "uint256",
          "name": "stake",
          "type": "uint256"
        }
      ],
      "name": "MinBet",
      "type": "error"
    },
    {
      "anonymous": false,
      "inputs": [
        {
          "indexed": true,
          "internalType": "uint256",
          "name": "betId",
          "type": "uint256"
        },
        {
          "indexed": false,
          "internalType": "uint256[]",
          "name": "_randomNumbers",
          "type": "uint256[]"
        },
        {
          "indexed": false,
          "internalType": "uint256[]",
          "name": "_rolls",
          "type": "uint256[]"
        },
        {
          "indexed": false,
          "internalType": "uint256",
          "name": "_bet",
          "type": "uint256"
        },
        {
          "indexed": false,
          "internalType": "uint256",
          "name": "_stake",
          "type": "uint256"
        },
        {
          "indexed": false,
          "internalType": "uint256",
          "name": "wins",
          "type": "uint256"
        },
        {
          "indexed": false,
          "internalType": "uint256",
          "name": "losses",
          "type": "uint256"
        },
        {
          "indexed": false,
          "internalType": "uint256",
          "name": "_payout",
          "type": "uint256"
        },
        {
          "indexed": true,
          "internalType": "address",
          "name": "_account",
          "type": "address"
        },
        {
          "indexed": true,
          "internalType": "uint256",
          "name": "_timestamp",
          "type": "uint256"
        }
      ],
      "name": "GameEnd",
      "type": "event"
    },
    {
      "anonymous": false,
      "inputs": [
        {
          "indexed": true,
          "internalType": "uint256",
          "name": "betId",
          "type": "uint256"
        },
        {
          "indexed": false,
          "internalType": "uint256",
          "name": "_bet",
          "type": "uint256"
        },
        {
          "indexed": false,
          "internalType": "uint256[50]",
          "name": "_data",
          "type": "uint256[50]"
        }
      ],
      "name": "GameStart",
      "type": "event"
    },
    {
      "anonymous": false,
      "inputs": [
        {
          "indexed": true,
          "internalType": "address",
          "name": "previousOwner",
          "type": "address"
        },
        {
          "indexed": true,
          "internalType": "address",
          "name": "newOwner",
          "type": "address"
        }
      ],
      "name": "OwnershipTransferred",
      "type": "event"
    },
    {
      "inputs": [],
      "name": "consoleInst",
      "outputs": [
        {
          "internalType": "contract IConsole",
          "name": "",
          "type": "address"
        }
      ],
      "stateMutability": "view",
      "type": "function"
    },
    {
      "inputs": [],
      "name": "getDate",
      "outputs": [
        {
          "internalType": "uint256",
          "name": "",
          "type": "uint256"
        }
      ],
      "stateMutability": "view",
      "type": "function"
    },
    {
      "inputs": [],
      "name": "getEdge",
      "outputs": [
        {
          "internalType": "uint256",
          "name": "",
          "type": "uint256"
        }
      ],
      "stateMutability": "view",
      "type": "function"
    },
    {
      "inputs": [],
      "name": "getId",
      "outputs": [
        {
          "internalType": "uint256",
          "name": "",
          "type": "uint256"
        }
      ],
      "stateMutability": "view",
      "type": "function"
    },
    {
      "inputs": [],
      "name": "getLive",
      "outputs": [
        {
          "internalType": "bool",
          "name": "",
          "type": "bool"
        }
      ],
      "stateMutability": "view",
      "type": "function"
    },
    {
      "inputs": [
        {
          "internalType": "uint256",
          "name": "",
          "type": "uint256"
        },
        {
          "internalType": "uint256[50]",
          "name": "_data",
          "type": "uint256[50]"
        }
      ],
      "name": "getMaxPayout",
      "outputs": [
        {
          "internalType": "uint256",
          "name": "",
          "type": "uint256"
        }
      ],
      "stateMutability": "view",
      "type": "function"
    },
    {
      "inputs": [],
      "name": "getName",
      "outputs": [
        {
          "internalType": "string",
          "name": "",
          "type": "string"
        }
      ],
      "stateMutability": "view",
      "type": "function"
    },
    {
      "inputs": [],
      "name": "house",
      "outputs": [
        {
          "internalType": "contract IHouse",
          "name": "",
          "type": "address"
        }
      ],
      "stateMutability": "view",
      "type": "function"
    },
    {
      "inputs": [],
      "name": "maxRoll",
      "outputs": [
        {
          "internalType": "uint256",
          "name": "",
          "type": "uint256"
        }
      ],
      "stateMutability": "view",
      "type": "function"
    },
    {
      "inputs": [],
      "name": "minBetRate",
      "outputs": [
        {
          "internalType": "uint256",
          "name": "",
          "type": "uint256"
        }
      ],
      "stateMutability": "view",
      "type": "function"
    },
    {
      "inputs": [],
      "name": "numbersPerRoll",
      "outputs": [
        {
          "internalType": "uint256",
          "name": "",
          "type": "uint256"
        }
      ],
      "stateMutability": "view",
      "type": "function"
    },
    {
      "inputs": [],
      "name": "owner",
      "outputs": [
        {
          "internalType": "address",
          "name": "",
          "type": "address"
        }
      ],
      "stateMutability": "view",
      "type": "function"
    },
    {
      "inputs": [
        {
          "internalType": "uint256",
          "name": "_rolls",
          "type": "uint256"
        },
        {
          "internalType": "uint256",
          "name": "_bet",
          "type": "uint256"
        },
        {
          "internalType": "uint256[50]",
          "name": "_data",
          "type": "uint256[50]"
        },
        {
          "internalType": "uint256",
          "name": "_stake",
          "type": "uint256"
        }
      ],
      "name": "play",
      "outputs": [],
      "stateMutability": "nonpayable",
      "type": "function"
    },
    {
      "inputs": [],
      "name": "renounceOwnership",
      "outputs": [],
      "stateMutability": "nonpayable",
      "type": "function"
    },
    {
      "inputs": [],
      "name": "rng",
      "outputs": [
        {
          "internalType": "contract IRNG",
          "name": "",
          "type": "address"
        }
      ],
      "stateMutability": "view",
      "type": "function"
    },
    {
      "inputs": [
        {
          "internalType": "address",
          "name": "_newConsole",
          "type": "address"
        }
      ],
      "name": "setConsoleInst",
      "outputs": [],
      "stateMutability": "nonpayable",
      "type": "function"
    },
    {
      "inputs": [
        {
          "internalType": "address",
          "name": "_newHouse",
          "type": "address"
        }
      ],
      "name": "setHouse",
      "outputs": [],
      "stateMutability": "nonpayable",
      "type": "function"
    },
    {
      "inputs": [
        {
          "internalType": "address",
          "name": "_newRNG",
          "type": "address"
        }
      ],
      "name": "setRNG",
      "outputs": [],
      "stateMutability": "nonpayable",
      "type": "function"
    },
    {
      "inputs": [
        {
          "internalType": "address",
          "name": "_newUSDT",
          "type": "address"
        }
      ],
      "name": "setUSDTToken",
      "outputs": [],
      "stateMutability": "nonpayable",
      "type": "function"
    },
    {
      "inputs": [
        {
          "internalType": "address",
          "name": "_newVault",
          "type": "address"
        }
      ],
      "name": "setUSDTVault",
      "outputs": [],
      "stateMutability": "nonpayable",
      "type": "function"
    },
    {
      "inputs": [
        {
          "internalType": "address",
          "name": "newOwner",
          "type": "address"
        }
      ],
      "name": "transferOwnership",
      "outputs": [],
      "stateMutability": "nonpayable",
      "type": "function"
    },
    {
      "inputs": [
        {
          "internalType": "uint256",
          "name": "_newValue",
          "type": "uint256"
        }
      ],
      "name": "updateMaxRoll",
      "outputs": [],
      "stateMutability": "nonpayable",
      "type": "function"
    },
    {
      "inputs": [
        {
          "internalType": "uint256",
          "name": "_newValue",
          "type": "uint256"
        }
      ],
      "name": "updateMinBetRate",
      "outputs": [],
      "stateMutability": "nonpayable",
      "type": "function"
    },
    {
      "inputs": [],
      "name": "usdtToken",
      "outputs": [
        {
          "internalType": "contract IERC20BackwardsCompatible",
          "name": "",
          "type": "address"
        }
      ],
      "stateMutability": "view",
      "type": "function"
    },
    {
      "inputs": [],
      "name": "usdtVault",
      "outputs": [
        {
          "internalType": "contract IUSDTVault",
          "name": "",
          "type": "address"
        }
      ],
      "stateMutability": "view",
      "type": "function"
    },
    {
      "inputs": [
        {
          "internalType": "uint256",
          "name": "_bet",
          "type": "uint256"
        },
        {
          "internalType": "uint256[50]",
          "name": "_data",
          "type": "uint256[50]"
        },
        {
          "internalType": "uint256",
          "name": "_stake",
          "type": "uint256"
        }
      ],
      "name": "validateBet",
      "outputs": [
        {
          "internalType": "uint256[50]",
          "name": "",
          "type": "uint256[50]"
        }
      ],
      "stateMutability": "pure",
      "type": "function"
    }
  ],
  "bytecode": "0x60806040523480156200001157600080fd5b5060405162001bcf38038062001bcf83398101604081905262000034916200012f565b868686868686866200004633620000c2565b600180546001600160a01b03199081166001600160a01b03998a16178255600280548216988a169890981790975560038054881696891696909617909555600480548716948816949094179093556005805490951691909516179092556006929092556008556007555050600060095550620001b29350505050565b600080546001600160a01b038381166001600160a01b0319831681178455604051919092169283917f8be0079c531659141344cd1fd0a4f28419497f9722a3daafe3b4186f6b6457e09190a35050565b80516001600160a01b03811681146200012a57600080fd5b919050565b600080600080600080600060e0888a0312156200014b57600080fd5b620001568862000112565b9650620001666020890162000112565b9550620001766040890162000112565b9450620001866060890162000112565b9350620001966080890162000112565b925060a0880151915060c0880151905092959891949750929550565b611a0d80620001c26000396000f3fe608060405234801561001057600080fd5b506004361061018e5760003560e01c80638d794ed2116100de578063ac58fb8911610097578063e348273311610071578063e348273314610339578063e8faf28014610341578063f2fde38b14610354578063ff9b3acf1461036757600080fd5b8063ac58fb8914610300578063c086a42f14610313578063d605787b1461032657600080fd5b80638d794ed2146102825780638da5cb5b146102ad57806394dfeb31146102be578063a0e562a0146102d1578063a8bb89e4146102da578063a98ad46c146102ed57600080fd5b8063430fe9c11161014b57806366e226bd1161012557806366e226bd146102345780636aade89c14610247578063715018a6146102675780637f2a8a801461026f57600080fd5b8063430fe9c11461021b5780634ccee6ea146102235780635d1ca6311461022c57600080fd5b806305592fa21461019357806317d7de7c146101a8578063243e5775146101c657806328d0ab4a146101dd5780632ef5c6d4146101f05780633b84edbd14610208575b600080fd5b6101a66101a136600461116f565b61037a565b005b6101b06103b1565b6040516101bd91906111ac565b60405180910390f35b6101cf60075481565b6040519081526020016101bd565b6101cf6101eb3660046112e8565b61043b565b6101f8610512565b60405190151581526020016101bd565b6101a661021636600461132b565b61059b565b6101cf6105f2565b6101cf60085481565b6006546101cf565b6101a661024236600461132b565b61067b565b61025a610255366004611348565b6106d2565b6040516101bd91906113a9565b6101a661079c565b6101a661027d36600461132b565b6107b0565b600354610295906001600160a01b031681565b6040516001600160a01b0390911681526020016101bd565b6000546001600160a01b0316610295565b6101a66102cc36600461116f565b610807565b6101cf60095481565b6101a66102e836600461132b565b610835565b600154610295906001600160a01b031681565b6101a661030e36600461132b565b61088c565b6101a66103213660046113b8565b6108e3565b600554610295906001600160a01b031681565b6101cf610c84565b600254610295906001600160a01b031681565b6101a661036236600461132b565b610d0d565b600454610295906001600160a01b031681565b610382610d86565b80600754036103ac5760405162461bcd60e51b81526004016103a3906113f8565b60405180910390fd5b600755565b6003546006546040516328bddef360e21b81526060926000926001600160a01b039091169163a2f77bcc916103ec9160040190815260200190565b600060405180830381865afa158015610409573d6000803e3d6000fd5b505050506040513d6000823e601f3d908101601f19168201604052610431919081019061143d565b60a0015192915050565b6003546006546040516328bddef360e21b815260009283926001600160a01b039091169163a2f77bcc916104759160040190815260200190565b600060405180830381865afa158015610492573d6000803e3d6000fd5b505050506040513d6000823e601f3d908101601f191682016040526104ba919081019061143d565b60c08401519091506104cd90606461156c565b69d3c21bcecceda1000000826040015160646104e99190611583565b6104f490600661156c565b6104fe919061156c565b6105089190611596565b9150505b92915050565b6003546006546040516328bddef360e21b815260009283926001600160a01b039091169163a2f77bcc9161054c9160040190815260200190565b600060405180830381865afa158015610569573d6000803e3d6000fd5b505050506040513d6000823e601f3d908101601f19168201604052610591919081019061143d565b6020015192915050565b6105a3610d86565b6005546001600160a01b038083169116036105d05760405162461bcd60e51b81526004016103a3906113f8565b600580546001600160a01b0319166001600160a01b0392909216919091179055565b6003546006546040516328bddef360e21b815260009283926001600160a01b039091169163a2f77bcc9161062c9160040190815260200190565b600060405180830381865afa158015610649573d6000803e3d6000fd5b505050506040513d6000823e601f3d908101601f19168201604052610671919081019061143d565b6060015192915050565b610683610d86565b6001546001600160a01b038083169116036106b05760405162461bcd60e51b81526004016103a3906113f8565b600180546001600160a01b0319166001600160a01b0392909216919091179055565b6106da611150565b83156106fc5760405163117fa00d60e21b8152600481018590526024016103a3565b60c08301511580610712575060c0830151600611155b1561073457818360405163caa513b960e01b81526004016103a39291906115b8565b60005b60c084015181101561079057600684826032811061075757610757611540565b60200201511061077e57828460405163caa513b960e01b81526004016103a39291906115b8565b80610788816115cd565b915050610737565b508290505b9392505050565b6107a4610d86565b6107ae6000610de0565b565b6107b8610d86565b6004546001600160a01b038083169116036107e55760405162461bcd60e51b81526004016103a3906113f8565b600480546001600160a01b0319166001600160a01b0392909216919091179055565b61080f610d86565b80600954036108305760405162461bcd60e51b81526004016103a3906113f8565b600955565b61083d610d86565b6003546001600160a01b0380831691160361086a5760405162461bcd60e51b81526004016103a3906113f8565b600380546001600160a01b0319166001600160a01b0392909216919091179055565b610894610d86565b6002546001600160a01b038083169116036108c15760405162461bcd60e51b81526004016103a3906113f8565b600280546001600160a01b0319166001600160a01b0392909216919091179055565b60008060006007541180156108f9575060075486115b15610925576007546040516358eb123160e11b81526004810191909152602481018790526044016103a3565b6000831161096d5760405162461bcd60e51b8152602060048201526015602482015274506c656173652062657420736f6d6520636f696e7360581b60448201526064016103a3565b600954600160009054906101000a90046001600160a01b03166001600160a01b031663313ce5676040518163ffffffff1660e01b8152600401602060405180830381865afa1580156109c3573d6000803e3d6000fd5b505050506040513d601f19601f820116820180604052508101906109e791906115e6565b6109f290600a6116ed565b610a0485670de0b6b3a764000061156c565b610a0e9190611596565b1015610a3b57600954604051635b3a28c960e01b81526004810191909152602481018490526044016103a3565b6004546006546001600160a01b039091169063b7e4c35490339089898989610a63838361043b565b6040518863ffffffff1660e01b8152600401610a8597969594939291906116fc565b60408051808303816000875af1158015610aa3573d6000803e3d6000fd5b505050506040513d601f19601f82011682018060405250810190610ac79190611746565b6005546008549294509092506000916001600160a01b03909116906347ec651b90610af2908a61156c565b6040518263ffffffff1660e01b8152600401610b1091815260200190565b6000604051808303816000875af1158015610b2f573d6000803e3d6000fd5b505050506040513d6000823e601f3d908101601f19168201604052610b57919081019061176a565b90506000610b658483610e30565b600480546006546040516301270b4760e11b81529283018890523360248401526044830152606482018390529192506001600160a01b039091169063024e168e906084016020604051808303816000875af1158015610bc8573d6000803e3d6000fd5b505050506040513d601f19601f82011682018060405250810190610bec9190611810565b506002546001600160a01b031663baade7bc3383610c0a898d61156c565b610c149088611583565b6040516001600160e01b031960e086901b1681526001600160a01b03909316600484015260248301919091526044820152606401600060405180830381600087803b158015610c6257600080fd5b505af1158015610c76573d6000803e3d6000fd5b505050505050505050505050565b6003546006546040516328bddef360e21b815260009283926001600160a01b039091169163a2f77bcc91610cbe9160040190815260200190565b600060405180830381865afa158015610cdb573d6000803e3d6000fd5b505050506040513d6000823e601f3d908101601f19168201604052610d03919081019061143d565b6040015192915050565b610d15610d86565b6001600160a01b038116610d7a5760405162461bcd60e51b815260206004820152602660248201527f4f776e61626c653a206e6577206f776e657220697320746865207a65726f206160448201526564647265737360d01b60648201526084016103a3565b610d8381610de0565b50565b6000546001600160a01b031633146107ae5760405162461bcd60e51b815260206004820181905260248201527f4f776e61626c653a2063616c6c6572206973206e6f7420746865206f776e657260448201526064016103a3565b600080546001600160a01b038381166001600160a01b0319831681178455604051919092169283917f8be0079c531659141344cd1fd0a4f28419497f9722a3daafe3b4186f6b6457e09190a35050565b6004805460405163061e494f60e01b815291820184905260009182916001600160a01b03169063061e494f906024016107a060405180830381865afa158015610e7d573d6000803e3d6000fd5b505050506040513d601f19601f82011682018060405250810190610ea19190611871565b90506000610ebd82608001518361014001518460a001516106d2565b90506000826060015167ffffffffffffffff811115610ede57610ede6111df565b604051908082528060200260200182016040528015610f07578160200160208202803683370190505b509050857f3051e7eab994ac5edefde9e7f592a4687f82dae97da5ee4aaf923178b375c971846080015184604051610f409291906115b8565b60405180910390a26000610f5d846080015185610140015161043b565b90506000806000805b87606001518110156110e5576005548a516000916001600160a01b03169063b1fb60d7908d9085908110610f9c57610f9c611540565b60209081029190910101516040516001600160e01b031960e084901b16815260048101919091526000602482015260056044820152606401602060405180830381865afa158015610ff1573d6000803e3d6000fd5b505050506040513d601f19601f820116820180604052508101906110159190611920565b905060005b60c08901518110156110985788816032811061103857611038611540565b602002015182036110865769d3c21bcecceda1000000878b60a0015161105e919061156c565b6110689190611596565b6110729087611939565b95508461107e816115cd565b955050611098565b80611090816115cd565b91505061101a565b60c089015181036110b157836110ad816115cd565b9450505b818884815181106110c4576110c4611540565b602002602001018181525050505080806110dd906115cd565b915050610f66565b50428761016001516001600160a01b03168b7f0eb897db80d261cd46c9c9992fa34a6fcc33f3c5d1f21489706f3f5ebc84a0768c898c608001518d60a0015189898c60405161113a9796959493929190611987565b60405180910390a4509098975050505050505050565b6040518061064001604052806032906020820280368337509192915050565b60006020828403121561118157600080fd5b5035919050565b60005b838110156111a357818101518382015260200161118b565b50506000910152565b60208152600082518060208401526111cb816040850160208701611188565b601f01601f19169190910160400192915050565b634e487b7160e01b600052604160045260246000fd5b60405160c0810167ffffffffffffffff81118282101715611218576112186111df565b60405290565b604051610180810167ffffffffffffffff81118282101715611218576112186111df565b604051610640810167ffffffffffffffff81118282101715611218576112186111df565b604051601f8201601f1916810167ffffffffffffffff8111828210171561128f5761128f6111df565b604052919050565b600082601f8301126112a857600080fd5b6112b0611242565b806106408401858111156112c357600080fd5b845b818110156112dd5780358452602093840193016112c5565b509095945050505050565b60008061066083850312156112fc57600080fd5b8235915061130d8460208501611297565b90509250929050565b6001600160a01b0381168114610d8357600080fd5b60006020828403121561133d57600080fd5b813561079581611316565b6000806000610680848603121561135e57600080fd5b8335925061136f8560208601611297565b915061066084013590509250925092565b8060005b60328110156113a3578151845260209384019390910190600101611384565b50505050565b610640810161050c8284611380565b6000806000806106a085870312156113cf57600080fd5b84359350602085013592506113e78660408701611297565b939692955092936106800135925050565b6020808252600b908201526a105b1c9958591e4814d95d60aa1b604082015260600190565b8051801515811461142d57600080fd5b919050565b805161142d81611316565b6000602080838503121561145057600080fd5b825167ffffffffffffffff8082111561146857600080fd5b9084019060c0828703121561147c57600080fd5b6114846111f5565b8251815261149384840161141d565b84820152604083015160408201526060830151606082015260808301516114b981611316565b608082015260a0830151828111156114d057600080fd5b80840193505086601f8401126114e557600080fd5b8251828111156114f7576114f76111df565b611509601f8201601f19168601611266565b9250808352878582860101111561151f57600080fd5b61152e81868501878701611188565b5060a081019190915295945050505050565b634e487b7160e01b600052603260045260246000fd5b634e487b7160e01b600052601160045260246000fd5b808202811582820484141761050c5761050c611556565b8181038181111561050c5761050c611556565b6000826115b357634e487b7160e01b600052601260045260246000fd5b500490565b82815261066081016107956020830184611380565b6000600182016115df576115df611556565b5060010190565b6000602082840312156115f857600080fd5b815160ff8116811461079557600080fd5b600181815b8085111561164457816000190482111561162a5761162a611556565b8085161561163757918102915b93841c939080029061160e565b509250929050565b60008261165b5750600161050c565b816116685750600061050c565b816001811461167e5760028114611688576116a4565b600191505061050c565b60ff84111561169957611699611556565b50506001821b61050c565b5060208310610133831016604e8410600b84101617156116c7575081810a61050c565b6116d18383611609565b80600019048211156116e5576116e5611556565b029392505050565b600061079560ff84168361164c565b6001600160a01b0388168152602081018790526040810186905260608101859052610700810161172f6080830186611380565b6106c08201939093526106e0015295945050505050565b6000806040838503121561175957600080fd5b505080516020909101519092909150565b6000602080838503121561177d57600080fd5b825167ffffffffffffffff8082111561179557600080fd5b818501915085601f8301126117a957600080fd5b8151818111156117bb576117bb6111df565b8060051b91506117cc848301611266565b81815291830184019184810190888411156117e657600080fd5b938501935b83851015611804578451825293850193908501906117eb565b98975050505050505050565b60006020828403121561182257600080fd5b6107958261141d565b600082601f83011261183c57600080fd5b611844611242565b8061064084018581111561185757600080fd5b845b818110156112dd578051845260209384019301611859565b60006107a0828403121561188457600080fd5b61188c61121e565b825181526020830151602082015260408301516040820152606083015160608201526080830151608082015260a083015160a082015260c083015160c08201526118d860e0840161141d565b60e0820152610100838101519082015261012080840151908201526101406119028582860161182b565b908201526119136107808401611432565b6101608201529392505050565b60006020828403121561193257600080fd5b5051919050565b8082018082111561050c5761050c611556565b600081518084526020808501945080840160005b8381101561197c57815187529582019590820190600101611960565b509495945050505050565b60e08152600061199a60e083018a61194c565b82810360208401526119ac818a61194c565b604084019890985250506060810194909452608084019290925260a083015260c0909101529291505056fea26469706673582212203c6716c23a1c011155255f0b4f9ef8a71cc6f86dd61ebd70641170fc71ea853964736f6c63430008120033",
  "linkReferences": {},
  "deployedLinkReferences": {}
}