{
  "_format": "hh-sol-artifact-1",
  "contractName": "GameDice",
  "sourceName": "contracts/games/GameDice.sol",
  "abi": [
    {
      "inputs": [
        {
          "internalType": "address",
          "name": "_usdt",
          "type": "address"
        },
        {
          "internalType": "address",
          "name": "_vault",
          "type": "address"
        },
        {
          "internalType": "address",
          "name": "_console",
          "type": "address"
        },
        {
          "internalType": "address",
          "name": "_house",
          "type": "address"
        },
        {
          "internalType": "address",
          "name": "_rng",
          "type": "address"
        },
        {
          "internalType": "uint256",
          "name": "_id",
          "type": "uint256"
        },
        {
          "internalType": "uint256",
          "name": "_numbersPerRoll",
          "type": "uint256"
        }
      ],
      "stateMutability": "nonpayable",
      "type": "constructor"
    },
    {
      "inputs": [
        {
          "internalType": "uint256",
          "name": "bet",
          "type": "uint256"
        }
      ],
      "name": "InvalidBet",
      "type": "error"
    },
    {
      "inputs": [
        {
          "internalType": "uint256",
          "name": "_stake",
          "type": "uint256"
        },
        {
          "internalType": "uint256[50]",
          "name": "_data",
          "type": "uint256[50]"
        }
      ],
      "name": "InvalidData",
      "type": "error"
    },
    {
      "inputs": [
        {
          "internalType": "uint256",
          "name": "max",
          "type": "uint256"
        },
        {
          "internalType": "uint256",
          "name": "rolls",
          "type": "uint256"
        }
      ],
      "name": "InvalidRolls",
      "type": "error"
    },
    {
      "inputs": [
        {
          "internalType": "uint256",
          "name": "minRate",
          "type": "uint256"
        },
        {
          "internalType": "uint256",
          "name": "stake",
          "type": "uint256"
        }
      ],
      "name": "MinBet",
      "type": "error"
    },
    {
      "anonymous": false,
      "inputs": [
        {
          "indexed": true,
          "internalType": "uint256",
          "name": "betId",
          "type": "uint256"
        },
        {
          "indexed": false,
          "internalType": "uint256[]",
          "name": "_randomNumbers",
          "type": "uint256[]"
        },
        {
          "indexed": false,
          "internalType": "uint256[]",
          "name": "_rolls",
          "type": "uint256[]"
        },
        {
          "indexed": false,
          "internalType": "uint256",
          "name": "_bet",
          "type": "uint256"
        },
        {
          "indexed": false,
          "internalType": "uint256",
          "name": "_stake",
          "type": "uint256"
        },
        {
          "indexed": false,
          "internalType": "uint256",
          "name": "wins",
          "type": "uint256"
        },
        {
          "indexed": false,
          "internalType": "uint256",
          "name": "losses",
          "type": "uint256"
        },
        {
          "indexed": false,
          "internalType": "uint256",
          "name": "_payout",
          "type": "uint256"
        },
        {
          "indexed": true,
          "internalType": "address",
          "name": "_account",
          "type": "address"
        },
        {
          "indexed": true,
          "internalType": "uint256",
          "name": "_timestamp",
          "type": "uint256"
        }
      ],
      "name": "GameEnd",
      "type": "event"
    },
    {
      "anonymous": false,
      "inputs": [
        {
          "indexed": true,
          "internalType": "uint256",
          "name": "betId",
          "type": "uint256"
        },
        {
          "indexed": false,
          "internalType": "uint256",
          "name": "_bet",
          "type": "uint256"
        },
        {
          "indexed": false,
          "internalType": "uint256[50]",
          "name": "_data",
          "type": "uint256[50]"
        }
      ],
      "name": "GameStart",
      "type": "event"
    },
    {
      "anonymous": false,
      "inputs": [
        {
          "indexed": true,
          "internalType": "address",
          "name": "previousOwner",
          "type": "address"
        },
        {
          "indexed": true,
          "internalType": "address",
          "name": "newOwner",
          "type": "address"
        }
      ],
      "name": "OwnershipTransferred",
      "type": "event"
    },
    {
      "inputs": [],
      "name": "consoleInst",
      "outputs": [
        {
          "internalType": "contract IConsole",
          "name": "",
          "type": "address"
        }
      ],
      "stateMutability": "view",
      "type": "function"
    },
    {
      "inputs": [],
      "name": "getDate",
      "outputs": [
        {
          "internalType": "uint256",
          "name": "",
          "type": "uint256"
        }
      ],
      "stateMutability": "view",
      "type": "function"
    },
    {
      "inputs": [],
      "name": "getEdge",
      "outputs": [
        {
          "internalType": "uint256",
          "name": "",
          "type": "uint256"
        }
      ],
      "stateMutability": "view",
      "type": "function"
    },
    {
      "inputs": [],
      "name": "getId",
      "outputs": [
        {
          "internalType": "uint256",
          "name": "",
          "type": "uint256"
        }
      ],
      "stateMutability": "view",
      "type": "function"
    },
    {
      "inputs": [],
      "name": "getLive",
      "outputs": [
        {
          "internalType": "bool",
          "name": "",
          "type": "bool"
        }
      ],
      "stateMutability": "view",
      "type": "function"
    },
    {
      "inputs": [
        {
          "internalType": "uint256",
          "name": "",
          "type": "uint256"
        },
        {
          "internalType": "uint256[50]",
          "name": "_data",
          "type": "uint256[50]"
        }
      ],
      "name": "getMaxPayout",
      "outputs": [
        {
          "internalType": "uint256",
          "name": "",
          "type": "uint256"
        }
      ],
      "stateMutability": "view",
      "type": "function"
    },
    {
      "inputs": [],
      "name": "getName",
      "outputs": [
        {
          "internalType": "string",
          "name": "",
          "type": "string"
        }
      ],
      "stateMutability": "view",
      "type": "function"
    },
    {
      "inputs": [],
      "name": "house",
      "outputs": [
        {
          "internalType": "contract IHouse",
          "name": "",
          "type": "address"
        }
      ],
      "stateMutability": "view",
      "type": "function"
    },
    {
      "inputs": [],
      "name": "maxRoll",
      "outputs": [
        {
          "internalType": "uint256",
          "name": "",
          "type": "uint256"
        }
      ],
      "stateMutability": "view",
      "type": "function"
    },
    {
      "inputs": [],
      "name": "minBetRate",
      "outputs": [
        {
          "internalType": "uint256",
          "name": "",
          "type": "uint256"
        }
      ],
      "stateMutability": "view",
      "type": "function"
    },
    {
      "inputs": [],
      "name": "numbersPerRoll",
      "outputs": [
        {
          "internalType": "uint256",
          "name": "",
          "type": "uint256"
        }
      ],
      "stateMutability": "view",
      "type": "function"
    },
    {
      "inputs": [],
      "name": "owner",
      "outputs": [
        {
          "internalType": "address",
          "name": "",
          "type": "address"
        }
      ],
      "stateMutability": "view",
      "type": "function"
    },
    {
      "inputs": [
        {
          "internalType": "uint256",
          "name": "_rolls",
          "type": "uint256"
        },
        {
          "internalType": "uint256",
          "name": "_bet",
          "type": "uint256"
        },
        {
          "internalType": "uint256[50]",
          "name": "_data",
          "type": "uint256[50]"
        },
        {
          "internalType": "uint256",
          "name": "_stake",
          "type": "uint256"
        }
      ],
      "name": "play",
      "outputs": [],
      "stateMutability": "nonpayable",
      "type": "function"
    },
    {
      "inputs": [],
      "name": "renounceOwnership",
      "outputs": [],
      "stateMutability": "nonpayable",
      "type": "function"
    },
    {
      "inputs": [],
      "name": "rng",
      "outputs": [
        {
          "internalType": "contract IRNG",
          "name": "",
          "type": "address"
        }
      ],
      "stateMutability": "view",
      "type": "function"
    },
    {
      "inputs": [
        {
          "internalType": "address",
          "name": "_newConsole",
          "type": "address"
        }
      ],
      "name": "setConsoleInst",
      "outputs": [],
      "stateMutability": "nonpayable",
      "type": "function"
    },
    {
      "inputs": [
        {
          "internalType": "address",
          "name": "_newHouse",
          "type": "address"
        }
      ],
      "name": "setHouse",
      "outputs": [],
      "stateMutability": "nonpayable",
      "type": "function"
    },
    {
      "inputs": [
        {
          "internalType": "address",
          "name": "_newRNG",
          "type": "address"
        }
      ],
      "name": "setRNG",
      "outputs": [],
      "stateMutability": "nonpayable",
      "type": "function"
    },
    {
      "inputs": [
        {
          "internalType": "address",
          "name": "_newUSDT",
          "type": "address"
        }
      ],
      "name": "setUSDTToken",
      "outputs": [],
      "stateMutability": "nonpayable",
      "type": "function"
    },
    {
      "inputs": [
        {
          "internalType": "address",
          "name": "_newVault",
          "type": "address"
        }
      ],
      "name": "setUSDTVault",
      "outputs": [],
      "stateMutability": "nonpayable",
      "type": "function"
    },
    {
      "inputs": [
        {
          "internalType": "address",
          "name": "newOwner",
          "type": "address"
        }
      ],
      "name": "transferOwnership",
      "outputs": [],
      "stateMutability": "nonpayable",
      "type": "function"
    },
    {
      "inputs": [
        {
          "internalType": "uint256",
          "name": "_newValue",
          "type": "uint256"
        }
      ],
      "name": "updateMaxRoll",
      "outputs": [],
      "stateMutability": "nonpayable",
      "type": "function"
    },
    {
      "inputs": [
        {
          "internalType": "uint256",
          "name": "_newValue",
          "type": "uint256"
        }
      ],
      "name": "updateMinBetRate",
      "outputs": [],
      "stateMutability": "nonpayable",
      "type": "function"
    },
    {
      "inputs": [],
      "name": "usdtToken",
      "outputs": [
        {
          "internalType": "contract IERC20BackwardsCompatible",
          "name": "",
          "type": "address"
        }
      ],
      "stateMutability": "view",
      "type": "function"
    },
    {
      "inputs": [],
      "name": "usdtVault",
      "outputs": [
        {
          "internalType": "contract IUSDTVault",
          "name": "",
          "type": "address"
        }
      ],
      "stateMutability": "view",
      "type": "function"
    },
    {
      "inputs": [
        {
          "internalType": "uint256",
          "name": "_bet",
          "type": "uint256"
        },
        {
          "internalType": "uint256[50]",
          "name": "_data",
          "type": "uint256[50]"
        },
        {
          "internalType": "uint256",
          "name": "_stake",
          "type": "uint256"
        }
      ],
      "name": "validateBet",
      "outputs": [
        {
          "internalType": "uint256[50]",
          "name": "",
          "type": "uint256[50]"
        }
      ],
      "stateMutability": "pure",
      "type": "function"
    }
  ],
  "bytecode": "0x60806040523480156200001157600080fd5b5060405162001bce38038062001bce83398101604081905262000034916200012f565b868686868686866200004633620000c2565b600180546001600160a01b03199081166001600160a01b03998a16178255600280548216988a169890981790975560038054881696891696909617909555600480548716948816949094179093556005805490951691909516179092556006929092556008556007555050600060095550620001b29350505050565b600080546001600160a01b038381166001600160a01b0319831681178455604051919092169283917f8be0079c531659141344cd1fd0a4f28419497f9722a3daafe3b4186f6b6457e09190a35050565b80516001600160a01b03811681146200012a57600080fd5b919050565b600080600080600080600060e0888a0312156200014b57600080fd5b620001568862000112565b9650620001666020890162000112565b9550620001766040890162000112565b9450620001866060890162000112565b9350620001966080890162000112565b925060a0880151915060c0880151905092959891949750929550565b611a0c80620001c26000396000f3fe608060405234801561001057600080fd5b506004361061018e5760003560e01c80638d794ed2116100de578063ac58fb8911610097578063e348273311610071578063e348273314610339578063e8faf28014610341578063f2fde38b14610354578063ff9b3acf1461036757600080fd5b8063ac58fb8914610300578063c086a42f14610313578063d605787b1461032657600080fd5b80638d794ed2146102825780638da5cb5b146102ad57806394dfeb31146102be578063a0e562a0146102d1578063a8bb89e4146102da578063a98ad46c146102ed57600080fd5b8063430fe9c11161014b57806366e226bd1161012557806366e226bd146102345780636aade89c14610247578063715018a6146102675780637f2a8a801461026f57600080fd5b8063430fe9c11461021b5780634ccee6ea146102235780635d1ca6311461022c57600080fd5b806305592fa21461019357806317d7de7c146101a8578063243e5775146101c657806328d0ab4a146101dd5780632ef5c6d4146101f05780633b84edbd14610208575b600080fd5b6101a66101a136600461116e565b61037a565b005b6101b06103b1565b6040516101bd91906111ab565b60405180910390f35b6101cf60075481565b6040519081526020016101bd565b6101cf6101eb3660046112e7565b61043b565b6101f861051f565b60405190151581526020016101bd565b6101a661021636600461132a565b6105a8565b6101cf6105ff565b6101cf60085481565b6006546101cf565b6101a661024236600461132a565b610688565b61025a610255366004611347565b6106df565b6040516101bd91906113a8565b6101a661079b565b6101a661027d36600461132a565b6107af565b600354610295906001600160a01b031681565b6040516001600160a01b0390911681526020016101bd565b6000546001600160a01b0316610295565b6101a66102cc36600461116e565b610806565b6101cf60095481565b6101a66102e836600461132a565b610834565b600154610295906001600160a01b031681565b6101a661030e36600461132a565b61088b565b6101a66103213660046113b7565b6108e2565b600554610295906001600160a01b031681565b6101cf610c83565b600254610295906001600160a01b031681565b6101a661036236600461132a565b610d0c565b600454610295906001600160a01b031681565b610382610d85565b80600754036103ac5760405162461bcd60e51b81526004016103a3906113f7565b60405180910390fd5b600755565b6003546006546040516328bddef360e21b81526060926000926001600160a01b039091169163a2f77bcc916103ec9160040190815260200190565b600060405180830381865afa158015610409573d6000803e3d6000fd5b505050506040513d6000823e601f3d908101601f19168201604052610431919081019061143c565b60a0015192915050565b60c0810151600090810361045157506000610519565b6003546006546040516328bddef360e21b815260048101919091526000916001600160a01b03169063a2f77bcc90602401600060405180830381865afa15801561049f573d6000803e3d6000fd5b505050506040513d6000823e601f3d908101601f191682016040526104c7919081019061143c565b60c08401519091506104da90606461156b565b69d3c21bcecceda1000000826040015160646104f69190611582565b61050190600661156b565b61050b919061156b565b6105159190611595565b9150505b92915050565b6003546006546040516328bddef360e21b815260009283926001600160a01b039091169163a2f77bcc916105599160040190815260200190565b600060405180830381865afa158015610576573d6000803e3d6000fd5b505050506040513d6000823e601f3d908101601f1916820160405261059e919081019061143c565b6020015192915050565b6105b0610d85565b6005546001600160a01b038083169116036105dd5760405162461bcd60e51b81526004016103a3906113f7565b600580546001600160a01b0319166001600160a01b0392909216919091179055565b6003546006546040516328bddef360e21b815260009283926001600160a01b039091169163a2f77bcc916106399160040190815260200190565b600060405180830381865afa158015610656573d6000803e3d6000fd5b505050506040513d6000823e601f3d908101601f1916820160405261067e919081019061143c565b6060015192915050565b610690610d85565b6001546001600160a01b038083169116036106bd5760405162461bcd60e51b81526004016103a3906113f7565b600180546001600160a01b0319166001600160a01b0392909216919091179055565b6106e761114f565b83156107095760405163117fa00d60e21b8152600481018590526024016103a3565b60c08301516006101561073357818360405163caa513b960e01b81526004016103a39291906115b7565b60005b60c084015181101561078f5760068482603281106107565761075661153f565b60200201511061077d57828460405163caa513b960e01b81526004016103a39291906115b7565b80610787816115cc565b915050610736565b508290505b9392505050565b6107a3610d85565b6107ad6000610ddf565b565b6107b7610d85565b6004546001600160a01b038083169116036107e45760405162461bcd60e51b81526004016103a3906113f7565b600480546001600160a01b0319166001600160a01b0392909216919091179055565b61080e610d85565b806009540361082f5760405162461bcd60e51b81526004016103a3906113f7565b600955565b61083c610d85565b6003546001600160a01b038083169116036108695760405162461bcd60e51b81526004016103a3906113f7565b600380546001600160a01b0319166001600160a01b0392909216919091179055565b610893610d85565b6002546001600160a01b038083169116036108c05760405162461bcd60e51b81526004016103a3906113f7565b600280546001600160a01b0319166001600160a01b0392909216919091179055565b60008060006007541180156108f8575060075486115b15610924576007546040516358eb123160e11b81526004810191909152602481018790526044016103a3565b6000831161096c5760405162461bcd60e51b8152602060048201526015602482015274506c656173652062657420736f6d6520636f696e7360581b60448201526064016103a3565b600954600160009054906101000a90046001600160a01b03166001600160a01b031663313ce5676040518163ffffffff1660e01b8152600401602060405180830381865afa1580156109c2573d6000803e3d6000fd5b505050506040513d601f19601f820116820180604052508101906109e691906115e5565b6109f190600a6116ec565b610a0385670de0b6b3a764000061156b565b610a0d9190611595565b1015610a3a57600954604051635b3a28c960e01b81526004810191909152602481018490526044016103a3565b6004546006546001600160a01b039091169063b7e4c35490339089898989610a62838361043b565b6040518863ffffffff1660e01b8152600401610a8497969594939291906116fb565b60408051808303816000875af1158015610aa2573d6000803e3d6000fd5b505050506040513d601f19601f82011682018060405250810190610ac69190611745565b6005546008549294509092506000916001600160a01b03909116906347ec651b90610af1908a61156b565b6040518263ffffffff1660e01b8152600401610b0f91815260200190565b6000604051808303816000875af1158015610b2e573d6000803e3d6000fd5b505050506040513d6000823e601f3d908101601f19168201604052610b569190810190611769565b90506000610b648483610e2f565b600480546006546040516301270b4760e11b81529283018890523360248401526044830152606482018390529192506001600160a01b039091169063024e168e906084016020604051808303816000875af1158015610bc7573d6000803e3d6000fd5b505050506040513d601f19601f82011682018060405250810190610beb919061180f565b506002546001600160a01b031663baade7bc3383610c09898d61156b565b610c139088611582565b6040516001600160e01b031960e086901b1681526001600160a01b03909316600484015260248301919091526044820152606401600060405180830381600087803b158015610c6157600080fd5b505af1158015610c75573d6000803e3d6000fd5b505050505050505050505050565b6003546006546040516328bddef360e21b815260009283926001600160a01b039091169163a2f77bcc91610cbd9160040190815260200190565b600060405180830381865afa158015610cda573d6000803e3d6000fd5b505050506040513d6000823e601f3d908101601f19168201604052610d02919081019061143c565b6040015192915050565b610d14610d85565b6001600160a01b038116610d795760405162461bcd60e51b815260206004820152602660248201527f4f776e61626c653a206e6577206f776e657220697320746865207a65726f206160448201526564647265737360d01b60648201526084016103a3565b610d8281610ddf565b50565b6000546001600160a01b031633146107ad5760405162461bcd60e51b815260206004820181905260248201527f4f776e61626c653a2063616c6c6572206973206e6f7420746865206f776e657260448201526064016103a3565b600080546001600160a01b038381166001600160a01b0319831681178455604051919092169283917f8be0079c531659141344cd1fd0a4f28419497f9722a3daafe3b4186f6b6457e09190a35050565b6004805460405163061e494f60e01b815291820184905260009182916001600160a01b03169063061e494f906024016107a060405180830381865afa158015610e7c573d6000803e3d6000fd5b505050506040513d601f19601f82011682018060405250810190610ea09190611870565b90506000610ebc82608001518361014001518460a001516106df565b90506000826060015167ffffffffffffffff811115610edd57610edd6111de565b604051908082528060200260200182016040528015610f06578160200160208202803683370190505b509050857f3051e7eab994ac5edefde9e7f592a4687f82dae97da5ee4aaf923178b375c971846080015184604051610f3f9291906115b7565b60405180910390a26000610f5c846080015185610140015161043b565b90506000806000805b87606001518110156110e4576005548a516000916001600160a01b03169063b1fb60d7908d9085908110610f9b57610f9b61153f565b60209081029190910101516040516001600160e01b031960e084901b16815260048101919091526001602482015260066044820152606401602060405180830381865afa158015610ff0573d6000803e3d6000fd5b505050506040513d601f19601f82011682018060405250810190611014919061191f565b905060005b60c0890151811015611097578881603281106110375761103761153f565b602002015182036110855769d3c21bcecceda1000000878b60a0015161105d919061156b565b6110679190611595565b6110719087611938565b95508461107d816115cc565b955050611097565b8061108f816115cc565b915050611019565b60c089015181036110b057836110ac816115cc565b9450505b818884815181106110c3576110c361153f565b602002602001018181525050505080806110dc906115cc565b915050610f65565b50428761016001516001600160a01b03168b7f0eb897db80d261cd46c9c9992fa34a6fcc33f3c5d1f21489706f3f5ebc84a0768c898c608001518d60a0015189898c6040516111399796959493929190611986565b60405180910390a4509098975050505050505050565b6040518061064001604052806032906020820280368337509192915050565b60006020828403121561118057600080fd5b5035919050565b60005b838110156111a257818101518382015260200161118a565b50506000910152565b60208152600082518060208401526111ca816040850160208701611187565b601f01601f19169190910160400192915050565b634e487b7160e01b600052604160045260246000fd5b60405160c0810167ffffffffffffffff81118282101715611217576112176111de565b60405290565b604051610180810167ffffffffffffffff81118282101715611217576112176111de565b604051610640810167ffffffffffffffff81118282101715611217576112176111de565b604051601f8201601f1916810167ffffffffffffffff8111828210171561128e5761128e6111de565b604052919050565b600082601f8301126112a757600080fd5b6112af611241565b806106408401858111156112c257600080fd5b845b818110156112dc5780358452602093840193016112c4565b509095945050505050565b60008061066083850312156112fb57600080fd5b8235915061130c8460208501611296565b90509250929050565b6001600160a01b0381168114610d8257600080fd5b60006020828403121561133c57600080fd5b813561079481611315565b6000806000610680848603121561135d57600080fd5b8335925061136e8560208601611296565b915061066084013590509250925092565b8060005b60328110156113a2578151845260209384019390910190600101611383565b50505050565b6106408101610519828461137f565b6000806000806106a085870312156113ce57600080fd5b84359350602085013592506113e68660408701611296565b939692955092936106800135925050565b6020808252600b908201526a105b1c9958591e4814d95d60aa1b604082015260600190565b8051801515811461142c57600080fd5b919050565b805161142c81611315565b6000602080838503121561144f57600080fd5b825167ffffffffffffffff8082111561146757600080fd5b9084019060c0828703121561147b57600080fd5b6114836111f4565b8251815261149284840161141c565b84820152604083015160408201526060830151606082015260808301516114b881611315565b608082015260a0830151828111156114cf57600080fd5b80840193505086601f8401126114e457600080fd5b8251828111156114f6576114f66111de565b611508601f8201601f19168601611265565b9250808352878582860101111561151e57600080fd5b61152d81868501878701611187565b5060a081019190915295945050505050565b634e487b7160e01b600052603260045260246000fd5b634e487b7160e01b600052601160045260246000fd5b808202811582820484141761051957610519611555565b8181038181111561051957610519611555565b6000826115b257634e487b7160e01b600052601260045260246000fd5b500490565b8281526106608101610794602083018461137f565b6000600182016115de576115de611555565b5060010190565b6000602082840312156115f757600080fd5b815160ff8116811461079457600080fd5b600181815b8085111561164357816000190482111561162957611629611555565b8085161561163657918102915b93841c939080029061160d565b509250929050565b60008261165a57506001610519565b8161166757506000610519565b816001811461167d5760028114611687576116a3565b6001915050610519565b60ff84111561169857611698611555565b50506001821b610519565b5060208310610133831016604e8410600b84101617156116c6575081810a610519565b6116d08383611608565b80600019048211156116e4576116e4611555565b029392505050565b600061079460ff84168361164b565b6001600160a01b0388168152602081018790526040810186905260608101859052610700810161172e608083018661137f565b6106c08201939093526106e0015295945050505050565b6000806040838503121561175857600080fd5b505080516020909101519092909150565b6000602080838503121561177c57600080fd5b825167ffffffffffffffff8082111561179457600080fd5b818501915085601f8301126117a857600080fd5b8151818111156117ba576117ba6111de565b8060051b91506117cb848301611265565b81815291830184019184810190888411156117e557600080fd5b938501935b83851015611803578451825293850193908501906117ea565b98975050505050505050565b60006020828403121561182157600080fd5b6107948261141c565b600082601f83011261183b57600080fd5b611843611241565b8061064084018581111561185657600080fd5b845b818110156112dc578051845260209384019301611858565b60006107a0828403121561188357600080fd5b61188b61121d565b825181526020830151602082015260408301516040820152606083015160608201526080830151608082015260a083015160a082015260c083015160c08201526118d760e0840161141c565b60e0820152610100838101519082015261012080840151908201526101406119018582860161182a565b908201526119126107808401611431565b6101608201529392505050565b60006020828403121561193157600080fd5b5051919050565b8082018082111561051957610519611555565b600081518084526020808501945080840160005b8381101561197b5781518752958201959082019060010161195f565b509495945050505050565b60e08152600061199960e083018a61194b565b82810360208401526119ab818a61194b565b604084019890985250506060810194909452608084019290925260a083015260c0909101529291505056fea26469706673582212209c718abfe2332a42bcbf18d78df999dad5d838facdb0929b7a80fb32cbfeb8a864736f6c63430008120033",
  "linkReferences": {},
  "deployedLinkReferences": {}
}