{
  "_format": "hh-sol-artifact-1",
  "contractName": "GovernableUpgradeable",
  "sourceName": "contracts/ProxyTest.sol",
  "abi": [
    {
      "anonymous": false,
      "inputs": [
        {
          "indexed": true,
          "internalType": "address",
          "name": "previousGovernor",
          "type": "address"
        },
        {
          "indexed": true,
          "internalType": "address",
          "name": "newGovernor",
          "type": "address"
        }
      ],
      "name": "GovernorshipTransferred",
      "type": "event"
    },
    {
      "anonymous": false,
      "inputs": [
        {
          "indexed": false,
          "internalType": "uint8",
          "name": "version",
          "type": "uint8"
        }
      ],
      "name": "Initialized",
      "type": "event"
    },
    {
      "anonymous": false,
      "inputs": [
        {
          "indexed": true,
          "internalType": "address",
          "name": "previousGovernor",
          "type": "address"
        },
        {
          "indexed": true,
          "internalType": "address",
          "name": "newGovernor",
          "type": "address"
        }
      ],
      "name": "PendingGovernorshipTransfer",
      "type": "event"
    },
    {
      "inputs": [
        {
          "internalType": "address",
          "name": "",
          "type": "address"
        },
        {
          "internalType": "uint256",
          "name": "",
          "type": "uint256"
        },
        {
          "internalType": "string",
          "name": "",
          "type": "string"
        }
      ],
      "name": "Governable_init",
      "outputs": [],
      "stateMutability": "nonpayable",
      "type": "function"
    },
    {
      "inputs": [],
      "name": "claimGovernance",
      "outputs": [],
      "stateMutability": "nonpayable",
      "type": "function"
    },
    {
      "inputs": [],
      "name": "governor",
      "outputs": [
        {
          "internalType": "address",
          "name": "",
          "type": "address"
        }
      ],
      "stateMutability": "view",
      "type": "function"
    },
    {
      "inputs": [],
      "name": "isGovernor",
      "outputs": [
        {
          "internalType": "bool",
          "name": "",
          "type": "bool"
        }
      ],
      "stateMutability": "view",
      "type": "function"
    },
    {
      "inputs": [
        {
          "internalType": "address",
          "name": "_newGovernor",
          "type": "address"
        }
      ],
      "name": "transferGovernance",
      "outputs": [],
      "stateMutability": "nonpayable",
      "type": "function"
    }
  ],
  "bytecode": "0x608060405234801561001057600080fd5b506106ad806100206000396000f3fe608060405234801561001057600080fd5b50600436106100575760003560e01c80630c340a241461005c5780635d36b19014610081578063600387221461008b578063c7af33521461009e578063d38bfff4146100b6575b600080fd5b6100646100c9565b6040516001600160a01b0390911681526020015b60405180910390f35b6100896100e6565b005b61008961009936600461056a565b610191565b6100a66102a5565b6040519015158152602001610078565b6100896100c4366004610635565b6102d6565b60006100e16000805160206106588339815191525490565b905090565b7f44c4d30b2eaad5130ad70c3ba6972730566f3e6359ab83e800d905c61b1c51db546001600160a01b0316336001600160a01b0316146101865760405162461bcd60e51b815260206004820152603060248201527f4f6e6c79207468652070656e64696e6720476f7665726e6f722063616e20636f60448201526f6d706c6574652074686520636c61696d60801b60648201526084015b60405180910390fd5b61018f336103aa565b565b600054610100900460ff16158080156101b15750600054600160ff909116105b806101cb5750303b1580156101cb575060005460ff166001145b61022e5760405162461bcd60e51b815260206004820152602e60248201527f496e697469616c697a61626c653a20636f6e747261637420697320616c72656160448201526d191e481a5b9a5d1a585b1a5e995960921b606482015260840161017d565b6000805460ff191660011790558015610251576000805461ff0019166101001790555b61025961046e565b801561029f576000805461ff0019169055604051600181527f7f26b83ff96e1f2b6a682f133852f6798a09c465da95921460cefb38474024989060200160405180910390a15b50505050565b60006102bd6000805160206106588339815191525490565b6001600160a01b0316336001600160a01b031614905090565b6102de6102a5565b61032a5760405162461bcd60e51b815260206004820152601a60248201527f43616c6c6572206973206e6f742074686520476f7665726e6f72000000000000604482015260640161017d565b610352817f44c4d30b2eaad5130ad70c3ba6972730566f3e6359ab83e800d905c61b1c51db55565b806001600160a01b03166103726000805160206106588339815191525490565b6001600160a01b03167fa39cc5eb22d0f34d8beaefee8a3f17cc229c1a1d1ef87a5ad47313487b1c4f0d60405160405180910390a350565b6001600160a01b0381166104005760405162461bcd60e51b815260206004820152601a60248201527f4e657720476f7665726e6f722069732061646472657373283029000000000000604482015260640161017d565b806001600160a01b03166104206000805160206106588339815191525490565b6001600160a01b03167fc7c0c772add429241571afb3805861fb3cfa2af374534088b76cdb4325a87e9a60405160405180910390a361046b8160008051602061065883398151915255565b50565b600054610100900460ff166104d95760405162461bcd60e51b815260206004820152602b60248201527f496e697469616c697a61626c653a20636f6e7472616374206973206e6f74206960448201526a6e697469616c697a696e6760a81b606482015260840161017d565b6104ef3360008051602061065883398151915255565b600080516020610658833981519152546040516001600160a01b03909116906000907fc7c0c772add429241571afb3805861fb3cfa2af374534088b76cdb4325a87e9a908290a3565b80356001600160a01b038116811461054f57600080fd5b919050565b634e487b7160e01b600052604160045260246000fd5b60008060006060848603121561057f57600080fd5b61058884610538565b925060208401359150604084013567ffffffffffffffff808211156105ac57600080fd5b818601915086601f8301126105c057600080fd5b8135818111156105d2576105d2610554565b604051601f8201601f19908116603f011681019083821181831017156105fa576105fa610554565b8160405282815289602084870101111561061357600080fd5b8260208601602083013760006020848301015280955050505050509250925092565b60006020828403121561064757600080fd5b61065082610538565b939250505056fe7bea13895fa79d2831e0a9e28edede30099005a50d652d8957cf8a607ee6ca4aa2646970667358221220811b8d65895b0bf81569457da1e659015dc59a3b186f4393ff1b6db6bfd7907064736f6c63430008120033",
  "linkReferences": {},
  "deployedLinkReferences": {}
}