{
  "_format": "hh-sol-artifact-1",
  "contractName": "sArbet",
  "sourceName": "contracts/sArbet.sol",
  "abi": [
    {
      "inputs": [
        {
          "internalType": "address",
          "name": "_arbetAddress",
          "type": "address"
        },
        {
          "internalType": "address",
          "name": "_usdt",
          "type": "address"
        },
        {
          "internalType": "string",
          "name": "_name",
          "type": "string"
        },
        {
          "internalType": "string",
          "name": "_symbol",
          "type": "string"
        }
      ],
      "stateMutability": "nonpayable",
      "type": "constructor"
    },
    {
      "inputs": [
        {
          "internalType": "address",
          "name": "_account",
          "type": "address"
        }
      ],
      "name": "ClaimNull",
      "type": "error"
    },
    {
      "inputs": [
        {
          "internalType": "address",
          "name": "_account",
          "type": "address"
        }
      ],
      "name": "ClaimPostponed",
      "type": "error"
    },
    {
      "inputs": [
        {
          "internalType": "uint256",
          "name": "_amount",
          "type": "uint256"
        },
        {
          "internalType": "uint256",
          "name": "_allowance",
          "type": "uint256"
        }
      ],
      "name": "InsufficientArbetAllowance",
      "type": "error"
    },
    {
      "inputs": [
        {
          "internalType": "uint256",
          "name": "_amount",
          "type": "uint256"
        },
        {
          "internalType": "uint256",
          "name": "_balance",
          "type": "uint256"
        }
      ],
      "name": "InsufficientArbetBalance",
      "type": "error"
    },
    {
      "inputs": [
        {
          "internalType": "uint256",
          "name": "_amount",
          "type": "uint256"
        },
        {
          "internalType": "uint256",
          "name": "_allowance",
          "type": "uint256"
        }
      ],
      "name": "InsufficientsArbetAllowance",
      "type": "error"
    },
    {
      "inputs": [
        {
          "internalType": "uint256",
          "name": "_amount",
          "type": "uint256"
        },
        {
          "internalType": "uint256",
          "name": "_balance",
          "type": "uint256"
        }
      ],
      "name": "InsufficientsArbetBalance",
      "type": "error"
    },
    {
      "inputs": [
        {
          "internalType": "address",
          "name": "vault",
          "type": "address"
        }
      ],
      "name": "InvalidVault",
      "type": "error"
    },
    {
      "inputs": [
        {
          "internalType": "uint256",
          "name": "max",
          "type": "uint256"
        },
        {
          "internalType": "uint256",
          "name": "amount",
          "type": "uint256"
        }
      ],
      "name": "TooMuchWithdraw",
      "type": "error"
    },
    {
      "anonymous": false,
      "inputs": [
        {
          "indexed": true,
          "internalType": "address",
          "name": "owner",
          "type": "address"
        },
        {
          "indexed": true,
          "internalType": "address",
          "name": "spender",
          "type": "address"
        },
        {
          "indexed": false,
          "internalType": "uint256",
          "name": "value",
          "type": "uint256"
        }
      ],
      "name": "Approval",
      "type": "event"
    },
    {
      "anonymous": false,
      "inputs": [
        {
          "indexed": true,
          "internalType": "address",
          "name": "_account",
          "type": "address"
        },
        {
          "indexed": true,
          "internalType": "uint256",
          "name": "_amount",
          "type": "uint256"
        },
        {
          "indexed": true,
          "internalType": "uint256",
          "name": "_timestamp",
          "type": "uint256"
        }
      ],
      "name": "Claim",
      "type": "event"
    },
    {
      "anonymous": false,
      "inputs": [
        {
          "indexed": true,
          "internalType": "address",
          "name": "_account",
          "type": "address"
        },
        {
          "indexed": true,
          "internalType": "uint256",
          "name": "_amount",
          "type": "uint256"
        },
        {
          "indexed": true,
          "internalType": "uint256",
          "name": "_timestamp",
          "type": "uint256"
        }
      ],
      "name": "Deposit",
      "type": "event"
    },
    {
      "anonymous": false,
      "inputs": [
        {
          "indexed": true,
          "internalType": "address",
          "name": "previousOwner",
          "type": "address"
        },
        {
          "indexed": true,
          "internalType": "address",
          "name": "newOwner",
          "type": "address"
        }
      ],
      "name": "OwnershipTransferred",
      "type": "event"
    },
    {
      "anonymous": false,
      "inputs": [
        {
          "indexed": true,
          "internalType": "address",
          "name": "from",
          "type": "address"
        },
        {
          "indexed": true,
          "internalType": "address",
          "name": "to",
          "type": "address"
        },
        {
          "indexed": false,
          "internalType": "uint256",
          "name": "value",
          "type": "uint256"
        }
      ],
      "name": "Transfer",
      "type": "event"
    },
    {
      "anonymous": false,
      "inputs": [
        {
          "indexed": true,
          "internalType": "address",
          "name": "provider",
          "type": "address"
        },
        {
          "indexed": false,
          "internalType": "bool",
          "name": "set",
          "type": "bool"
        }
      ],
      "name": "UpdateProvider",
      "type": "event"
    },
    {
      "anonymous": false,
      "inputs": [
        {
          "indexed": true,
          "internalType": "address",
          "name": "_account",
          "type": "address"
        },
        {
          "indexed": true,
          "internalType": "uint256",
          "name": "_amount",
          "type": "uint256"
        },
        {
          "indexed": true,
          "internalType": "uint256",
          "name": "_timestamp",
          "type": "uint256"
        }
      ],
      "name": "Withdraw",
      "type": "event"
    },
    {
      "inputs": [
        {
          "internalType": "uint256",
          "name": "_reward",
          "type": "uint256"
        }
      ],
      "name": "addReward",
      "outputs": [],
      "stateMutability": "nonpayable",
      "type": "function"
    },
    {
      "inputs": [
        {
          "internalType": "address",
          "name": "owner",
          "type": "address"
        },
        {
          "internalType": "address",
          "name": "spender",
          "type": "address"
        }
      ],
      "name": "allowance",
      "outputs": [
        {
          "internalType": "uint256",
          "name": "",
          "type": "uint256"
        }
      ],
      "stateMutability": "view",
      "type": "function"
    },
    {
      "inputs": [
        {
          "internalType": "address",
          "name": "spender",
          "type": "address"
        },
        {
          "internalType": "uint256",
          "name": "amount",
          "type": "uint256"
        }
      ],
      "name": "approve",
      "outputs": [
        {
          "internalType": "bool",
          "name": "",
          "type": "bool"
        }
      ],
      "stateMutability": "nonpayable",
      "type": "function"
    },
    {
      "inputs": [],
      "name": "arbetToken",
      "outputs": [
        {
          "internalType": "contract IERC20Burnable",
          "name": "",
          "type": "address"
        }
      ],
      "stateMutability": "view",
      "type": "function"
    },
    {
      "inputs": [
        {
          "internalType": "address",
          "name": "account",
          "type": "address"
        }
      ],
      "name": "balanceOf",
      "outputs": [
        {
          "internalType": "uint256",
          "name": "",
          "type": "uint256"
        }
      ],
      "stateMutability": "view",
      "type": "function"
    },
    {
      "inputs": [],
      "name": "claimReward",
      "outputs": [],
      "stateMutability": "nonpayable",
      "type": "function"
    },
    {
      "inputs": [],
      "name": "decimals",
      "outputs": [
        {
          "internalType": "uint8",
          "name": "",
          "type": "uint8"
        }
      ],
      "stateMutability": "view",
      "type": "function"
    },
    {
      "inputs": [
        {
          "internalType": "address",
          "name": "spender",
          "type": "address"
        },
        {
          "internalType": "uint256",
          "name": "subtractedValue",
          "type": "uint256"
        }
      ],
      "name": "decreaseAllowance",
      "outputs": [
        {
          "internalType": "bool",
          "name": "",
          "type": "bool"
        }
      ],
      "stateMutability": "nonpayable",
      "type": "function"
    },
    {
      "inputs": [
        {
          "internalType": "address",
          "name": "_account",
          "type": "address"
        }
      ],
      "name": "getDepositedAmount",
      "outputs": [
        {
          "internalType": "uint256",
          "name": "",
          "type": "uint256"
        }
      ],
      "stateMutability": "view",
      "type": "function"
    },
    {
      "inputs": [
        {
          "internalType": "address",
          "name": "_account",
          "type": "address"
        }
      ],
      "name": "getEarningsClaimedByAccount",
      "outputs": [
        {
          "internalType": "uint256",
          "name": "",
          "type": "uint256"
        }
      ],
      "stateMutability": "view",
      "type": "function"
    },
    {
      "inputs": [
        {
          "internalType": "address",
          "name": "_account",
          "type": "address"
        }
      ],
      "name": "getPendingReward",
      "outputs": [
        {
          "internalType": "uint256",
          "name": "",
          "type": "uint256"
        }
      ],
      "stateMutability": "view",
      "type": "function"
    },
    {
      "inputs": [
        {
          "internalType": "address",
          "name": "spender",
          "type": "address"
        },
        {
          "internalType": "uint256",
          "name": "addedValue",
          "type": "uint256"
        }
      ],
      "name": "increaseAllowance",
      "outputs": [
        {
          "internalType": "bool",
          "name": "",
          "type": "bool"
        }
      ],
      "stateMutability": "nonpayable",
      "type": "function"
    },
    {
      "inputs": [],
      "name": "name",
      "outputs": [
        {
          "internalType": "string",
          "name": "",
          "type": "string"
        }
      ],
      "stateMutability": "view",
      "type": "function"
    },
    {
      "inputs": [],
      "name": "owner",
      "outputs": [
        {
          "internalType": "address",
          "name": "",
          "type": "address"
        }
      ],
      "stateMutability": "view",
      "type": "function"
    },
    {
      "inputs": [],
      "name": "renounceOwnership",
      "outputs": [],
      "stateMutability": "nonpayable",
      "type": "function"
    },
    {
      "inputs": [
        {
          "internalType": "address",
          "name": "_newContract",
          "type": "address"
        }
      ],
      "name": "setStakingContract",
      "outputs": [],
      "stateMutability": "nonpayable",
      "type": "function"
    },
    {
      "inputs": [
        {
          "internalType": "address",
          "name": "_newUSDT",
          "type": "address"
        }
      ],
      "name": "setUSDTToken",
      "outputs": [],
      "stateMutability": "nonpayable",
      "type": "function"
    },
    {
      "inputs": [
        {
          "internalType": "uint256",
          "name": "_amount",
          "type": "uint256"
        }
      ],
      "name": "stake",
      "outputs": [],
      "stateMutability": "nonpayable",
      "type": "function"
    },
    {
      "inputs": [],
      "name": "symbol",
      "outputs": [
        {
          "internalType": "string",
          "name": "",
          "type": "string"
        }
      ],
      "stateMutability": "view",
      "type": "function"
    },
    {
      "inputs": [],
      "name": "totalSupply",
      "outputs": [
        {
          "internalType": "uint256",
          "name": "",
          "type": "uint256"
        }
      ],
      "stateMutability": "view",
      "type": "function"
    },
    {
      "inputs": [
        {
          "internalType": "address",
          "name": "to",
          "type": "address"
        },
        {
          "internalType": "uint256",
          "name": "amount",
          "type": "uint256"
        }
      ],
      "name": "transfer",
      "outputs": [
        {
          "internalType": "bool",
          "name": "",
          "type": "bool"
        }
      ],
      "stateMutability": "nonpayable",
      "type": "function"
    },
    {
      "inputs": [
        {
          "internalType": "address",
          "name": "from",
          "type": "address"
        },
        {
          "internalType": "address",
          "name": "to",
          "type": "address"
        },
        {
          "internalType": "uint256",
          "name": "amount",
          "type": "uint256"
        }
      ],
      "name": "transferFrom",
      "outputs": [
        {
          "internalType": "bool",
          "name": "",
          "type": "bool"
        }
      ],
      "stateMutability": "nonpayable",
      "type": "function"
    },
    {
      "inputs": [
        {
          "internalType": "address",
          "name": "newOwner",
          "type": "address"
        }
      ],
      "name": "transferOwnership",
      "outputs": [],
      "stateMutability": "nonpayable",
      "type": "function"
    },
    {
      "inputs": [
        {
          "internalType": "uint256",
          "name": "_amount",
          "type": "uint256"
        }
      ],
      "name": "unstake",
      "outputs": [],
      "stateMutability": "nonpayable",
      "type": "function"
    },
    {
      "inputs": [
        {
          "internalType": "address",
          "name": "provider",
          "type": "address"
        },
        {
          "internalType": "bool",
          "name": "set",
          "type": "bool"
        }
      ],
      "name": "updateProvider",
      "outputs": [],
      "stateMutability": "nonpayable",
      "type": "function"
    },
    {
      "inputs": [],
      "name": "usdtToken",
      "outputs": [
        {
          "internalType": "contract IERC20",
          "name": "",
          "type": "address"
        }
      ],
      "stateMutability": "view",
      "type": "function"
    }
  ],
  "bytecode": "0x60806040523480156200001157600080fd5b5060405162001db438038062001db48339810160408190526200003491620001e5565b81818181600362000046838262000304565b50600462000055828262000304565b505050620000726200006c620000ad60201b60201c565b620000b1565b5050600b80546001600160a01b039586166001600160a01b031991821617909155600a80549490951693169290921790925550620003d09050565b3390565b600580546001600160a01b038381166001600160a01b0319831681179093556040519116919082907f8be0079c531659141344cd1fd0a4f28419497f9722a3daafe3b4186f6b6457e090600090a35050565b80516001600160a01b03811681146200011b57600080fd5b919050565b634e487b7160e01b600052604160045260246000fd5b600082601f8301126200014857600080fd5b81516001600160401b038082111562000165576200016562000120565b604051601f8301601f19908116603f0116810190828211818310171562000190576200019062000120565b81604052838152602092508683858801011115620001ad57600080fd5b600091505b83821015620001d15785820183015181830184015290820190620001b2565b600093810190920192909252949350505050565b60008060008060808587031215620001fc57600080fd5b620002078562000103565b9350620002176020860162000103565b60408601519093506001600160401b03808211156200023557600080fd5b620002438883890162000136565b935060608701519150808211156200025a57600080fd5b50620002698782880162000136565b91505092959194509250565b600181811c908216806200028a57607f821691505b602082108103620002ab57634e487b7160e01b600052602260045260246000fd5b50919050565b601f821115620002ff57600081815260208120601f850160051c81016020861015620002da5750805b601f850160051c820191505b81811015620002fb57828155600101620002e6565b5050505b505050565b81516001600160401b0381111562000320576200032062000120565b620003388162000331845462000275565b84620002b1565b602080601f831160018114620003705760008415620003575750858301515b600019600386901b1c1916600185901b178555620002fb565b600085815260208120601f198616915b82811015620003a15788860151825594840194600190910190840162000380565b5085821015620003c05787850151600019600388901b60f8161c191681555b5050505050600190811b01905550565b6119d480620003e06000396000f3fe608060405234801561001057600080fd5b506004361061018e5760003560e01c806374de4ec4116100de578063a694fc3a11610097578063b88a802f11610071578063b88a802f1461035f578063dd62ed3e14610367578063e9081ec71461037a578063f2fde38b1461038d57600080fd5b8063a694fc3a14610326578063a9059cbb14610339578063a98ad46c1461034c57600080fd5b806374de4ec4146102ad5780638da5cb5b146102c057806391124b7e146102e557806395d89b41146102f85780639dd373b914610300578063a457c2d71461031357600080fd5b80632e17de781161014b5780634df9d6ba116101255780634df9d6ba1461026c57806366e226bd1461027f57806370a0823114610292578063715018a6146102a557600080fd5b80632e17de7814610237578063313ce5671461024a578063395093511461025957600080fd5b806306fdde0314610193578063095ea7b3146101b157806318160ddd146101d457806320d054fc146101e657806323b872dd1461020f57806329d0b28e14610222575b600080fd5b61019b6103a0565b6040516101a8919061173d565b60405180910390f35b6101c46101bf3660046117a7565b610432565b60405190151581526020016101a8565b6002545b6040519081526020016101a8565b6101d86101f43660046117d1565b6001600160a01b031660009081526008602052604090205490565b6101c461021d3660046117ec565b61044c565b610235610230366004611836565b610470565b005b61023561024536600461186d565b6104d7565b604051601281526020016101a8565b6101c46102673660046117a7565b61059f565b6101d861027a3660046117d1565b6105c1565b61023561028d3660046117d1565b610637565b6101d86102a03660046117d1565b6106eb565b610235610706565b6102356102bb36600461186d565b61071a565b6005546001600160a01b03165b6040516001600160a01b0390911681526020016101a8565b600b546102cd906001600160a01b031681565b61019b6107f0565b61023561030e3660046117d1565b6107ff565b6101c46103213660046117a7565b6108b3565b61023561033436600461186d565b61092e565b6101c46103473660046117a7565b610d39565b600a546102cd906001600160a01b031681565b610235610d47565b6101d8610375366004611886565b610d77565b6101d86103883660046117d1565b610da2565b61023561039b3660046117d1565b610dad565b6060600380546103af906118b9565b80601f01602080910402602001604051908101604052809291908181526020018280546103db906118b9565b80156104285780601f106103fd57610100808354040283529160200191610428565b820191906000526020600020905b81548152906001019060200180831161040b57829003601f168201915b5050505050905090565b600033610440818585610e23565b60019150505b92915050565b60003361045a858285610f47565b610465858585610fbb565b506001949350505050565b61047861115f565b6001600160a01b038216600081815260096020908152604091829020805460ff191685151590811790915591519182527f39277ba45b2b30ba85884b2cd925b0472b583693ef8e63c413061c1896648fb2910160405180910390a25050565b336104e1816106eb565b82111561051957816104f2826106eb565b604051631db8cc4960e01b8152600481019290925260248201526044015b60405180910390fd5b600b5460405163a9059cbb60e01b81526001600160a01b038381166004830152602482018590529091169063a9059cbb906044016020604051808303816000875af115801561056c573d6000803e3d6000fd5b505050506040513d601f19601f8201168201806040525081019061059091906118f3565b5061059b81836111b9565b5050565b6000336104408185856105b28383610d77565b6105bc9190611926565b610e23565b6001600160a01b038116600090815260086020526040812060065482906ec097ce7bc90715b34b9f1000000000906105f8866106eb565b6106029190611939565b61060c9190611950565b90508160010154811161062057600061062f565b600182015461062f9082611972565b949350505050565b61063f61115f565b600a546001600160a01b0380831691160361068a5760405162461bcd60e51b815260206004820152600b60248201526a105b1c9958591e4814d95d60aa1b6044820152606401610510565b600254156106c95760405162461bcd60e51b815260206004820152600c60248201526b14dd1a5b1b0814dd185ad95960a21b6044820152606401610510565b600a80546001600160a01b0319166001600160a01b0392909216919091179055565b6001600160a01b031660009081526020819052604090205490565b61070e61115f565b6107186000611293565b565b3360009081526009602052604090205460ff166107685760405162461bcd60e51b815260206004820152600c60248201526b2737ba10283937bb34b232b960a11b6044820152606401610510565b600a546040516323b872dd60e01b8152336004820152306024820152604481018390526001600160a01b03909116906323b872dd906064016020604051808303816000875af11580156107bf573d6000803e3d6000fd5b505050506040513d601f19601f820116820180604052508101906107e391906118f3565b506107ed816112e5565b50565b6060600480546103af906118b9565b61080761115f565b600b546001600160a01b038083169116036108525760405162461bcd60e51b815260206004820152600b60248201526a105b1c9958591e4814d95d60aa1b6044820152606401610510565b600254156108915760405162461bcd60e51b815260206004820152600c60248201526b14dd1a5b1b0814dd185ad95960a21b6044820152606401610510565b600b80546001600160a01b0319166001600160a01b0392909216919091179055565b600033816108c18286610d77565b9050838110156109215760405162461bcd60e51b815260206004820152602560248201527f45524332303a2064656372656173656420616c6c6f77616e63652062656c6f77604482015264207a65726f60d81b6064820152608401610510565b6104658286868403610e23565b338161096f5760405162461bcd60e51b815260206004820152601060248201526f4e6f7468696e6720746f207374616b6560801b6044820152606401610510565b600b546040516370a0823160e01b81526001600160a01b038381166004830152909116906370a0823190602401602060405180830381865afa1580156109b9573d6000803e3d6000fd5b505050506040513d601f19601f820116820180604052508101906109dd9190611985565b821115610a7457600b546040516370a0823160e01b81526001600160a01b038381166004830152849216906370a0823190602401602060405180830381865afa158015610a2e573d6000803e3d6000fd5b505050506040513d601f19601f82011682018060405250810190610a529190611985565b604051630aaf0d2d60e01b815260048101929092526024820152604401610510565b600b54604051636eb1769f60e11b81526001600160a01b0383811660048301523060248301529091169063dd62ed3e90604401602060405180830381865afa158015610ac4573d6000803e3d6000fd5b505050506040513d601f19601f82011682018060405250810190610ae89190611985565b821115610b8557600b54604051636eb1769f60e11b81526001600160a01b0383811660048301523060248301528492169063dd62ed3e90604401602060405180830381865afa158015610b3f573d6000803e3d6000fd5b505050506040513d601f19601f82011682018060405250810190610b639190611985565b604051639bf9a77b60e01b815260048101929092526024820152604401610510565b600b546040516370a0823160e01b81523060048201526000916001600160a01b0316906370a0823190602401602060405180830381865afa158015610bce573d6000803e3d6000fd5b505050506040513d601f19601f82011682018060405250810190610bf29190611985565b600b546040516323b872dd60e01b81526001600160a01b038581166004830152306024830152604482018790529293509116906323b872dd906064016020604051808303816000875af1158015610c4d573d6000803e3d6000fd5b505050506040513d601f19601f82011682018060405250810190610c7191906118f3565b50600b546040516370a0823160e01b81523060048201526000916001600160a01b0316906370a0823190602401602060405180830381865afa158015610cbb573d6000803e3d6000fd5b505050506040513d601f19601f82011682018060405250810190610cdf9190611985565b9050818111610d205760405162461bcd60e51b815260206004820152600d60248201526c5a65726f20746f207374616b6560981b6044820152606401610510565b610d3383610d2e8484611972565b611370565b50505050565b600033610440818585610fbb565b6000610d523361141e565b9050806000036107ed57604051632509371560e11b8152336004820152602401610510565b6001600160a01b03918216600090815260016020908152604080832093909416825291909152205490565b6000610446826106eb565b610db561115f565b6001600160a01b038116610e1a5760405162461bcd60e51b815260206004820152602660248201527f4f776e61626c653a206e6577206f776e657220697320746865207a65726f206160448201526564647265737360d01b6064820152608401610510565b6107ed81611293565b6001600160a01b038316610e855760405162461bcd60e51b8152602060048201526024808201527f45524332303a20617070726f76652066726f6d20746865207a65726f206164646044820152637265737360e01b6064820152608401610510565b6001600160a01b038216610ee65760405162461bcd60e51b815260206004820152602260248201527f45524332303a20617070726f766520746f20746865207a65726f206164647265604482015261737360f01b6064820152608401610510565b6001600160a01b0383811660008181526001602090815260408083209487168084529482529182902085905590518481527f8c5be1e5ebec7d5bd14f71427d1e84f3dd0314c0f7b2291e5b200ac8c7c3b925910160405180910390a3505050565b6000610f538484610d77565b90506000198114610d335781811015610fae5760405162461bcd60e51b815260206004820152601d60248201527f45524332303a20696e73756666696369656e7420616c6c6f77616e63650000006044820152606401610510565b610d338484848403610e23565b6001600160a01b03831661101f5760405162461bcd60e51b815260206004820152602560248201527f45524332303a207472616e736665722066726f6d20746865207a65726f206164604482015264647265737360d81b6064820152608401610510565b6001600160a01b0382166110815760405162461bcd60e51b815260206004820152602360248201527f45524332303a207472616e7366657220746f20746865207a65726f206164647260448201526265737360e81b6064820152608401610510565b6001600160a01b038316600090815260208190526040902054818110156110f95760405162461bcd60e51b815260206004820152602660248201527f45524332303a207472616e7366657220616d6f756e7420657863656564732062604482015265616c616e636560d01b6064820152608401610510565b6001600160a01b03848116600081815260208181526040808320878703905593871680835291849020805487019055925185815290927fddf252ad1be2c89b69c2b068fc378daa952ba7f163c4a11628f55a4df523b3ef910160405180910390a3610d33565b6005546001600160a01b031633146107185760405162461bcd60e51b815260206004820181905260248201527f4f776e61626c653a2063616c6c6572206973206e6f7420746865206f776e65726044820152606401610510565b6111c28261141e565b506001600160a01b0382166000908152600860205260408120906111e5846106eb565b90508083111561121257604051632edd9e6760e11b81526004810182905260248101849052604401610510565b61121c8382611972565b90506ec097ce7bc90715b34b9f10000000006006548261123c9190611939565b6112469190611950565b600183015561125584846114b0565b4283856001600160a01b03167ff279e6a1f5e320cca91135676d9cb6e44ca8a08c0b88342bcdb1144f6511b56860405160405180910390a450505050565b600580546001600160a01b038381166001600160a01b0319831681179093556040519116919082907f8be0079c531659141344cd1fd0a4f28419497f9722a3daafe3b4186f6b6457e090600090a35050565b60006112f060025490565b9050801561135557600754156113155760075461130d9083611926565b600060075591505b8061132f836ec097ce7bc90715b34b9f1000000000611939565b6113399190611950565b6006600082825461134a9190611926565b9091555061059b9050565b81600760008282546113679190611926565b90915550505050565b6113798261141e565b506001600160a01b0382166000908152600860205260408120908261139d856106eb565b6113a79190611926565b90506ec097ce7bc90715b34b9f1000000000600654826113c79190611939565b6113d19190611950565b60018301556113e084846115e2565b4283856001600160a01b03167f90890809c654f11d6e72a28fa60149770a0d11ec6c92319d6ceb2bb0a4ea1a1560405160405180910390a450505050565b60008061142a836116a1565b9050801561044657600a5460405163a9059cbb60e01b81526001600160a01b038581166004830152602482018490529091169063a9059cbb906044016020604051808303816000875af1158015611485573d6000803e3d6000fd5b505050506040513d601f19601f820116820180604052508101906114a991906118f3565b5092915050565b6001600160a01b0382166115105760405162461bcd60e51b815260206004820152602160248201527f45524332303a206275726e2066726f6d20746865207a65726f206164647265736044820152607360f81b6064820152608401610510565b6001600160a01b038216600090815260208190526040902054818110156115845760405162461bcd60e51b815260206004820152602260248201527f45524332303a206275726e20616d6f756e7420657863656564732062616c616e604482015261636560f01b6064820152608401610510565b6001600160a01b0383166000818152602081815260408083208686039055600280548790039055518581529192917fddf252ad1be2c89b69c2b068fc378daa952ba7f163c4a11628f55a4df523b3ef910160405180910390a3505050565b6001600160a01b0382166116385760405162461bcd60e51b815260206004820152601f60248201527f45524332303a206d696e7420746f20746865207a65726f2061646472657373006044820152606401610510565b806002600082825461164a9190611926565b90915550506001600160a01b038216600081815260208181526040808320805486019055518481527fddf252ad1be2c89b69c2b068fc378daa952ba7f163c4a11628f55a4df523b3ef910160405180910390a35050565b6001600160a01b0381166000908152600860205260408120816116c3846105c1565b9050801561173657808260010160008282546116df9190611926565b90915550508154819083906000906116f8908490611926565b9091555050604051429082906001600160a01b038716907f34fcbac0073d7c3d388e51312faf357774904998eeb8fca628b9e6f65ee1cbf790600090a45b9392505050565b600060208083528351808285015260005b8181101561176a5785810183015185820160400152820161174e565b506000604082860101526040601f19601f8301168501019250505092915050565b80356001600160a01b03811681146117a257600080fd5b919050565b600080604083850312156117ba57600080fd5b6117c38361178b565b946020939093013593505050565b6000602082840312156117e357600080fd5b6117368261178b565b60008060006060848603121561180157600080fd5b61180a8461178b565b92506118186020850161178b565b9150604084013590509250925092565b80151581146107ed57600080fd5b6000806040838503121561184957600080fd5b6118528361178b565b9150602083013561186281611828565b809150509250929050565b60006020828403121561187f57600080fd5b5035919050565b6000806040838503121561189957600080fd5b6118a28361178b565b91506118b06020840161178b565b90509250929050565b600181811c908216806118cd57607f821691505b6020821081036118ed57634e487b7160e01b600052602260045260246000fd5b50919050565b60006020828403121561190557600080fd5b815161173681611828565b634e487b7160e01b600052601160045260246000fd5b8082018082111561044657610446611910565b808202811582820484141761044657610446611910565b60008261196d57634e487b7160e01b600052601260045260246000fd5b500490565b8181038181111561044657610446611910565b60006020828403121561199757600080fd5b505191905056fea2646970667358221220bb716b2187776539772871e173089d570dd7ffa4a1f76c16e199afcf6a48b66c64736f6c63430008120033",
  "linkReferences": {},
  "deployedLinkReferences": {}
}