{
  "_format": "hh-sol-artifact-1",
  "contractName": "SHINO",
  "sourceName": "contracts/Shino.sol",
  "abi": [
    {
      "inputs": [
        {
          "internalType": "address",
          "name": "_router",
          "type": "address"
        },
        {
          "internalType": "string",
          "name": "_name",
          "type": "string"
        },
        {
          "internalType": "string",
          "name": "_symbol",
          "type": "string"
        }
      ],
      "stateMutability": "nonpayable",
      "type": "constructor"
    },
    {
      "anonymous": false,
      "inputs": [
        {
          "indexed": true,
          "internalType": "address",
          "name": "owner",
          "type": "address"
        },
        {
          "indexed": true,
          "internalType": "address",
          "name": "spender",
          "type": "address"
        },
        {
          "indexed": false,
          "internalType": "uint256",
          "name": "value",
          "type": "uint256"
        }
      ],
      "name": "Approval",
      "type": "event"
    },
    {
      "anonymous": false,
      "inputs": [],
      "name": "AutoNukeLP",
      "type": "event"
    },
    {
      "anonymous": false,
      "inputs": [
        {
          "indexed": true,
          "internalType": "address",
          "name": "sniper",
          "type": "address"
        }
      ],
      "name": "BoughtEarly",
      "type": "event"
    },
    {
      "anonymous": false,
      "inputs": [
        {
          "indexed": true,
          "internalType": "address",
          "name": "account",
          "type": "address"
        },
        {
          "indexed": false,
          "internalType": "bool",
          "name": "isExcluded",
          "type": "bool"
        }
      ],
      "name": "ExcludeFromFees",
      "type": "event"
    },
    {
      "anonymous": false,
      "inputs": [],
      "name": "ManualNukeLP",
      "type": "event"
    },
    {
      "anonymous": false,
      "inputs": [
        {
          "indexed": true,
          "internalType": "address",
          "name": "previousOwner",
          "type": "address"
        },
        {
          "indexed": true,
          "internalType": "address",
          "name": "newOwner",
          "type": "address"
        }
      ],
      "name": "OwnershipTransferred",
      "type": "event"
    },
    {
      "anonymous": false,
      "inputs": [
        {
          "indexed": true,
          "internalType": "address",
          "name": "pair",
          "type": "address"
        },
        {
          "indexed": true,
          "internalType": "bool",
          "name": "value",
          "type": "bool"
        }
      ],
      "name": "SetAutomatedMarketMakerPair",
      "type": "event"
    },
    {
      "anonymous": false,
      "inputs": [
        {
          "indexed": false,
          "internalType": "uint256",
          "name": "tokensSwapped",
          "type": "uint256"
        },
        {
          "indexed": false,
          "internalType": "uint256",
          "name": "ethReceived",
          "type": "uint256"
        },
        {
          "indexed": false,
          "internalType": "uint256",
          "name": "tokensIntoLiquidity",
          "type": "uint256"
        }
      ],
      "name": "SwapAndLiquify",
      "type": "event"
    },
    {
      "anonymous": false,
      "inputs": [
        {
          "indexed": true,
          "internalType": "address",
          "name": "from",
          "type": "address"
        },
        {
          "indexed": true,
          "internalType": "address",
          "name": "to",
          "type": "address"
        },
        {
          "indexed": false,
          "internalType": "uint256",
          "name": "value",
          "type": "uint256"
        }
      ],
      "name": "Transfer",
      "type": "event"
    },
    {
      "anonymous": false,
      "inputs": [
        {
          "indexed": true,
          "internalType": "address",
          "name": "newAddress",
          "type": "address"
        },
        {
          "indexed": true,
          "internalType": "address",
          "name": "oldAddress",
          "type": "address"
        }
      ],
      "name": "UpdateUniswapV2Router",
      "type": "event"
    },
    {
      "anonymous": false,
      "inputs": [
        {
          "indexed": true,
          "internalType": "address",
          "name": "newWallet",
          "type": "address"
        },
        {
          "indexed": true,
          "internalType": "address",
          "name": "oldWallet",
          "type": "address"
        }
      ],
      "name": "developmentWalletUpdated",
      "type": "event"
    },
    {
      "anonymous": false,
      "inputs": [
        {
          "indexed": true,
          "internalType": "address",
          "name": "newWallet",
          "type": "address"
        },
        {
          "indexed": true,
          "internalType": "address",
          "name": "oldWallet",
          "type": "address"
        }
      ],
      "name": "marketingWalletUpdated",
      "type": "event"
    },
    {
      "inputs": [
        {
          "internalType": "address",
          "name": "",
          "type": "address"
        }
      ],
      "name": "_isExcludedMaxTransactionAmount",
      "outputs": [
        {
          "internalType": "bool",
          "name": "",
          "type": "bool"
        }
      ],
      "stateMutability": "view",
      "type": "function"
    },
    {
      "inputs": [
        {
          "internalType": "address",
          "name": "owner",
          "type": "address"
        },
        {
          "internalType": "address",
          "name": "spender",
          "type": "address"
        }
      ],
      "name": "allowance",
      "outputs": [
        {
          "internalType": "uint256",
          "name": "",
          "type": "uint256"
        }
      ],
      "stateMutability": "view",
      "type": "function"
    },
    {
      "inputs": [
        {
          "internalType": "address",
          "name": "spender",
          "type": "address"
        },
        {
          "internalType": "uint256",
          "name": "amount",
          "type": "uint256"
        }
      ],
      "name": "approve",
      "outputs": [
        {
          "internalType": "bool",
          "name": "",
          "type": "bool"
        }
      ],
      "stateMutability": "nonpayable",
      "type": "function"
    },
    {
      "inputs": [
        {
          "internalType": "address",
          "name": "",
          "type": "address"
        }
      ],
      "name": "automatedMarketMakerPairs",
      "outputs": [
        {
          "internalType": "bool",
          "name": "",
          "type": "bool"
        }
      ],
      "stateMutability": "view",
      "type": "function"
    },
    {
      "inputs": [
        {
          "internalType": "address",
          "name": "account",
          "type": "address"
        }
      ],
      "name": "balanceOf",
      "outputs": [
        {
          "internalType": "uint256",
          "name": "",
          "type": "uint256"
        }
      ],
      "stateMutability": "view",
      "type": "function"
    },
    {
      "inputs": [],
      "name": "buyDevelopmentFee",
      "outputs": [
        {
          "internalType": "uint256",
          "name": "",
          "type": "uint256"
        }
      ],
      "stateMutability": "view",
      "type": "function"
    },
    {
      "inputs": [],
      "name": "buyLiquidityFee",
      "outputs": [
        {
          "internalType": "uint256",
          "name": "",
          "type": "uint256"
        }
      ],
      "stateMutability": "view",
      "type": "function"
    },
    {
      "inputs": [],
      "name": "buyMarketingFee",
      "outputs": [
        {
          "internalType": "uint256",
          "name": "",
          "type": "uint256"
        }
      ],
      "stateMutability": "view",
      "type": "function"
    },
    {
      "inputs": [],
      "name": "buyTotalFees",
      "outputs": [
        {
          "internalType": "uint256",
          "name": "",
          "type": "uint256"
        }
      ],
      "stateMutability": "view",
      "type": "function"
    },
    {
      "inputs": [],
      "name": "deadAddress",
      "outputs": [
        {
          "internalType": "address",
          "name": "",
          "type": "address"
        }
      ],
      "stateMutability": "view",
      "type": "function"
    },
    {
      "inputs": [],
      "name": "decimals",
      "outputs": [
        {
          "internalType": "uint8",
          "name": "",
          "type": "uint8"
        }
      ],
      "stateMutability": "view",
      "type": "function"
    },
    {
      "inputs": [
        {
          "internalType": "address",
          "name": "spender",
          "type": "address"
        },
        {
          "internalType": "uint256",
          "name": "subtractedValue",
          "type": "uint256"
        }
      ],
      "name": "decreaseAllowance",
      "outputs": [
        {
          "internalType": "bool",
          "name": "",
          "type": "bool"
        }
      ],
      "stateMutability": "nonpayable",
      "type": "function"
    },
    {
      "inputs": [],
      "name": "disableTransferDelay",
      "outputs": [
        {
          "internalType": "bool",
          "name": "",
          "type": "bool"
        }
      ],
      "stateMutability": "nonpayable",
      "type": "function"
    },
    {
      "inputs": [],
      "name": "enableTrading",
      "outputs": [],
      "stateMutability": "nonpayable",
      "type": "function"
    },
    {
      "inputs": [
        {
          "internalType": "address",
          "name": "account",
          "type": "address"
        },
        {
          "internalType": "bool",
          "name": "excluded",
          "type": "bool"
        }
      ],
      "name": "excludeFromFees",
      "outputs": [],
      "stateMutability": "nonpayable",
      "type": "function"
    },
    {
      "inputs": [
        {
          "internalType": "address",
          "name": "updAds",
          "type": "address"
        },
        {
          "internalType": "bool",
          "name": "isEx",
          "type": "bool"
        }
      ],
      "name": "excludeFromMaxTransaction",
      "outputs": [],
      "stateMutability": "nonpayable",
      "type": "function"
    },
    {
      "inputs": [
        {
          "internalType": "address",
          "name": "spender",
          "type": "address"
        },
        {
          "internalType": "uint256",
          "name": "addedValue",
          "type": "uint256"
        }
      ],
      "name": "increaseAllowance",
      "outputs": [
        {
          "internalType": "bool",
          "name": "",
          "type": "bool"
        }
      ],
      "stateMutability": "nonpayable",
      "type": "function"
    },
    {
      "inputs": [
        {
          "internalType": "address",
          "name": "account",
          "type": "address"
        }
      ],
      "name": "isExcludedFromFees",
      "outputs": [
        {
          "internalType": "bool",
          "name": "",
          "type": "bool"
        }
      ],
      "stateMutability": "view",
      "type": "function"
    },
    {
      "inputs": [],
      "name": "lastLpBurnTime",
      "outputs": [
        {
          "internalType": "uint256",
          "name": "",
          "type": "uint256"
        }
      ],
      "stateMutability": "view",
      "type": "function"
    },
    {
      "inputs": [],
      "name": "lastManualLpBurnTime",
      "outputs": [
        {
          "internalType": "uint256",
          "name": "",
          "type": "uint256"
        }
      ],
      "stateMutability": "view",
      "type": "function"
    },
    {
      "inputs": [],
      "name": "limitsInEffect",
      "outputs": [
        {
          "internalType": "bool",
          "name": "",
          "type": "bool"
        }
      ],
      "stateMutability": "view",
      "type": "function"
    },
    {
      "inputs": [],
      "name": "lpBurnEnabled",
      "outputs": [
        {
          "internalType": "bool",
          "name": "",
          "type": "bool"
        }
      ],
      "stateMutability": "view",
      "type": "function"
    },
    {
      "inputs": [],
      "name": "lpBurnFrequency",
      "outputs": [
        {
          "internalType": "uint256",
          "name": "",
          "type": "uint256"
        }
      ],
      "stateMutability": "view",
      "type": "function"
    },
    {
      "inputs": [],
      "name": "manualBurnFrequency",
      "outputs": [
        {
          "internalType": "uint256",
          "name": "",
          "type": "uint256"
        }
      ],
      "stateMutability": "view",
      "type": "function"
    },
    {
      "inputs": [
        {
          "internalType": "uint256",
          "name": "percent",
          "type": "uint256"
        }
      ],
      "name": "manualBurnLiquidityPairTokens",
      "outputs": [
        {
          "internalType": "bool",
          "name": "",
          "type": "bool"
        }
      ],
      "stateMutability": "nonpayable",
      "type": "function"
    },
    {
      "inputs": [],
      "name": "maxTransactionAmount",
      "outputs": [
        {
          "internalType": "uint256",
          "name": "",
          "type": "uint256"
        }
      ],
      "stateMutability": "view",
      "type": "function"
    },
    {
      "inputs": [],
      "name": "maxWallet",
      "outputs": [
        {
          "internalType": "uint256",
          "name": "",
          "type": "uint256"
        }
      ],
      "stateMutability": "view",
      "type": "function"
    },
    {
      "inputs": [],
      "name": "name",
      "outputs": [
        {
          "internalType": "string",
          "name": "",
          "type": "string"
        }
      ],
      "stateMutability": "view",
      "type": "function"
    },
    {
      "inputs": [],
      "name": "owner",
      "outputs": [
        {
          "internalType": "address",
          "name": "",
          "type": "address"
        }
      ],
      "stateMutability": "view",
      "type": "function"
    },
    {
      "inputs": [],
      "name": "percentForLPBurn",
      "outputs": [
        {
          "internalType": "uint256",
          "name": "",
          "type": "uint256"
        }
      ],
      "stateMutability": "view",
      "type": "function"
    },
    {
      "inputs": [],
      "name": "removeLimits",
      "outputs": [
        {
          "internalType": "bool",
          "name": "",
          "type": "bool"
        }
      ],
      "stateMutability": "nonpayable",
      "type": "function"
    },
    {
      "inputs": [],
      "name": "renounceOwnership",
      "outputs": [],
      "stateMutability": "nonpayable",
      "type": "function"
    },
    {
      "inputs": [],
      "name": "sellDevelopmentFee",
      "outputs": [
        {
          "internalType": "uint256",
          "name": "",
          "type": "uint256"
        }
      ],
      "stateMutability": "view",
      "type": "function"
    },
    {
      "inputs": [],
      "name": "sellLiquidityFee",
      "outputs": [
        {
          "internalType": "uint256",
          "name": "",
          "type": "uint256"
        }
      ],
      "stateMutability": "view",
      "type": "function"
    },
    {
      "inputs": [],
      "name": "sellMarketingFee",
      "outputs": [
        {
          "internalType": "uint256",
          "name": "",
          "type": "uint256"
        }
      ],
      "stateMutability": "view",
      "type": "function"
    },
    {
      "inputs": [],
      "name": "sellTotalFees",
      "outputs": [
        {
          "internalType": "uint256",
          "name": "",
          "type": "uint256"
        }
      ],
      "stateMutability": "view",
      "type": "function"
    },
    {
      "inputs": [
        {
          "internalType": "uint256",
          "name": "_frequencyInSeconds",
          "type": "uint256"
        },
        {
          "internalType": "uint256",
          "name": "_percent",
          "type": "uint256"
        },
        {
          "internalType": "bool",
          "name": "_Enabled",
          "type": "bool"
        }
      ],
      "name": "setAutoLPBurnSettings",
      "outputs": [],
      "stateMutability": "nonpayable",
      "type": "function"
    },
    {
      "inputs": [
        {
          "internalType": "address",
          "name": "pair",
          "type": "address"
        },
        {
          "internalType": "bool",
          "name": "value",
          "type": "bool"
        }
      ],
      "name": "setAutomatedMarketMakerPair",
      "outputs": [],
      "stateMutability": "nonpayable",
      "type": "function"
    },
    {
      "inputs": [],
      "name": "swapEnabled",
      "outputs": [
        {
          "internalType": "bool",
          "name": "",
          "type": "bool"
        }
      ],
      "stateMutability": "view",
      "type": "function"
    },
    {
      "inputs": [],
      "name": "swapTokensAtAmount",
      "outputs": [
        {
          "internalType": "uint256",
          "name": "",
          "type": "uint256"
        }
      ],
      "stateMutability": "view",
      "type": "function"
    },
    {
      "inputs": [],
      "name": "symbol",
      "outputs": [
        {
          "internalType": "string",
          "name": "",
          "type": "string"
        }
      ],
      "stateMutability": "view",
      "type": "function"
    },
    {
      "inputs": [],
      "name": "tokensForDev",
      "outputs": [
        {
          "internalType": "uint256",
          "name": "",
          "type": "uint256"
        }
      ],
      "stateMutability": "view",
      "type": "function"
    },
    {
      "inputs": [],
      "name": "tokensForLiquidity",
      "outputs": [
        {
          "internalType": "uint256",
          "name": "",
          "type": "uint256"
        }
      ],
      "stateMutability": "view",
      "type": "function"
    },
    {
      "inputs": [],
      "name": "tokensForMarketing",
      "outputs": [
        {
          "internalType": "uint256",
          "name": "",
          "type": "uint256"
        }
      ],
      "stateMutability": "view",
      "type": "function"
    },
    {
      "inputs": [],
      "name": "totalSupply",
      "outputs": [
        {
          "internalType": "uint256",
          "name": "",
          "type": "uint256"
        }
      ],
      "stateMutability": "view",
      "type": "function"
    },
    {
      "inputs": [],
      "name": "tradingActive",
      "outputs": [
        {
          "internalType": "bool",
          "name": "",
          "type": "bool"
        }
      ],
      "stateMutability": "view",
      "type": "function"
    },
    {
      "inputs": [
        {
          "internalType": "address",
          "name": "to",
          "type": "address"
        },
        {
          "internalType": "uint256",
          "name": "amount",
          "type": "uint256"
        }
      ],
      "name": "transfer",
      "outputs": [
        {
          "internalType": "bool",
          "name": "",
          "type": "bool"
        }
      ],
      "stateMutability": "nonpayable",
      "type": "function"
    },
    {
      "inputs": [],
      "name": "transferDelayEnabled",
      "outputs": [
        {
          "internalType": "bool",
          "name": "",
          "type": "bool"
        }
      ],
      "stateMutability": "view",
      "type": "function"
    },
    {
      "inputs": [
        {
          "internalType": "address",
          "name": "from",
          "type": "address"
        },
        {
          "internalType": "address",
          "name": "to",
          "type": "address"
        },
        {
          "internalType": "uint256",
          "name": "amount",
          "type": "uint256"
        }
      ],
      "name": "transferFrom",
      "outputs": [
        {
          "internalType": "bool",
          "name": "",
          "type": "bool"
        }
      ],
      "stateMutability": "nonpayable",
      "type": "function"
    },
    {
      "inputs": [
        {
          "internalType": "address",
          "name": "newOwner",
          "type": "address"
        }
      ],
      "name": "transferOwnership",
      "outputs": [],
      "stateMutability": "nonpayable",
      "type": "function"
    },
    {
      "inputs": [],
      "name": "uniswapV2Pair",
      "outputs": [
        {
          "internalType": "address",
          "name": "",
          "type": "address"
        }
      ],
      "stateMutability": "view",
      "type": "function"
    },
    {
      "inputs": [],
      "name": "uniswapV2Router",
      "outputs": [
        {
          "internalType": "contract IPancakeRouter02",
          "name": "",
          "type": "address"
        }
      ],
      "stateMutability": "view",
      "type": "function"
    },
    {
      "inputs": [
        {
          "internalType": "uint256",
          "name": "_marketingFee",
          "type": "uint256"
        },
        {
          "internalType": "uint256",
          "name": "_liquidityFee",
          "type": "uint256"
        },
        {
          "internalType": "uint256",
          "name": "_developmentFee",
          "type": "uint256"
        }
      ],
      "name": "updateBuyFees",
      "outputs": [],
      "stateMutability": "nonpayable",
      "type": "function"
    },
    {
      "inputs": [
        {
          "internalType": "address",
          "name": "newWallet",
          "type": "address"
        }
      ],
      "name": "updateDevelopmentWalletInfo",
      "outputs": [],
      "stateMutability": "nonpayable",
      "type": "function"
    },
    {
      "inputs": [
        {
          "internalType": "address",
          "name": "newMarketingWallet",
          "type": "address"
        }
      ],
      "name": "updateMarketingWalletInfo",
      "outputs": [],
      "stateMutability": "nonpayable",
      "type": "function"
    },
    {
      "inputs": [
        {
          "internalType": "uint256",
          "name": "newNum",
          "type": "uint256"
        }
      ],
      "name": "updateMaxTxnAmount",
      "outputs": [],
      "stateMutability": "nonpayable",
      "type": "function"
    },
    {
      "inputs": [
        {
          "internalType": "uint256",
          "name": "newNum",
          "type": "uint256"
        }
      ],
      "name": "updateMaxWalletAmount",
      "outputs": [],
      "stateMutability": "nonpayable",
      "type": "function"
    },
    {
      "inputs": [
        {
          "internalType": "uint256",
          "name": "_marketingFee",
          "type": "uint256"
        },
        {
          "internalType": "uint256",
          "name": "_liquidityFee",
          "type": "uint256"
        },
        {
          "internalType": "uint256",
          "name": "_developmentFee",
          "type": "uint256"
        }
      ],
      "name": "updateSellFees",
      "outputs": [],
      "stateMutability": "nonpayable",
      "type": "function"
    },
    {
      "inputs": [
        {
          "internalType": "bool",
          "name": "enabled",
          "type": "bool"
        }
      ],
      "name": "updateSwapEnabled",
      "outputs": [],
      "stateMutability": "nonpayable",
      "type": "function"
    },
    {
      "inputs": [
        {
          "internalType": "uint256",
          "name": "newAmount",
          "type": "uint256"
        }
      ],
      "name": "updateSwapTokensAtAmount",
      "outputs": [
        {
          "internalType": "bool",
          "name": "",
          "type": "bool"
        }
      ],
      "stateMutability": "nonpayable",
      "type": "function"
    },
    {
      "stateMutability": "payable",
      "type": "receive"
    }
  ],
  "bytecode": "0x60c06040526000600b55600c805460ff19908116909155610e10600d55610708600f556011805462ffffff1916620100011790556013805490911660011790553480156200004c57600080fd5b5060405162003838380380620038388339810160408190526200006f916200071d565b818160036200007f838262000828565b5060046200008e828262000828565b505050620000ab620000a5620003ca60201b60201c565b620003ce565b82620000b981600162000420565b6001600160a01b03811660808190526040805163c45a015560e01b8152905163c45a0155916004808201926020929091908290030181865afa15801562000104573d6000803e3d6000fd5b505050506040513d601f19601f820116820180604052508101906200012a9190620008f4565b6001600160a01b031663c9c6539630836001600160a01b031663ad5c46486040518163ffffffff1660e01b8152600401602060405180830381865afa15801562000178573d6000803e3d6000fd5b505050506040513d601f19601f820116820180604052508101906200019e9190620008f4565b6040516001600160e01b031960e085901b1681526001600160a01b039283166004820152911660248201526044016020604051808303816000875af1158015620001ec573d6000803e3d6000fd5b505050506040513d601f19601f82011682018060405250810190620002129190620008f4565b6001600160a01b031660a08190526200022d90600162000420565b60a0516200023d90600162000454565b6a013da329b63364718000006008556a01a784379d99db42000000600a9081556004906000906001908390839083906a52b7d2dcc80cd2e400000090612710906200028a9083906200092f565b6200029691906200094f565b60095560158790556016869055601785905584620002b5878962000972565b620002c1919062000972565b6014556019849055601a839055601b82905581620002e0848662000972565b620002ec919062000972565b601855600680546001600160a01b0319908116730c5ff2358aee1f931c340da41bc71c9a166c1c9517909155600780549091167392208bff3a44d2b0978c963bba07879467000ae2179055620003566200034e6005546001600160a01b031690565b6001620004a8565b62000363306001620004a8565b6200037261dead6001620004a8565b62000391620003896005546001600160a01b031690565b600162000420565b6200039e30600162000420565b620003ad61dead600162000420565b620003b9338262000511565b505050505050505050505062000988565b3390565b600580546001600160a01b038381166001600160a01b0319831681179093556040519116919082907f8be0079c531659141344cd1fd0a4f28419497f9722a3daafe3b4186f6b6457e090600090a35050565b6200042a620005d8565b6001600160a01b039190911660009081526020805260409020805460ff1916911515919091179055565b6001600160a01b038216600081815260216020526040808220805460ff191685151590811790915590519092917fffa9187bf1f18bf477bd0ea1bcbb64e93b6a98132473929edfce215cd9b16fab91a35050565b620004b2620005d8565b6001600160a01b0382166000818152601f6020908152604091829020805460ff191685151590811790915591519182527f9d8f7706ea1113d1a167b526eca956215946dd36cc7df39eb16180222d8b5df7910160405180910390a25050565b6001600160a01b0382166200056d5760405162461bcd60e51b815260206004820152601f60248201527f45524332303a206d696e7420746f20746865207a65726f20616464726573730060448201526064015b60405180910390fd5b806002600082825462000581919062000972565b90915550506001600160a01b038216600081815260208181526040808320805486019055518481527fddf252ad1be2c89b69c2b068fc378daa952ba7f163c4a11628f55a4df523b3ef910160405180910390a35050565b6005546001600160a01b03163314620006345760405162461bcd60e51b815260206004820181905260248201527f4f776e61626c653a2063616c6c6572206973206e6f7420746865206f776e6572604482015260640162000564565b565b505050565b80516001600160a01b03811681146200065357600080fd5b919050565b634e487b7160e01b600052604160045260246000fd5b600082601f8301126200068057600080fd5b81516001600160401b03808211156200069d576200069d62000658565b604051601f8301601f19908116603f01168101908282118183101715620006c857620006c862000658565b81604052838152602092508683858801011115620006e557600080fd5b600091505b83821015620007095785820183015181830184015290820190620006ea565b600093810190920192909252949350505050565b6000806000606084860312156200073357600080fd5b6200073e846200063b565b60208501519093506001600160401b03808211156200075c57600080fd5b6200076a878388016200066e565b935060408601519150808211156200078157600080fd5b5062000790868287016200066e565b9150509250925092565b600181811c90821680620007af57607f821691505b602082108103620007d057634e487b7160e01b600052602260045260246000fd5b50919050565b601f8211156200063657600081815260208120601f850160051c81016020861015620007ff5750805b601f850160051c820191505b8181101562000820578281556001016200080b565b505050505050565b81516001600160401b0381111562000844576200084462000658565b6200085c816200085584546200079a565b84620007d6565b602080601f8311600181146200089457600084156200087b5750858301515b600019600386901b1c1916600185901b17855562000820565b600085815260208120601f198616915b82811015620008c557888601518255948401946001909101908401620008a4565b5085821015620008e45787850151600019600388901b60f8161c191681555b5050505050600190811b01905550565b6000602082840312156200090757600080fd5b62000912826200063b565b9392505050565b634e487b7160e01b600052601160045260246000fd5b808202811582820484141762000949576200094962000919565b92915050565b6000826200096d57634e487b7160e01b600052601260045260246000fd5b500490565b8082018082111562000949576200094962000919565b60805160a051612e2862000a10600039600081816105e001528181610f7e0152818161152b015281816115c6015281816115f201528181611a66015281816125ae01528181612650015261267c01526000818161044301528181611a28015281816127860152818161283f0152818161287b015281816128f501526129520152612e286000f3fe60806040526004361061039b5760003560e01c80638095d564116101dc578063c024666811610102578063dd62ed3e116100a0578063f2fde38b1161006f578063f2fde38b14610a4d578063f637434214610a6d578063f8b45b0514610a83578063fe72b27a14610a9957600080fd5b8063dd62ed3e146109ec578063e2f4560514610a0c578063e884f26014610a22578063f11a24d314610a3757600080fd5b8063c876d0b9116100dc578063c876d0b914610986578063c8c8ebe4146109a0578063d257b34f146109b6578063d85ba063146109d657600080fd5b8063c024666814610926578063c17b5b8c14610946578063c18bc1951461096657600080fd5b80639ec22c0e1161017a578063a9059cbb11610149578063a9059cbb146108a1578063b2041411146108c1578063b62496f5146108d7578063bbc0c7421461090757600080fd5b80639ec22c0e1461083f5780639fccce3214610855578063a457c2d71461086b578063a4c82a001461088b57600080fd5b806392136913116101b657806392136913146107d4578063924de9b7146107ea57806395d89b411461080a5780639a7a23d61461081f57600080fd5b80638095d564146107815780638a8c523c146107a15780638da5cb5b146107b657600080fd5b8063313ce567116102c15780636ddd17131161025f578063751039fc1161022e578063751039fc146107165780637571336a1461072b5780637bce5a041461074b5780637d831a8b1461076157600080fd5b80636ddd17131461068b57806370a08231146106ab578063715018a6146106e1578063730c1888146106f657600080fd5b80634a62bb651161029b5780634a62bb65146106025780634fbee1931461061c578063535e02d8146106555780636a486a8e1461067557600080fd5b8063313ce5671461059257806339509351146105ae57806349bd5a5e146105ce57600080fd5b8063199ffc721161033957806323b872dd1161030857806323b872dd1461052c57806327c8f8351461054c5780632c3e486c146105625780632e82f1a01461057857600080fd5b8063199ffc72146104c85780631a8145bb146104de5780631f3fed8f146104f4578063203e727e1461050a57600080fd5b80631694505e116103755780631694505e1461043157806318160ddd1461047d578063184c16c51461049c57806318a94cf1146104b257600080fd5b806306fdde03146103a7578063095ea7b3146103d257806310d5de531461040257600080fd5b366103a257005b600080fd5b3480156103b357600080fd5b506103bc610ab9565b6040516103c991906129d0565b60405180910390f35b3480156103de57600080fd5b506103f26103ed366004612a33565b610b4b565b60405190151581526020016103c9565b34801561040e57600080fd5b506103f261041d366004612a5f565b602080526000908152604090205460ff1681565b34801561043d57600080fd5b506104657f000000000000000000000000000000000000000000000000000000000000000081565b6040516001600160a01b0390911681526020016103c9565b34801561048957600080fd5b506002545b6040519081526020016103c9565b3480156104a857600080fd5b5061048e600f5481565b3480156104be57600080fd5b5061048e601b5481565b3480156104d457600080fd5b5061048e600b5481565b3480156104ea57600080fd5b5061048e601d5481565b34801561050057600080fd5b5061048e601c5481565b34801561051657600080fd5b5061052a610525366004612a7c565b610b65565b005b34801561053857600080fd5b506103f2610547366004612a95565b610c25565b34801561055857600080fd5b5061046561dead81565b34801561056e57600080fd5b5061048e600d5481565b34801561058457600080fd5b50600c546103f29060ff1681565b34801561059e57600080fd5b50604051601281526020016103c9565b3480156105ba57600080fd5b506103f26105c9366004612a33565b610c49565b3480156105da57600080fd5b506104657f000000000000000000000000000000000000000000000000000000000000000081565b34801561060e57600080fd5b506011546103f29060ff1681565b34801561062857600080fd5b506103f2610637366004612a5f565b6001600160a01b03166000908152601f602052604090205460ff1690565b34801561066157600080fd5b5061052a610670366004612a5f565b610c6b565b34801561068157600080fd5b5061048e60185481565b34801561069757600080fd5b506011546103f29062010000900460ff1681565b3480156106b757600080fd5b5061048e6106c6366004612a5f565b6001600160a01b031660009081526020819052604090205490565b3480156106ed57600080fd5b5061052a610cd0565b34801561070257600080fd5b5061052a610711366004612ae6565b610ce4565b34801561072257600080fd5b506103f2610deb565b34801561073757600080fd5b5061052a610746366004612b1b565b610e05565b34801561075757600080fd5b5061048e60155481565b34801561076d57600080fd5b5061052a61077c366004612a5f565b610e37565b34801561078d57600080fd5b5061052a61079c366004612b50565b610e9c565b3480156107ad57600080fd5b5061052a610f22565b3480156107c257600080fd5b506005546001600160a01b0316610465565b3480156107e057600080fd5b5061048e60195481565b3480156107f657600080fd5b5061052a610805366004612b7c565b610f41565b34801561081657600080fd5b506103bc610f65565b34801561082b57600080fd5b5061052a61083a366004612b1b565b610f74565b34801561084b57600080fd5b5061048e60105481565b34801561086157600080fd5b5061048e601e5481565b34801561087757600080fd5b506103f2610886366004612a33565b611031565b34801561089757600080fd5b5061048e600e5481565b3480156108ad57600080fd5b506103f26108bc366004612a33565b6110ac565b3480156108cd57600080fd5b5061048e60175481565b3480156108e357600080fd5b506103f26108f2366004612a5f565b60216020526000908152604090205460ff1681565b34801561091357600080fd5b506011546103f290610100900460ff1681565b34801561093257600080fd5b5061052a610941366004612b1b565b6110ba565b34801561095257600080fd5b5061052a610961366004612b50565b611121565b34801561097257600080fd5b5061052a610981366004612a7c565b6111a2565b34801561099257600080fd5b506013546103f29060ff1681565b3480156109ac57600080fd5b5061048e60085481565b3480156109c257600080fd5b506103f26109d1366004612a7c565b611251565b3480156109e257600080fd5b5061048e60145481565b3480156109f857600080fd5b5061048e610a07366004612b97565b611385565b348015610a1857600080fd5b5061048e60095481565b348015610a2e57600080fd5b506103f26113b0565b348015610a4357600080fd5b5061048e60165481565b348015610a5957600080fd5b5061052a610a68366004612a5f565b6113ca565b348015610a7957600080fd5b5061048e601a5481565b348015610a8f57600080fd5b5061048e600a5481565b348015610aa557600080fd5b506103f2610ab4366004612a7c565b611443565b606060038054610ac890612bd0565b80601f0160208091040260200160405190810160405280929190818152602001828054610af490612bd0565b8015610b415780601f10610b1657610100808354040283529160200191610b41565b820191906000526020600020905b815481529060010190602001808311610b2457829003601f168201915b5050505050905090565b600033610b5981858561169a565b60019150505b92915050565b610b6d6117be565b670de0b6b3a76400006103e8610b8260025490565b610b8d906001612c20565b610b979190612c37565b610ba19190612c37565b811015610c0d5760405162461bcd60e51b815260206004820152602f60248201527f43616e6e6f7420736574206d61785472616e73616374696f6e416d6f756e742060448201526e6c6f776572207468616e20302e312560881b60648201526084015b60405180910390fd5b610c1f81670de0b6b3a7640000612c20565b60085550565b600033610c33858285611818565b610c3e858585611892565b506001949350505050565b600033610b59818585610c5c8383611385565b610c669190612c59565b61169a565b610c736117be565b6007546040516001600160a01b03918216918316907ffaf1b77ed79f6e898c44dd8ab36b330c7b2fd39bcaab05ed6362480df870396590600090a3600780546001600160a01b0319166001600160a01b0392909216919091179055565b610cd86117be565b610ce2600061216a565b565b610cec6117be565b610258831015610d5a5760405162461bcd60e51b815260206004820152603360248201527f63616e6e6f7420736574206275796261636b206d6f7265206f6674656e207468604482015272616e206576657279203130206d696e7574657360681b6064820152608401610c04565b6103e88211158015610d6a575060015b610dcf5760405162461bcd60e51b815260206004820152603060248201527f4d75737420736574206175746f204c50206275726e2070657263656e7420626560448201526f747765656e20302520616e642031302560801b6064820152608401610c04565b600d92909255600b55600c805460ff1916911515919091179055565b6000610df56117be565b506011805460ff19169055600190565b610e0d6117be565b6001600160a01b039190911660009081526020805260409020805460ff1916911515919091179055565b610e3f6117be565b6006546040516001600160a01b03918216918316907fa751787977eeb3902e30e1d19ca00c6ad274a1f622c31a206e32366700b0567490600090a3600680546001600160a01b0319166001600160a01b0392909216919091179055565b610ea46117be565b60158390556016829055601781905580610ebe8385612c59565b610ec89190612c59565b601481905560231015610f1d5760405162461bcd60e51b815260206004820152601d60248201527f4d757374206b656570206665657320617420333525206f72206c6573730000006044820152606401610c04565b505050565b610f2a6117be565b6011805462ffff0019166201010017905542600e55565b610f496117be565b60118054911515620100000262ff000019909216919091179055565b606060048054610ac890612bd0565b610f7c6117be565b7f00000000000000000000000000000000000000000000000000000000000000006001600160a01b0316826001600160a01b0316036110235760405162461bcd60e51b815260206004820152603960248201527f54686520706169722063616e6e6f742062652072656d6f7665642066726f6d2060448201527f6175746f6d617465644d61726b65744d616b65725061697273000000000000006064820152608401610c04565b61102d82826121bc565b5050565b6000338161103f8286611385565b90508381101561109f5760405162461bcd60e51b815260206004820152602560248201527f45524332303a2064656372656173656420616c6c6f77616e63652062656c6f77604482015264207a65726f60d81b6064820152608401610c04565b610c3e828686840361169a565b600033610b59818585611892565b6110c26117be565b6001600160a01b0382166000818152601f6020908152604091829020805460ff191685151590811790915591519182527f9d8f7706ea1113d1a167b526eca956215946dd36cc7df39eb16180222d8b5df7910160405180910390a25050565b6111296117be565b6019839055601a829055601b819055806111438385612c59565b61114d9190612c59565b601881905560631015610f1d5760405162461bcd60e51b815260206004820152601d60248201527f4d757374206b656570206665657320617420343025206f72206c6573730000006044820152606401610c04565b6111aa6117be565b670de0b6b3a76400006103e86111bf60025490565b6111ca906005612c20565b6111d49190612c37565b6111de9190612c37565b8110156112395760405162461bcd60e51b8152602060048201526024808201527f43616e6e6f7420736574206d617857616c6c6574206c6f776572207468616e20604482015263302e352560e01b6064820152608401610c04565b61124b81670de0b6b3a7640000612c20565b600a5550565b600061125b6117be565b620186a061126860025490565b611273906001612c20565b61127d9190612c37565b8210156112ea5760405162461bcd60e51b815260206004820152603560248201527f5377617020616d6f756e742063616e6e6f74206265206c6f776572207468616e60448201527410181718181892903a37ba30b61039bab838363c9760591b6064820152608401610c04565b6103e86112f660025490565b611301906005612c20565b61130b9190612c37565b8211156113775760405162461bcd60e51b815260206004820152603460248201527f5377617020616d6f756e742063616e6e6f742062652068696768657220746861604482015273371018171a92903a37ba30b61039bab838363c9760611b6064820152608401610c04565b50600981905560015b919050565b6001600160a01b03918216600090815260016020908152604080832093909416825291909152205490565b60006113ba6117be565b506013805460ff19169055600190565b6113d26117be565b6001600160a01b0381166114375760405162461bcd60e51b815260206004820152602660248201527f4f776e61626c653a206e6577206f776e657220697320746865207a65726f206160448201526564647265737360d01b6064820152608401610c04565b6114408161216a565b50565b600061144d6117be565b600f5460105461145d9190612c59565b42116114ab5760405162461bcd60e51b815260206004820181905260248201527f4d757374207761697420666f7220636f6f6c646f776e20746f2066696e6973686044820152606401610c04565b6103e88211156115105760405162461bcd60e51b815260206004820152602a60248201527f4d6179206e6f74206e756b65206d6f7265207468616e20313025206f6620746f60448201526906b656e7320696e204c560b41b6064820152608401610c04565b426010556040516370a0823160e01b81526001600160a01b037f000000000000000000000000000000000000000000000000000000000000000016600482015260009030906370a0823190602401602060405180830381865afa15801561157b573d6000803e3d6000fd5b505050506040513d601f19601f8201168201806040525081019061159f9190612c6c565b905060006115b96127106115b38487612210565b90612223565b905080156115ee576115ee7f000000000000000000000000000000000000000000000000000000000000000061dead8361222f565b60007f00000000000000000000000000000000000000000000000000000000000000009050806001600160a01b031663fff6cae96040518163ffffffff1660e01b8152600401600060405180830381600087803b15801561164e57600080fd5b505af1158015611662573d6000803e3d6000fd5b50506040517f8462566617872a3fbab94534675218431ff9e204063ee3f4f43d965626a39abb925060009150a1506001949350505050565b6001600160a01b0383166116fc5760405162461bcd60e51b8152602060048201526024808201527f45524332303a20617070726f76652066726f6d20746865207a65726f206164646044820152637265737360e01b6064820152608401610c04565b6001600160a01b03821661175d5760405162461bcd60e51b815260206004820152602260248201527f45524332303a20617070726f766520746f20746865207a65726f206164647265604482015261737360f01b6064820152608401610c04565b6001600160a01b0383811660008181526001602090815260408083209487168084529482529182902085905590518481527f8c5be1e5ebec7d5bd14f71427d1e84f3dd0314c0f7b2291e5b200ac8c7c3b925910160405180910390a3505050565b6005546001600160a01b03163314610ce25760405162461bcd60e51b815260206004820181905260248201527f4f776e61626c653a2063616c6c6572206973206e6f7420746865206f776e65726044820152606401610c04565b60006118248484611385565b9050600019811461188c578181101561187f5760405162461bcd60e51b815260206004820152601d60248201527f45524332303a20696e73756666696369656e7420616c6c6f77616e63650000006044820152606401610c04565b61188c848484840361169a565b50505050565b6001600160a01b0383166118b85760405162461bcd60e51b8152600401610c0490612c85565b6001600160a01b0382166118de5760405162461bcd60e51b8152600401610c0490612cca565b806000036118f257610f1d8383600061222f565b60115460ff1615611dac576005546001600160a01b0384811691161480159061192957506005546001600160a01b03838116911614155b801561193d57506001600160a01b03821615155b801561195457506001600160a01b03821661dead14155b801561196a5750600554600160a01b900460ff16155b15611dac57601154610100900460ff16611a02576001600160a01b0383166000908152601f602052604090205460ff16806119bd57506001600160a01b0382166000908152601f602052604090205460ff165b611a025760405162461bcd60e51b81526020600482015260166024820152752a3930b234b7339034b9903737ba1030b1ba34bb329760511b6044820152606401610c04565b60135460ff1615611b49576005546001600160a01b03838116911614801590611a5d57507f00000000000000000000000000000000000000000000000000000000000000006001600160a01b0316826001600160a01b031614155b8015611a9b57507f00000000000000000000000000000000000000000000000000000000000000006001600160a01b0316826001600160a01b031614155b15611b4957326000908152601260205260409020544311611b365760405162461bcd60e51b815260206004820152604960248201527f5f7472616e736665723a3a205472616e736665722044656c617920656e61626c60448201527f65642e20204f6e6c79206f6e652070757263686173652070657220626c6f636b6064820152681030b63637bbb2b21760b91b608482015260a401610c04565b3260009081526012602052604090204390555b6001600160a01b03831660009081526021602052604090205460ff168015611b8957506001600160a01b038216600090815260208052604090205460ff16155b15611c6d57600854811115611bfe5760405162461bcd60e51b815260206004820152603560248201527f427579207472616e7366657220616d6f756e742065786365656473207468652060448201527436b0bc2a3930b739b0b1ba34b7b720b6b7bab73a1760591b6064820152608401610c04565b600a546001600160a01b038316600090815260208190526040902054611c249083612c59565b1115611c685760405162461bcd60e51b815260206004820152601360248201527213585e081dd85b1b195d08195e18d959591959606a1b6044820152606401610c04565b611dac565b6001600160a01b03821660009081526021602052604090205460ff168015611cad57506001600160a01b038316600090815260208052604090205460ff16155b15611d2357600854811115611c685760405162461bcd60e51b815260206004820152603660248201527f53656c6c207472616e7366657220616d6f756e742065786365656473207468656044820152751036b0bc2a3930b739b0b1ba34b7b720b6b7bab73a1760511b6064820152608401610c04565b6001600160a01b038216600090815260208052604090205460ff16611dac57600a546001600160a01b038316600090815260208190526040902054611d689083612c59565b1115611dac5760405162461bcd60e51b815260206004820152601360248201527213585e081dd85b1b195d08195e18d959591959606a1b6044820152606401610c04565b3060009081526020819052604090205460095481108015908190611dd8575060115462010000900460ff165b8015611dee5750600554600160a01b900460ff16155b8015611e1357506001600160a01b03851660009081526021602052604090205460ff16155b8015611e3857506001600160a01b0385166000908152601f602052604090205460ff16155b8015611e5d57506001600160a01b0384166000908152601f602052604090205460ff16155b15611e8b576005805460ff60a01b1916600160a01b179055611e7d612359565b6005805460ff60a01b191690555b600554600160a01b900460ff16158015611ebd57506001600160a01b03841660009081526021602052604090205460ff165b8015611ecb5750600c5460ff165b8015611ee65750600d54600e54611ee29190612c59565b4210155b8015611f0b57506001600160a01b0385166000908152601f602052604090205460ff16155b15611f1a57611f18612593565b505b6005546001600160a01b0386166000908152601f602052604090205460ff600160a01b909204821615911680611f6857506001600160a01b0385166000908152601f602052604090205460ff165b15611f71575060005b60008115612156576001600160a01b03861660009081526021602052604090205460ff168015611fa357506000601854115b1561205b57611fc260646115b36018548861221090919063ffffffff16565b9050601854601a5482611fd59190612c20565b611fdf9190612c37565b601d6000828254611ff09190612c59565b9091555050601854601b546120059083612c20565b61200f9190612c37565b601e60008282546120209190612c59565b90915550506018546019546120359083612c20565b61203f9190612c37565b601c60008282546120509190612c59565b909155506121389050565b6001600160a01b03871660009081526021602052604090205460ff16801561208557506000601454115b15612138576120a460646115b36014548861221090919063ffffffff16565b9050601454601654826120b79190612c20565b6120c19190612c37565b601d60008282546120d29190612c59565b90915550506014546017546120e79083612c20565b6120f19190612c37565b601e60008282546121029190612c59565b90915550506014546015546121179083612c20565b6121219190612c37565b601c60008282546121329190612c59565b90915550505b80156121495761214987308361222f565b6121538186612d0d565b94505b61216187878761222f565b50505050505050565b600580546001600160a01b038381166001600160a01b0319831681179093556040519116919082907f8be0079c531659141344cd1fd0a4f28419497f9722a3daafe3b4186f6b6457e090600090a35050565b6001600160a01b038216600081815260216020526040808220805460ff191685151590811790915590519092917fffa9187bf1f18bf477bd0ea1bcbb64e93b6a98132473929edfce215cd9b16fab91a35050565b600061221c8284612c20565b9392505050565b600061221c8284612c37565b6001600160a01b0383166122555760405162461bcd60e51b8152600401610c0490612c85565b6001600160a01b03821661227b5760405162461bcd60e51b8152600401610c0490612cca565b6001600160a01b038316600090815260208190526040902054818110156122f35760405162461bcd60e51b815260206004820152602660248201527f45524332303a207472616e7366657220616d6f756e7420657863656564732062604482015265616c616e636560d01b6064820152608401610c04565b6001600160a01b03848116600081815260208181526040808320878703905593871680835291849020805487019055925185815290927fddf252ad1be2c89b69c2b068fc378daa952ba7f163c4a11628f55a4df523b3ef910160405180910390a361188c565b3060009081526020819052604081205490506000601e54601c54601d546123809190612c59565b61238a9190612c59565b90506000821580612399575081155b156123a357505050565b6009546123b1906014612c20565b8311156123c9576009546123c6906014612c20565b92505b6000600283601d54866123dc9190612c20565b6123e69190612c37565b6123f09190612c37565b905060006123fe8583612723565b90504761240a8261272f565b60006124164783612723565b90506000612433876115b3601c548561221090919063ffffffff16565b90506000612450886115b3601e548661221090919063ffffffff16565b905060008161245f8486612d0d565b6124699190612d0d565b6000601d819055601c819055601e8190556007546040519293506001600160a01b031691849181818185875af1925050503d80600081146124c6576040519150601f19603f3d011682016040523d82523d6000602084013e6124cb565b606091505b509098505086158015906124df5750600081115b15612532576124ee87826128ef565b601d54604080518881526020810184905280820192909252517f17bbfb9a6069321b6ded73bd96327c9e6b7212a5cd51ff219cd61370acafb5619181900360600190a15b6006546040516001600160a01b03909116904790600081818185875af1925050503d806000811461257f576040519150601f19603f3d011682016040523d82523d6000602084013e612584565b606091505b50505050505050505050505050565b42600e556040516370a0823160e01b81526001600160a01b037f0000000000000000000000000000000000000000000000000000000000000000166004820152600090819030906370a0823190602401602060405180830381865afa158015612600573d6000803e3d6000fd5b505050506040513d601f19601f820116820180604052508101906126249190612c6c565b905060006126436127106115b3600b548561221090919063ffffffff16565b90508015612678576126787f000000000000000000000000000000000000000000000000000000000000000061dead8361222f565b60007f00000000000000000000000000000000000000000000000000000000000000009050806001600160a01b031663fff6cae96040518163ffffffff1660e01b8152600401600060405180830381600087803b1580156126d857600080fd5b505af11580156126ec573d6000803e3d6000fd5b50506040517f454c91ae84fcc766ddda0dcb289f26b3d0176efeacf4061fc219fa6ca8c3048d925060009150a16001935050505090565b600061221c8284612d0d565b604080516002808252606082018352600092602083019080368337019050509050308160008151811061276457612764612d20565b60200260200101906001600160a01b031690816001600160a01b0316815250507f00000000000000000000000000000000000000000000000000000000000000006001600160a01b031663ad5c46486040518163ffffffff1660e01b8152600401602060405180830381865afa1580156127e2573d6000803e3d6000fd5b505050506040513d601f19601f820116820180604052508101906128069190612d36565b8160018151811061281957612819612d20565b60200260200101906001600160a01b031690816001600160a01b031681525050612864307f00000000000000000000000000000000000000000000000000000000000000008461169a565b60405163791ac94760e01b81526001600160a01b037f0000000000000000000000000000000000000000000000000000000000000000169063791ac947906128b9908590600090869030904290600401612d53565b600060405180830381600087803b1580156128d357600080fd5b505af11580156128e7573d6000803e3d6000fd5b505050505050565b61291a307f00000000000000000000000000000000000000000000000000000000000000008461169a565b60405163f305d71960e01b815230600482015260248101839052600060448201819052606482015261dead60848201524260a48201527f00000000000000000000000000000000000000000000000000000000000000006001600160a01b03169063f305d71990839060c40160606040518083038185885af11580156129a4573d6000803e3d6000fd5b50505050506040513d601f19601f820116820180604052508101906129c99190612dc4565b5050505050565b600060208083528351808285015260005b818110156129fd578581018301518582016040015282016129e1565b506000604082860101526040601f19601f8301168501019250505092915050565b6001600160a01b038116811461144057600080fd5b60008060408385031215612a4657600080fd5b8235612a5181612a1e565b946020939093013593505050565b600060208284031215612a7157600080fd5b813561221c81612a1e565b600060208284031215612a8e57600080fd5b5035919050565b600080600060608486031215612aaa57600080fd5b8335612ab581612a1e565b92506020840135612ac581612a1e565b929592945050506040919091013590565b8035801515811461138057600080fd5b600080600060608486031215612afb57600080fd5b8335925060208401359150612b1260408501612ad6565b90509250925092565b60008060408385031215612b2e57600080fd5b8235612b3981612a1e565b9150612b4760208401612ad6565b90509250929050565b600080600060608486031215612b6557600080fd5b505081359360208301359350604090920135919050565b600060208284031215612b8e57600080fd5b61221c82612ad6565b60008060408385031215612baa57600080fd5b8235612bb581612a1e565b91506020830135612bc581612a1e565b809150509250929050565b600181811c90821680612be457607f821691505b602082108103612c0457634e487b7160e01b600052602260045260246000fd5b50919050565b634e487b7160e01b600052601160045260246000fd5b8082028115828204841417610b5f57610b5f612c0a565b600082612c5457634e487b7160e01b600052601260045260246000fd5b500490565b80820180821115610b5f57610b5f612c0a565b600060208284031215612c7e57600080fd5b5051919050565b60208082526025908201527f45524332303a207472616e736665722066726f6d20746865207a65726f206164604082015264647265737360d81b606082015260800190565b60208082526023908201527f45524332303a207472616e7366657220746f20746865207a65726f206164647260408201526265737360e81b606082015260800190565b81810381811115610b5f57610b5f612c0a565b634e487b7160e01b600052603260045260246000fd5b600060208284031215612d4857600080fd5b815161221c81612a1e565b600060a082018783526020878185015260a0604085015281875180845260c086019150828901935060005b81811015612da35784516001600160a01b031683529383019391830191600101612d7e565b50506001600160a01b03969096166060850152505050608001529392505050565b600080600060608486031215612dd957600080fd5b835192506020840151915060408401519050925092509256fea26469706673582212203e16cfe812eb03b579fd91f22ea35770f1f3224455b460b671f28481d594912a64736f6c63430008120033",
  "linkReferences": {},
  "deployedLinkReferences": {}
}